{
	"contracts/Exchange.sol": {
		"Exchange": {
			"abi": [
				{
					"inputs": [
						{
							"internalType": "address",
							"name": "_tokenAddress",
							"type": "address"
						}
					],
					"stateMutability": "nonpayable",
					"type": "constructor"
				},
				{
					"anonymous": false,
					"inputs": [
						{
							"indexed": false,
							"internalType": "uint256",
							"name": "amountERC20TokenDeposited",
							"type": "uint256"
						},
						{
							"indexed": false,
							"internalType": "uint256",
							"name": "amountEthDeposited",
							"type": "uint256"
						},
						{
							"indexed": false,
							"internalType": "uint256",
							"name": "liquidityPositionsIssued",
							"type": "uint256"
						}
					],
					"name": "LiquidityProvided",
					"type": "event"
				},
				{
					"anonymous": false,
					"inputs": [
						{
							"indexed": false,
							"internalType": "uint256",
							"name": "amountERC20TokenWithdrew",
							"type": "uint256"
						},
						{
							"indexed": false,
							"internalType": "uint256",
							"name": "amountEthWithdrew",
							"type": "uint256"
						},
						{
							"indexed": false,
							"internalType": "uint256",
							"name": "liquidityPositionsBurned",
							"type": "uint256"
						}
					],
					"name": "LiquidityWithdrew",
					"type": "event"
				},
				{
					"anonymous": false,
					"inputs": [
						{
							"indexed": false,
							"internalType": "uint256",
							"name": "amountERC20TokenWithdrew",
							"type": "uint256"
						},
						{
							"indexed": false,
							"internalType": "uint256",
							"name": "amountEthDeposited",
							"type": "uint256"
						}
					],
					"name": "SwapForERC20Token",
					"type": "event"
				},
				{
					"anonymous": false,
					"inputs": [
						{
							"indexed": false,
							"internalType": "uint256",
							"name": "amountERC20TokenDeposited",
							"type": "uint256"
						},
						{
							"indexed": false,
							"internalType": "uint256",
							"name": "amountEthWithdrew",
							"type": "uint256"
						}
					],
					"name": "SwapForEth",
					"type": "event"
				},
				{
					"inputs": [
						{
							"internalType": "uint256",
							"name": "_amountEth",
							"type": "uint256"
						}
					],
					"name": "estimateERC20TokenToProvide",
					"outputs": [
						{
							"internalType": "uint256",
							"name": "",
							"type": "uint256"
						}
					],
					"stateMutability": "view",
					"type": "function"
				},
				{
					"inputs": [
						{
							"internalType": "uint256",
							"name": "_amountERC20Token",
							"type": "uint256"
						}
					],
					"name": "estimateEthToProvide",
					"outputs": [
						{
							"internalType": "uint256",
							"name": "",
							"type": "uint256"
						}
					],
					"stateMutability": "view",
					"type": "function"
				},
				{
					"inputs": [
						{
							"internalType": "uint256",
							"name": "_amountEth",
							"type": "uint256"
						}
					],
					"name": "estimateSwapForERC20Token",
					"outputs": [
						{
							"internalType": "uint256",
							"name": "",
							"type": "uint256"
						}
					],
					"stateMutability": "view",
					"type": "function"
				},
				{
					"inputs": [
						{
							"internalType": "uint256",
							"name": "_amountERC20Token",
							"type": "uint256"
						}
					],
					"name": "estimateSwapForEth",
					"outputs": [
						{
							"internalType": "uint256",
							"name": "",
							"type": "uint256"
						}
					],
					"stateMutability": "view",
					"type": "function"
				},
				{
					"inputs": [],
					"name": "getMyLiquidityPositions",
					"outputs": [
						{
							"internalType": "uint256",
							"name": "",
							"type": "uint256"
						}
					],
					"stateMutability": "view",
					"type": "function"
				},
				{
					"inputs": [
						{
							"internalType": "address",
							"name": "",
							"type": "address"
						}
					],
					"name": "liquidityPositions",
					"outputs": [
						{
							"internalType": "uint256",
							"name": "",
							"type": "uint256"
						}
					],
					"stateMutability": "view",
					"type": "function"
				},
				{
					"inputs": [
						{
							"internalType": "uint256",
							"name": "_amountERC20Token",
							"type": "uint256"
						}
					],
					"name": "provideLiquidity",
					"outputs": [
						{
							"internalType": "uint256",
							"name": "liquidityPositionsIssued",
							"type": "uint256"
						}
					],
					"stateMutability": "payable",
					"type": "function"
				},
				{
					"inputs": [],
					"name": "swapForERC20Token",
					"outputs": [
						{
							"internalType": "uint256",
							"name": "",
							"type": "uint256"
						}
					],
					"stateMutability": "payable",
					"type": "function"
				},
				{
					"inputs": [
						{
							"internalType": "uint256",
							"name": "_amountERC20Token",
							"type": "uint256"
						}
					],
					"name": "swapForEth",
					"outputs": [
						{
							"internalType": "uint256",
							"name": "",
							"type": "uint256"
						}
					],
					"stateMutability": "nonpayable",
					"type": "function"
				},
				{
					"inputs": [],
					"name": "tokenAddress",
					"outputs": [
						{
							"internalType": "address",
							"name": "",
							"type": "address"
						}
					],
					"stateMutability": "view",
					"type": "function"
				},
				{
					"inputs": [],
					"name": "totalLiquidityPositions",
					"outputs": [
						{
							"internalType": "uint256",
							"name": "",
							"type": "uint256"
						}
					],
					"stateMutability": "view",
					"type": "function"
				},
				{
					"inputs": [
						{
							"internalType": "uint256",
							"name": "_liquidityPositionsToBurn",
							"type": "uint256"
						}
					],
					"name": "withdrawLiquidity",
					"outputs": [
						{
							"internalType": "uint256",
							"name": "",
							"type": "uint256"
						},
						{
							"internalType": "uint256",
							"name": "",
							"type": "uint256"
						}
					],
					"stateMutability": "nonpayable",
					"type": "function"
				}
			],
			"devdoc": {
				"kind": "dev",
				"methods": {},
				"version": 1
			},
			"evm": {
				"assembly": "    /* \"contracts/Exchange.sol\":130:5431  contract Exchange {... */\n  mstore(0x40, 0x80)\n    /* \"contracts/Exchange.sol\":757:837  constructor(address _tokenAddress) {... */\n  callvalue\n  dup1\n  iszero\n  tag_1\n  jumpi\n  0x00\n  dup1\n  revert\ntag_1:\n  pop\n  mload(0x40)\n  sub(codesize, bytecodeSize)\n  dup1\n  bytecodeSize\n  dup4\n  codecopy\n  dup2\n  dup2\n  add\n  0x40\n  mstore\n  dup2\n  add\n  swap1\n  tag_2\n  swap2\n  swap1\n  tag_3\n  jump\t// in\ntag_2:\n    /* \"contracts/Exchange.sol\":817:830  _tokenAddress */\n  dup1\n    /* \"contracts/Exchange.sol\":802:814  tokenAddress */\n  0x00\n  dup1\n    /* \"contracts/Exchange.sol\":802:830  tokenAddress = _tokenAddress */\n  0x0100\n  exp\n  dup2\n  sload\n  dup2\n  0xffffffffffffffffffffffffffffffffffffffff\n  mul\n  not\n  and\n  swap1\n  dup4\n  0xffffffffffffffffffffffffffffffffffffffff\n  and\n  mul\n  or\n  swap1\n  sstore\n  pop\n    /* \"contracts/Exchange.sol\":757:837  constructor(address _tokenAddress) {... */\n  pop\n    /* \"contracts/Exchange.sol\":130:5431  contract Exchange {... */\n  jump(tag_6)\n    /* \"#utility.yul\":7:150   */\ntag_8:\n    /* \"#utility.yul\":64:69   */\n  0x00\n    /* \"#utility.yul\":95:101   */\n  dup2\n    /* \"#utility.yul\":89:102   */\n  mload\n    /* \"#utility.yul\":80:102   */\n  swap1\n  pop\n    /* \"#utility.yul\":111:144   */\n  tag_10\n    /* \"#utility.yul\":138:143   */\n  dup2\n    /* \"#utility.yul\":111:144   */\n  tag_11\n  jump\t// in\ntag_10:\n    /* \"#utility.yul\":7:150   */\n  swap3\n  swap2\n  pop\n  pop\n  jump\t// out\n    /* \"#utility.yul\":156:507   */\ntag_3:\n    /* \"#utility.yul\":226:232   */\n  0x00\n    /* \"#utility.yul\":275:277   */\n  0x20\n    /* \"#utility.yul\":263:272   */\n  dup3\n    /* \"#utility.yul\":254:261   */\n  dup5\n    /* \"#utility.yul\":250:273   */\n  sub\n    /* \"#utility.yul\":246:278   */\n  slt\n    /* \"#utility.yul\":243:362   */\n  iszero\n  tag_13\n  jumpi\n    /* \"#utility.yul\":281:360   */\n  tag_14\n  tag_15\n  jump\t// in\ntag_14:\n    /* \"#utility.yul\":243:362   */\ntag_13:\n    /* \"#utility.yul\":401:402   */\n  0x00\n    /* \"#utility.yul\":426:490   */\n  tag_16\n    /* \"#utility.yul\":482:489   */\n  dup5\n    /* \"#utility.yul\":473:479   */\n  dup3\n    /* \"#utility.yul\":462:471   */\n  dup6\n    /* \"#utility.yul\":458:480   */\n  add\n    /* \"#utility.yul\":426:490   */\n  tag_8\n  jump\t// in\ntag_16:\n    /* \"#utility.yul\":416:490   */\n  swap2\n  pop\n    /* \"#utility.yul\":372:500   */\n  pop\n    /* \"#utility.yul\":156:507   */\n  swap3\n  swap2\n  pop\n  pop\n  jump\t// out\n    /* \"#utility.yul\":594:690   */\ntag_19:\n    /* \"#utility.yul\":631:638   */\n  0x00\n    /* \"#utility.yul\":660:684   */\n  tag_21\n    /* \"#utility.yul\":678:683   */\n  dup3\n    /* \"#utility.yul\":660:684   */\n  tag_22\n  jump\t// in\ntag_21:\n    /* \"#utility.yul\":649:684   */\n  swap1\n  pop\n    /* \"#utility.yul\":594:690   */\n  swap2\n  swap1\n  pop\n  jump\t// out\n    /* \"#utility.yul\":696:822   */\ntag_22:\n    /* \"#utility.yul\":733:740   */\n  0x00\n    /* \"#utility.yul\":773:815   */\n  0xffffffffffffffffffffffffffffffffffffffff\n    /* \"#utility.yul\":766:771   */\n  dup3\n    /* \"#utility.yul\":762:816   */\n  and\n    /* \"#utility.yul\":751:816   */\n  swap1\n  pop\n    /* \"#utility.yul\":696:822   */\n  swap2\n  swap1\n  pop\n  jump\t// out\n    /* \"#utility.yul\":951:1068   */\ntag_15:\n    /* \"#utility.yul\":1060:1061   */\n  0x00\n    /* \"#utility.yul\":1057:1058   */\n  dup1\n    /* \"#utility.yul\":1050:1062   */\n  revert\n    /* \"#utility.yul\":1074:1196   */\ntag_11:\n    /* \"#utility.yul\":1147:1171   */\n  tag_28\n    /* \"#utility.yul\":1165:1170   */\n  dup2\n    /* \"#utility.yul\":1147:1171   */\n  tag_19\n  jump\t// in\ntag_28:\n    /* \"#utility.yul\":1140:1145   */\n  dup2\n    /* \"#utility.yul\":1137:1172   */\n  eq\n    /* \"#utility.yul\":1127:1190   */\n  tag_29\n  jumpi\n    /* \"#utility.yul\":1186:1187   */\n  0x00\n    /* \"#utility.yul\":1183:1184   */\n  dup1\n    /* \"#utility.yul\":1176:1188   */\n  revert\n    /* \"#utility.yul\":1127:1190   */\ntag_29:\n    /* \"#utility.yul\":1074:1196   */\n  pop\n  jump\t// out\n    /* \"contracts/Exchange.sol\":130:5431  contract Exchange {... */\ntag_6:\n  dataSize(sub_0)\n  dup1\n  dataOffset(sub_0)\n  0x00\n  codecopy\n  0x00\n  return\nstop\n\nsub_0: assembly {\n        /* \"contracts/Exchange.sol\":130:5431  contract Exchange {... */\n      mstore(0x40, 0x80)\n      jumpi(tag_1, lt(calldatasize, 0x04))\n      shr(0xe0, calldataload(0x00))\n      dup1\n      0x903875f7\n      gt\n      tag_14\n      jumpi\n      dup1\n      0x903875f7\n      eq\n      tag_8\n      jumpi\n      dup1\n      0x9d76ea58\n      eq\n      tag_9\n      jumpi\n      dup1\n      0xc8ab8325\n      eq\n      tag_10\n      jumpi\n      dup1\n      0xe0ba2000\n      eq\n      tag_11\n      jumpi\n      dup1\n      0xeb521a4c\n      eq\n      tag_12\n      jumpi\n      dup1\n      0xed7bf868\n      eq\n      tag_13\n      jumpi\n      jump(tag_1)\n    tag_14:\n      dup1\n      0x0a861f2a\n      eq\n      tag_2\n      jumpi\n      dup1\n      0x1cde6226\n      eq\n      tag_3\n      jumpi\n      dup1\n      0x240f3dea\n      eq\n      tag_4\n      jumpi\n      dup1\n      0x29cbab3e\n      eq\n      tag_5\n      jumpi\n      dup1\n      0x6fd0ea92\n      eq\n      tag_6\n      jumpi\n      dup1\n      0x79ed3562\n      eq\n      tag_7\n      jumpi\n    tag_1:\n      0x00\n      dup1\n      revert\n        /* \"contracts/Exchange.sol\":2313:3284  function withdrawLiquidity(uint _liquidityPositionsToBurn) external returns (uint, uint) {... */\n    tag_2:\n      callvalue\n      dup1\n      iszero\n      tag_15\n      jumpi\n      0x00\n      dup1\n      revert\n    tag_15:\n      pop\n      tag_16\n      0x04\n      dup1\n      calldatasize\n      sub\n      dup2\n      add\n      swap1\n      tag_17\n      swap2\n      swap1\n      tag_18\n      jump\t// in\n    tag_17:\n      tag_19\n      jump\t// in\n    tag_16:\n      mload(0x40)\n      tag_20\n      swap3\n      swap2\n      swap1\n      tag_21\n      jump\t// in\n    tag_20:\n      mload(0x40)\n      dup1\n      swap2\n      sub\n      swap1\n      return\n        /* \"contracts/Exchange.sol\":187:222  uint public totalLiquidityPositions */\n    tag_3:\n      callvalue\n      dup1\n      iszero\n      tag_22\n      jumpi\n      0x00\n      dup1\n      revert\n    tag_22:\n      pop\n      tag_23\n      tag_24\n      jump\t// in\n    tag_23:\n      mload(0x40)\n      tag_25\n      swap2\n      swap1\n      tag_26\n      jump\t// in\n    tag_25:\n      mload(0x40)\n      dup1\n      swap2\n      sub\n      swap1\n      return\n        /* \"contracts/Exchange.sol\":1844:2014  function estimateEthToProvide(uint _amountERC20Token) external view returns (uint) {... */\n    tag_4:\n      callvalue\n      dup1\n      iszero\n      tag_27\n      jumpi\n      0x00\n      dup1\n      revert\n    tag_27:\n      pop\n      tag_28\n      0x04\n      dup1\n      calldatasize\n      sub\n      dup2\n      add\n      swap1\n      tag_29\n      swap2\n      swap1\n      tag_18\n      jump\t// in\n    tag_29:\n      tag_30\n      jump\t// in\n    tag_28:\n      mload(0x40)\n      tag_31\n      swap2\n      swap1\n      tag_26\n      jump\t// in\n    tag_31:\n      mload(0x40)\n      dup1\n      swap2\n      sub\n      swap1\n      return\n        /* \"contracts/Exchange.sol\":4414:5060  function swapForERC20Token() external payable returns (uint) {... */\n    tag_5:\n      tag_32\n      tag_33\n      jump\t// in\n    tag_32:\n      mload(0x40)\n      tag_34\n      swap2\n      swap1\n      tag_26\n      jump\t// in\n    tag_34:\n      mload(0x40)\n      dup1\n      swap2\n      sub\n      swap1\n      return\n        /* \"contracts/Exchange.sol\":228:278  mapping(address => uint) public liquidityPositions */\n    tag_6:\n      callvalue\n      dup1\n      iszero\n      tag_35\n      jumpi\n      0x00\n      dup1\n      revert\n    tag_35:\n      pop\n      tag_36\n      0x04\n      dup1\n      calldatasize\n      sub\n      dup2\n      add\n      swap1\n      tag_37\n      swap2\n      swap1\n      tag_38\n      jump\t// in\n    tag_37:\n      tag_39\n      jump\t// in\n    tag_36:\n      mload(0x40)\n      tag_40\n      swap2\n      swap1\n      tag_26\n      jump\t// in\n    tag_40:\n      mload(0x40)\n      dup1\n      swap2\n      sub\n      swap1\n      return\n        /* \"contracts/Exchange.sol\":5066:5429  function estimateSwapForERC20Token(uint _amountEth) external view returns (uint) {... */\n    tag_7:\n      callvalue\n      dup1\n      iszero\n      tag_41\n      jumpi\n      0x00\n      dup1\n      revert\n    tag_41:\n      pop\n      tag_42\n      0x04\n      dup1\n      calldatasize\n      sub\n      dup2\n      add\n      swap1\n      tag_43\n      swap2\n      swap1\n      tag_18\n      jump\t// in\n    tag_43:\n      tag_44\n      jump\t// in\n    tag_42:\n      mload(0x40)\n      tag_45\n      swap2\n      swap1\n      tag_26\n      jump\t// in\n    tag_45:\n      mload(0x40)\n      dup1\n      swap2\n      sub\n      swap1\n      return\n        /* \"contracts/Exchange.sol\":4038:4408  function estimateSwapForEth(uint _amountERC20Token) external view returns (uint) {... */\n    tag_8:\n      callvalue\n      dup1\n      iszero\n      tag_46\n      jumpi\n      0x00\n      dup1\n      revert\n    tag_46:\n      pop\n      tag_47\n      0x04\n      dup1\n      calldatasize\n      sub\n      dup2\n      add\n      swap1\n      tag_48\n      swap2\n      swap1\n      tag_18\n      jump\t// in\n    tag_48:\n      tag_49\n      jump\t// in\n    tag_47:\n      mload(0x40)\n      tag_50\n      swap2\n      swap1\n      tag_26\n      jump\t// in\n    tag_50:\n      mload(0x40)\n      dup1\n      swap2\n      sub\n      swap1\n      return\n        /* \"contracts/Exchange.sol\":154:181  address public tokenAddress */\n    tag_9:\n      callvalue\n      dup1\n      iszero\n      tag_51\n      jumpi\n      0x00\n      dup1\n      revert\n    tag_51:\n      pop\n      tag_52\n      tag_53\n      jump\t// in\n    tag_52:\n      mload(0x40)\n      tag_54\n      swap2\n      swap1\n      tag_55\n      jump\t// in\n    tag_54:\n      mload(0x40)\n      dup1\n      swap2\n      sub\n      swap1\n      return\n        /* \"contracts/Exchange.sol\":3290:4032  function swapForEth(uint _amountERC20Token) external returns (uint) {... */\n    tag_10:\n      callvalue\n      dup1\n      iszero\n      tag_56\n      jumpi\n      0x00\n      dup1\n      revert\n    tag_56:\n      pop\n      tag_57\n      0x04\n      dup1\n      calldatasize\n      sub\n      dup2\n      add\n      swap1\n      tag_58\n      swap2\n      swap1\n      tag_18\n      jump\t// in\n    tag_58:\n      tag_59\n      jump\t// in\n    tag_57:\n      mload(0x40)\n      tag_60\n      swap2\n      swap1\n      tag_26\n      jump\t// in\n    tag_60:\n      mload(0x40)\n      dup1\n      swap2\n      sub\n      swap1\n      return\n        /* \"contracts/Exchange.sol\":2189:2307  function getMyLiquidityPositions() external view returns (uint) {... */\n    tag_11:\n      callvalue\n      dup1\n      iszero\n      tag_61\n      jumpi\n      0x00\n      dup1\n      revert\n    tag_61:\n      pop\n      tag_62\n      tag_63\n      jump\t// in\n    tag_62:\n      mload(0x40)\n      tag_64\n      swap2\n      swap1\n      tag_26\n      jump\t// in\n    tag_64:\n      mload(0x40)\n      dup1\n      swap2\n      sub\n      swap1\n      return\n        /* \"contracts/Exchange.sol\":843:1838  function provideLiquidity(uint _amountERC20Token) external payable returns (uint liquidityPositionsIssued) {... */\n    tag_12:\n      tag_65\n      0x04\n      dup1\n      calldatasize\n      sub\n      dup2\n      add\n      swap1\n      tag_66\n      swap2\n      swap1\n      tag_18\n      jump\t// in\n    tag_66:\n      tag_67\n      jump\t// in\n    tag_65:\n      mload(0x40)\n      tag_68\n      swap2\n      swap1\n      tag_26\n      jump\t// in\n    tag_68:\n      mload(0x40)\n      dup1\n      swap2\n      sub\n      swap1\n      return\n        /* \"contracts/Exchange.sol\":2020:2183  function estimateERC20TokenToProvide(uint _amountEth) external view returns (uint) {... */\n    tag_13:\n      callvalue\n      dup1\n      iszero\n      tag_69\n      jumpi\n      0x00\n      dup1\n      revert\n    tag_69:\n      pop\n      tag_70\n      0x04\n      dup1\n      calldatasize\n      sub\n      dup2\n      add\n      swap1\n      tag_71\n      swap2\n      swap1\n      tag_18\n      jump\t// in\n    tag_71:\n      tag_72\n      jump\t// in\n    tag_70:\n      mload(0x40)\n      tag_73\n      swap2\n      swap1\n      tag_26\n      jump\t// in\n    tag_73:\n      mload(0x40)\n      dup1\n      swap2\n      sub\n      swap1\n      return\n        /* \"contracts/Exchange.sol\":2313:3284  function withdrawLiquidity(uint _liquidityPositionsToBurn) external returns (uint, uint) {... */\n    tag_19:\n        /* \"contracts/Exchange.sol\":2390:2394  uint */\n      0x00\n        /* \"contracts/Exchange.sol\":2396:2400  uint */\n      dup1\n        /* \"contracts/Exchange.sol\":2448:2449  0 */\n      0x00\n        /* \"contracts/Exchange.sol\":2420:2445  _liquidityPositionsToBurn */\n      dup4\n        /* \"contracts/Exchange.sol\":2420:2449  _liquidityPositionsToBurn > 0 */\n      gt\n        /* \"contracts/Exchange.sol\":2420:2512  _liquidityPositionsToBurn > 0 && _liquidityPositionsToBurn <= liquidityPositions[msg.sender] */\n      dup1\n      iszero\n      tag_75\n      jumpi\n      pop\n        /* \"contracts/Exchange.sol\":2482:2500  liquidityPositions */\n      0x02\n        /* \"contracts/Exchange.sol\":2482:2512  liquidityPositions[msg.sender] */\n      0x00\n        /* \"contracts/Exchange.sol\":2501:2511  msg.sender */\n      caller\n        /* \"contracts/Exchange.sol\":2482:2512  liquidityPositions[msg.sender] */\n      0xffffffffffffffffffffffffffffffffffffffff\n      and\n      0xffffffffffffffffffffffffffffffffffffffff\n      and\n      dup2\n      mstore\n      0x20\n      add\n      swap1\n      dup2\n      mstore\n      0x20\n      add\n      0x00\n      keccak256\n      sload\n        /* \"contracts/Exchange.sol\":2453:2478  _liquidityPositionsToBurn */\n      dup4\n        /* \"contracts/Exchange.sol\":2453:2512  _liquidityPositionsToBurn <= liquidityPositions[msg.sender] */\n      gt\n      iszero\n        /* \"contracts/Exchange.sol\":2420:2512  _liquidityPositionsToBurn > 0 && _liquidityPositionsToBurn <= liquidityPositions[msg.sender] */\n    tag_75:\n        /* \"contracts/Exchange.sol\":2412:2531  require(_liquidityPositionsToBurn > 0 && _liquidityPositionsToBurn <= liquidityPositions[msg.sender], \"Invalid amount\") */\n      tag_76\n      jumpi\n      mload(0x40)\n      0x08c379a000000000000000000000000000000000000000000000000000000000\n      dup2\n      mstore\n      0x04\n      add\n      tag_77\n      swap1\n      tag_78\n      jump\t// in\n    tag_77:\n      mload(0x40)\n      dup1\n      swap2\n      sub\n      swap1\n      revert\n    tag_76:\n        /* \"contracts/Exchange.sol\":2541:2561  uint amountEthToSend */\n      0x00\n        /* \"contracts/Exchange.sol\":2615:2638  totalLiquidityPositions */\n      sload(0x01)\n        /* \"contracts/Exchange.sol\":2586:2611  _liquidityPositionsToBurn */\n      dup5\n        /* \"contracts/Exchange.sol\":2565:2583  contractEthBalance */\n      sload(0x03)\n        /* \"contracts/Exchange.sol\":2565:2611  contractEthBalance * _liquidityPositionsToBurn */\n      tag_79\n      swap2\n      swap1\n      tag_80\n      jump\t// in\n    tag_79:\n        /* \"contracts/Exchange.sol\":2564:2638  (contractEthBalance * _liquidityPositionsToBurn) / totalLiquidityPositions */\n      tag_81\n      swap2\n      swap1\n      tag_82\n      jump\t// in\n    tag_81:\n        /* \"contracts/Exchange.sol\":2541:2638  uint amountEthToSend = (contractEthBalance * _liquidityPositionsToBurn) / totalLiquidityPositions */\n      swap1\n      pop\n        /* \"contracts/Exchange.sol\":2648:2670  uint amountERC20ToSend */\n      0x00\n        /* \"contracts/Exchange.sol\":2726:2749  totalLiquidityPositions */\n      sload(0x01)\n        /* \"contracts/Exchange.sol\":2697:2722  _liquidityPositionsToBurn */\n      dup6\n        /* \"contracts/Exchange.sol\":2674:2694  contractTokenBalance */\n      sload(0x04)\n        /* \"contracts/Exchange.sol\":2674:2722  contractTokenBalance * _liquidityPositionsToBurn */\n      tag_83\n      swap2\n      swap1\n      tag_80\n      jump\t// in\n    tag_83:\n        /* \"contracts/Exchange.sol\":2673:2749  (contractTokenBalance * _liquidityPositionsToBurn) / totalLiquidityPositions */\n      tag_84\n      swap2\n      swap1\n      tag_82\n      jump\t// in\n    tag_84:\n        /* \"contracts/Exchange.sol\":2648:2749  uint amountERC20ToSend = (contractTokenBalance * _liquidityPositionsToBurn) / totalLiquidityPositions */\n      swap1\n      pop\n        /* \"contracts/Exchange.sol\":2802:2827  _liquidityPositionsToBurn */\n      dup5\n        /* \"contracts/Exchange.sol\":2768:2786  liquidityPositions */\n      0x02\n        /* \"contracts/Exchange.sol\":2768:2798  liquidityPositions[msg.sender] */\n      0x00\n        /* \"contracts/Exchange.sol\":2787:2797  msg.sender */\n      caller\n        /* \"contracts/Exchange.sol\":2768:2798  liquidityPositions[msg.sender] */\n      0xffffffffffffffffffffffffffffffffffffffff\n      and\n      0xffffffffffffffffffffffffffffffffffffffff\n      and\n      dup2\n      mstore\n      0x20\n      add\n      swap1\n      dup2\n      mstore\n      0x20\n      add\n      0x00\n      keccak256\n      0x00\n        /* \"contracts/Exchange.sol\":2768:2827  liquidityPositions[msg.sender] -= _liquidityPositionsToBurn */\n      dup3\n      dup3\n      sload\n      tag_85\n      swap2\n      swap1\n      tag_86\n      jump\t// in\n    tag_85:\n      swap3\n      pop\n      pop\n      dup2\n      swap1\n      sstore\n      pop\n        /* \"contracts/Exchange.sol\":2864:2889  _liquidityPositionsToBurn */\n      dup5\n        /* \"contracts/Exchange.sol\":2837:2860  totalLiquidityPositions */\n      0x01\n      0x00\n        /* \"contracts/Exchange.sol\":2837:2889  totalLiquidityPositions -= _liquidityPositionsToBurn */\n      dup3\n      dup3\n      sload\n      tag_87\n      swap2\n      swap1\n      tag_86\n      jump\t// in\n    tag_87:\n      swap3\n      pop\n      pop\n      dup2\n      swap1\n      sstore\n      pop\n        /* \"contracts/Exchange.sol\":2921:2936  amountEthToSend */\n      dup2\n        /* \"contracts/Exchange.sol\":2899:2917  contractEthBalance */\n      0x03\n      0x00\n        /* \"contracts/Exchange.sol\":2899:2936  contractEthBalance -= amountEthToSend */\n      dup3\n      dup3\n      sload\n      tag_88\n      swap2\n      swap1\n      tag_86\n      jump\t// in\n    tag_88:\n      swap3\n      pop\n      pop\n      dup2\n      swap1\n      sstore\n      pop\n        /* \"contracts/Exchange.sol\":2970:2987  amountERC20ToSend */\n      dup1\n        /* \"contracts/Exchange.sol\":2946:2966  contractTokenBalance */\n      0x04\n      0x00\n        /* \"contracts/Exchange.sol\":2946:2987  contractTokenBalance -= amountERC20ToSend */\n      dup3\n      dup3\n      sload\n      tag_89\n      swap2\n      swap1\n      tag_86\n      jump\t// in\n    tag_89:\n      swap3\n      pop\n      pop\n      dup2\n      swap1\n      sstore\n      pop\n        /* \"contracts/Exchange.sol\":3014:3024  msg.sender */\n      caller\n        /* \"contracts/Exchange.sol\":3006:3034  payable(msg.sender).transfer */\n      0xffffffffffffffffffffffffffffffffffffffff\n      and\n        /* \"contracts/Exchange.sol\":3006:3051  payable(msg.sender).transfer(amountEthToSend) */\n      0x08fc\n        /* \"contracts/Exchange.sol\":3035:3050  amountEthToSend */\n      dup4\n        /* \"contracts/Exchange.sol\":3006:3051  payable(msg.sender).transfer(amountEthToSend) */\n      swap1\n      dup2\n      iszero\n      mul\n      swap1\n      mload(0x40)\n      0x00\n      mload(0x40)\n      dup1\n      dup4\n      sub\n      dup2\n      dup6\n      dup9\n      dup9\n      call\n      swap4\n      pop\n      pop\n      pop\n      pop\n      iszero\n      dup1\n      iszero\n      tag_91\n      jumpi\n      returndatasize\n      0x00\n      dup1\n      returndatacopy\n      revert(0x00, returndatasize)\n    tag_91:\n      pop\n        /* \"contracts/Exchange.sol\":3067:3079  tokenAddress */\n      0x00\n      dup1\n      sload\n      swap1\n      0x0100\n      exp\n      swap1\n      div\n      0xffffffffffffffffffffffffffffffffffffffff\n      and\n        /* \"contracts/Exchange.sol\":3061:3089  ERC20(tokenAddress).transfer */\n      0xffffffffffffffffffffffffffffffffffffffff\n      and\n      0xa9059cbb\n        /* \"contracts/Exchange.sol\":3090:3100  msg.sender */\n      caller\n        /* \"contracts/Exchange.sol\":3102:3119  amountERC20ToSend */\n      dup4\n        /* \"contracts/Exchange.sol\":3061:3120  ERC20(tokenAddress).transfer(msg.sender, amountERC20ToSend) */\n      mload(0x40)\n      dup4\n      0xffffffff\n      and\n      0xe0\n      shl\n      dup2\n      mstore\n      0x04\n      add\n      tag_92\n      swap3\n      swap2\n      swap1\n      tag_93\n      jump\t// in\n    tag_92:\n      0x20\n      mload(0x40)\n      dup1\n      dup4\n      sub\n      dup2\n      0x00\n      dup8\n      dup1\n      extcodesize\n      iszero\n      dup1\n      iszero\n      tag_94\n      jumpi\n      0x00\n      dup1\n      revert\n    tag_94:\n      pop\n      gas\n      call\n      iszero\n      dup1\n      iszero\n      tag_96\n      jumpi\n      returndatasize\n      0x00\n      dup1\n      returndatacopy\n      revert(0x00, returndatasize)\n    tag_96:\n      pop\n      pop\n      pop\n      pop\n      mload(0x40)\n      returndatasize\n      not(0x1f)\n      0x1f\n      dup3\n      add\n      and\n      dup3\n      add\n      dup1\n      0x40\n      mstore\n      pop\n      dup2\n      add\n      swap1\n      tag_97\n      swap2\n      swap1\n      tag_98\n      jump\t// in\n    tag_97:\n      pop\n        /* \"contracts/Exchange.sol\":3144:3224  LiquidityWithdrew(amountERC20ToSend, amountEthToSend, _liquidityPositionsToBurn) */\n      0xb14f451e613015c13a17c78777f1d87fcb448d7330d67299a09b8f2db38aab10\n        /* \"contracts/Exchange.sol\":3162:3179  amountERC20ToSend */\n      dup2\n        /* \"contracts/Exchange.sol\":3181:3196  amountEthToSend */\n      dup4\n        /* \"contracts/Exchange.sol\":3198:3223  _liquidityPositionsToBurn */\n      dup8\n        /* \"contracts/Exchange.sol\":3144:3224  LiquidityWithdrew(amountERC20ToSend, amountEthToSend, _liquidityPositionsToBurn) */\n      mload(0x40)\n      tag_99\n      swap4\n      swap3\n      swap2\n      swap1\n      tag_100\n      jump\t// in\n    tag_99:\n      mload(0x40)\n      dup1\n      swap2\n      sub\n      swap1\n      log1\n        /* \"contracts/Exchange.sol\":3242:3259  amountERC20ToSend */\n      dup1\n        /* \"contracts/Exchange.sol\":3261:3276  amountEthToSend */\n      dup3\n        /* \"contracts/Exchange.sol\":3234:3277  return (amountERC20ToSend, amountEthToSend) */\n      swap4\n      pop\n      swap4\n      pop\n      pop\n      pop\n        /* \"contracts/Exchange.sol\":2313:3284  function withdrawLiquidity(uint _liquidityPositionsToBurn) external returns (uint, uint) {... */\n      swap2\n      pop\n      swap2\n      jump\t// out\n        /* \"contracts/Exchange.sol\":187:222  uint public totalLiquidityPositions */\n    tag_24:\n      sload(0x01)\n      dup2\n      jump\t// out\n        /* \"contracts/Exchange.sol\":1844:2014  function estimateEthToProvide(uint _amountERC20Token) external view returns (uint) {... */\n    tag_30:\n        /* \"contracts/Exchange.sol\":1921:1925  uint */\n      0x00\n        /* \"contracts/Exchange.sol\":1987:2007  contractTokenBalance */\n      sload(0x04)\n        /* \"contracts/Exchange.sol\":1966:1983  _amountERC20Token */\n      dup3\n        /* \"contracts/Exchange.sol\":1945:1963  contractEthBalance */\n      sload(0x03)\n        /* \"contracts/Exchange.sol\":1945:1983  contractEthBalance * _amountERC20Token */\n      tag_102\n      swap2\n      swap1\n      tag_80\n      jump\t// in\n    tag_102:\n        /* \"contracts/Exchange.sol\":1944:2007  (contractEthBalance * _amountERC20Token) / contractTokenBalance */\n      tag_103\n      swap2\n      swap1\n      tag_82\n      jump\t// in\n    tag_103:\n        /* \"contracts/Exchange.sol\":1937:2007  return (contractEthBalance * _amountERC20Token) / contractTokenBalance */\n      swap1\n      pop\n        /* \"contracts/Exchange.sol\":1844:2014  function estimateEthToProvide(uint _amountERC20Token) external view returns (uint) {... */\n      swap2\n      swap1\n      pop\n      jump\t// out\n        /* \"contracts/Exchange.sol\":4414:5060  function swapForERC20Token() external payable returns (uint) {... */\n    tag_33:\n        /* \"contracts/Exchange.sol\":4469:4473  uint */\n      0x00\n        /* \"contracts/Exchange.sol\":4505:4506  0 */\n      dup1\n        /* \"contracts/Exchange.sol\":4493:4502  msg.value */\n      callvalue\n        /* \"contracts/Exchange.sol\":4493:4506  msg.value > 0 */\n      gt\n        /* \"contracts/Exchange.sol\":4485:4527  require(msg.value > 0, \"Must provide ETH\") */\n      tag_105\n      jumpi\n      mload(0x40)\n      0x08c379a000000000000000000000000000000000000000000000000000000000\n      dup2\n      mstore\n      0x04\n      add\n      tag_106\n      swap1\n      tag_107\n      jump\t// in\n    tag_106:\n      mload(0x40)\n      dup1\n      swap2\n      sub\n      swap1\n      revert\n    tag_105:\n        /* \"contracts/Exchange.sol\":4537:4569  uint contractEthBalanceAfterSwap */\n      0x00\n        /* \"contracts/Exchange.sol\":4593:4602  msg.value */\n      callvalue\n        /* \"contracts/Exchange.sol\":4572:4590  contractEthBalance */\n      sload(0x03)\n        /* \"contracts/Exchange.sol\":4572:4602  contractEthBalance + msg.value */\n      tag_108\n      swap2\n      swap1\n      tag_109\n      jump\t// in\n    tag_108:\n        /* \"contracts/Exchange.sol\":4537:4602  uint contractEthBalanceAfterSwap = contractEthBalance + msg.value */\n      swap1\n      pop\n        /* \"contracts/Exchange.sol\":4612:4651  uint contractERC20TokenBalanceAfterSwap */\n      0x00\n        /* \"contracts/Exchange.sol\":4700:4727  contractEthBalanceAfterSwap */\n      dup2\n        /* \"contracts/Exchange.sol\":4678:4696  contractEthBalance */\n      sload(0x03)\n        /* \"contracts/Exchange.sol\":4655:4675  contractTokenBalance */\n      sload(0x04)\n        /* \"contracts/Exchange.sol\":4655:4696  contractTokenBalance * contractEthBalance */\n      tag_110\n      swap2\n      swap1\n      tag_80\n      jump\t// in\n    tag_110:\n        /* \"contracts/Exchange.sol\":4654:4727  (contractTokenBalance * contractEthBalance) / contractEthBalanceAfterSwap */\n      tag_111\n      swap2\n      swap1\n      tag_82\n      jump\t// in\n    tag_111:\n        /* \"contracts/Exchange.sol\":4612:4727  uint contractERC20TokenBalanceAfterSwap = (contractTokenBalance * contractEthBalance) / contractEthBalanceAfterSwap */\n      swap1\n      pop\n        /* \"contracts/Exchange.sol\":4737:4754  uint tokensToSend */\n      0x00\n        /* \"contracts/Exchange.sol\":4780:4814  contractERC20TokenBalanceAfterSwap */\n      dup2\n        /* \"contracts/Exchange.sol\":4757:4777  contractTokenBalance */\n      sload(0x04)\n        /* \"contracts/Exchange.sol\":4757:4814  contractTokenBalance - contractERC20TokenBalanceAfterSwap */\n      tag_112\n      swap2\n      swap1\n      tag_86\n      jump\t// in\n    tag_112:\n        /* \"contracts/Exchange.sol\":4737:4814  uint tokensToSend = contractTokenBalance - contractERC20TokenBalanceAfterSwap */\n      swap1\n      pop\n        /* \"contracts/Exchange.sol\":4831:4843  tokenAddress */\n      0x00\n      dup1\n      sload\n      swap1\n      0x0100\n      exp\n      swap1\n      div\n      0xffffffffffffffffffffffffffffffffffffffff\n      and\n        /* \"contracts/Exchange.sol\":4825:4853  ERC20(tokenAddress).transfer */\n      0xffffffffffffffffffffffffffffffffffffffff\n      and\n      0xa9059cbb\n        /* \"contracts/Exchange.sol\":4854:4864  msg.sender */\n      caller\n        /* \"contracts/Exchange.sol\":4866:4878  tokensToSend */\n      dup4\n        /* \"contracts/Exchange.sol\":4825:4879  ERC20(tokenAddress).transfer(msg.sender, tokensToSend) */\n      mload(0x40)\n      dup4\n      0xffffffff\n      and\n      0xe0\n      shl\n      dup2\n      mstore\n      0x04\n      add\n      tag_113\n      swap3\n      swap2\n      swap1\n      tag_93\n      jump\t// in\n    tag_113:\n      0x20\n      mload(0x40)\n      dup1\n      dup4\n      sub\n      dup2\n      0x00\n      dup8\n      dup1\n      extcodesize\n      iszero\n      dup1\n      iszero\n      tag_114\n      jumpi\n      0x00\n      dup1\n      revert\n    tag_114:\n      pop\n      gas\n      call\n      iszero\n      dup1\n      iszero\n      tag_116\n      jumpi\n      returndatasize\n      0x00\n      dup1\n      returndatacopy\n      revert(0x00, returndatasize)\n    tag_116:\n      pop\n      pop\n      pop\n      pop\n      mload(0x40)\n      returndatasize\n      not(0x1f)\n      0x1f\n      dup3\n      add\n      and\n      dup3\n      add\n      dup1\n      0x40\n      mstore\n      pop\n      dup2\n      add\n      swap1\n      tag_117\n      swap2\n      swap1\n      tag_98\n      jump\t// in\n    tag_117:\n      pop\n        /* \"contracts/Exchange.sol\":4911:4920  msg.value */\n      callvalue\n        /* \"contracts/Exchange.sol\":4889:4907  contractEthBalance */\n      0x03\n      0x00\n        /* \"contracts/Exchange.sol\":4889:4920  contractEthBalance += msg.value */\n      dup3\n      dup3\n      sload\n      tag_118\n      swap2\n      swap1\n      tag_109\n      jump\t// in\n    tag_118:\n      swap3\n      pop\n      pop\n      dup2\n      swap1\n      sstore\n      pop\n        /* \"contracts/Exchange.sol\":4954:4966  tokensToSend */\n      dup1\n        /* \"contracts/Exchange.sol\":4930:4950  contractTokenBalance */\n      0x04\n      0x00\n        /* \"contracts/Exchange.sol\":4930:4966  contractTokenBalance -= tokensToSend */\n      dup3\n      dup3\n      sload\n      tag_119\n      swap2\n      swap1\n      tag_86\n      jump\t// in\n    tag_119:\n      swap3\n      pop\n      pop\n      dup2\n      swap1\n      sstore\n      pop\n        /* \"contracts/Exchange.sol\":4982:5024  SwapForERC20Token(tokensToSend, msg.value) */\n      0xcdfc57b3d0cdc24b23cea1f480aabea287321f5bee23ad76c2b52fa7982f5ea5\n        /* \"contracts/Exchange.sol\":5000:5012  tokensToSend */\n      dup2\n        /* \"contracts/Exchange.sol\":5014:5023  msg.value */\n      callvalue\n        /* \"contracts/Exchange.sol\":4982:5024  SwapForERC20Token(tokensToSend, msg.value) */\n      mload(0x40)\n      tag_120\n      swap3\n      swap2\n      swap1\n      tag_21\n      jump\t// in\n    tag_120:\n      mload(0x40)\n      dup1\n      swap2\n      sub\n      swap1\n      log1\n        /* \"contracts/Exchange.sol\":5041:5053  tokensToSend */\n      dup1\n        /* \"contracts/Exchange.sol\":5034:5053  return tokensToSend */\n      swap4\n      pop\n      pop\n      pop\n      pop\n        /* \"contracts/Exchange.sol\":4414:5060  function swapForERC20Token() external payable returns (uint) {... */\n      swap1\n      jump\t// out\n        /* \"contracts/Exchange.sol\":228:278  mapping(address => uint) public liquidityPositions */\n    tag_39:\n      mstore(0x20, 0x02)\n      dup1\n      0x00\n      mstore\n      keccak256(0x00, 0x40)\n      0x00\n      swap2\n      pop\n      swap1\n      pop\n      sload\n      dup2\n      jump\t// out\n        /* \"contracts/Exchange.sol\":5066:5429  function estimateSwapForERC20Token(uint _amountEth) external view returns (uint) {... */\n    tag_44:\n        /* \"contracts/Exchange.sol\":5141:5145  uint */\n      0x00\n        /* \"contracts/Exchange.sol\":5157:5189  uint contractEthBalanceAfterSwap */\n      dup1\n        /* \"contracts/Exchange.sol\":5213:5223  _amountEth */\n      dup3\n        /* \"contracts/Exchange.sol\":5192:5210  contractEthBalance */\n      sload(0x03)\n        /* \"contracts/Exchange.sol\":5192:5223  contractEthBalance + _amountEth */\n      tag_122\n      swap2\n      swap1\n      tag_109\n      jump\t// in\n    tag_122:\n        /* \"contracts/Exchange.sol\":5157:5223  uint contractEthBalanceAfterSwap = contractEthBalance + _amountEth */\n      swap1\n      pop\n        /* \"contracts/Exchange.sol\":5233:5272  uint contractERC20TokenBalanceAfterSwap */\n      0x00\n        /* \"contracts/Exchange.sol\":5321:5348  contractEthBalanceAfterSwap */\n      dup2\n        /* \"contracts/Exchange.sol\":5299:5317  contractEthBalance */\n      sload(0x03)\n        /* \"contracts/Exchange.sol\":5276:5296  contractTokenBalance */\n      sload(0x04)\n        /* \"contracts/Exchange.sol\":5276:5317  contractTokenBalance * contractEthBalance */\n      tag_123\n      swap2\n      swap1\n      tag_80\n      jump\t// in\n    tag_123:\n        /* \"contracts/Exchange.sol\":5275:5348  (contractTokenBalance * contractEthBalance) / contractEthBalanceAfterSwap */\n      tag_124\n      swap2\n      swap1\n      tag_82\n      jump\t// in\n    tag_124:\n        /* \"contracts/Exchange.sol\":5233:5348  uint contractERC20TokenBalanceAfterSwap = (contractTokenBalance * contractEthBalance) / contractEthBalanceAfterSwap */\n      swap1\n      pop\n        /* \"contracts/Exchange.sol\":5388:5422  contractERC20TokenBalanceAfterSwap */\n      dup1\n        /* \"contracts/Exchange.sol\":5365:5385  contractTokenBalance */\n      sload(0x04)\n        /* \"contracts/Exchange.sol\":5365:5422  contractTokenBalance - contractERC20TokenBalanceAfterSwap */\n      tag_125\n      swap2\n      swap1\n      tag_86\n      jump\t// in\n    tag_125:\n        /* \"contracts/Exchange.sol\":5358:5422  return contractTokenBalance - contractERC20TokenBalanceAfterSwap */\n      swap3\n      pop\n      pop\n      pop\n        /* \"contracts/Exchange.sol\":5066:5429  function estimateSwapForERC20Token(uint _amountEth) external view returns (uint) {... */\n      swap2\n      swap1\n      pop\n      jump\t// out\n        /* \"contracts/Exchange.sol\":4038:4408  function estimateSwapForEth(uint _amountERC20Token) external view returns (uint) {... */\n    tag_49:\n        /* \"contracts/Exchange.sol\":4113:4117  uint */\n      0x00\n        /* \"contracts/Exchange.sol\":4129:4168  uint contractERC20TokenBalanceAfterSwap */\n      dup1\n        /* \"contracts/Exchange.sol\":4194:4211  _amountERC20Token */\n      dup3\n        /* \"contracts/Exchange.sol\":4171:4191  contractTokenBalance */\n      sload(0x04)\n        /* \"contracts/Exchange.sol\":4171:4211  contractTokenBalance + _amountERC20Token */\n      tag_127\n      swap2\n      swap1\n      tag_109\n      jump\t// in\n    tag_127:\n        /* \"contracts/Exchange.sol\":4129:4211  uint contractERC20TokenBalanceAfterSwap = contractTokenBalance + _amountERC20Token */\n      swap1\n      pop\n        /* \"contracts/Exchange.sol\":4221:4253  uint contractEthBalanceAfterSwap */\n      0x00\n        /* \"contracts/Exchange.sol\":4302:4336  contractERC20TokenBalanceAfterSwap */\n      dup2\n        /* \"contracts/Exchange.sol\":4278:4298  contractTokenBalance */\n      sload(0x04)\n        /* \"contracts/Exchange.sol\":4257:4275  contractEthBalance */\n      sload(0x03)\n        /* \"contracts/Exchange.sol\":4257:4298  contractEthBalance * contractTokenBalance */\n      tag_128\n      swap2\n      swap1\n      tag_80\n      jump\t// in\n    tag_128:\n        /* \"contracts/Exchange.sol\":4256:4336  (contractEthBalance * contractTokenBalance) / contractERC20TokenBalanceAfterSwap */\n      tag_129\n      swap2\n      swap1\n      tag_82\n      jump\t// in\n    tag_129:\n        /* \"contracts/Exchange.sol\":4221:4336  uint contractEthBalanceAfterSwap = (contractEthBalance * contractTokenBalance) / contractERC20TokenBalanceAfterSwap */\n      swap1\n      pop\n        /* \"contracts/Exchange.sol\":4374:4401  contractEthBalanceAfterSwap */\n      dup1\n        /* \"contracts/Exchange.sol\":4353:4371  contractEthBalance */\n      sload(0x03)\n        /* \"contracts/Exchange.sol\":4353:4401  contractEthBalance - contractEthBalanceAfterSwap */\n      tag_130\n      swap2\n      swap1\n      tag_86\n      jump\t// in\n    tag_130:\n        /* \"contracts/Exchange.sol\":4346:4401  return contractEthBalance - contractEthBalanceAfterSwap */\n      swap3\n      pop\n      pop\n      pop\n        /* \"contracts/Exchange.sol\":4038:4408  function estimateSwapForEth(uint _amountERC20Token) external view returns (uint) {... */\n      swap2\n      swap1\n      pop\n      jump\t// out\n        /* \"contracts/Exchange.sol\":154:181  address public tokenAddress */\n    tag_53:\n      0x00\n      dup1\n      sload\n      swap1\n      0x0100\n      exp\n      swap1\n      div\n      0xffffffffffffffffffffffffffffffffffffffff\n      and\n      dup2\n      jump\t// out\n        /* \"contracts/Exchange.sol\":3290:4032  function swapForEth(uint _amountERC20Token) external returns (uint) {... */\n    tag_59:\n        /* \"contracts/Exchange.sol\":3352:3356  uint */\n      0x00\n        /* \"contracts/Exchange.sol\":3396:3397  0 */\n      dup1\n        /* \"contracts/Exchange.sol\":3376:3393  _amountERC20Token */\n      dup3\n        /* \"contracts/Exchange.sol\":3376:3397  _amountERC20Token > 0 */\n      gt\n        /* \"contracts/Exchange.sol\":3368:3421  require(_amountERC20Token > 0, \"Must provide tokens\") */\n      tag_132\n      jumpi\n      mload(0x40)\n      0x08c379a000000000000000000000000000000000000000000000000000000000\n      dup2\n      mstore\n      0x04\n      add\n      tag_133\n      swap1\n      tag_134\n      jump\t// in\n    tag_133:\n      mload(0x40)\n      dup1\n      swap2\n      sub\n      swap1\n      revert\n    tag_132:\n        /* \"contracts/Exchange.sol\":3431:3470  uint contractERC20TokenBalanceAfterSwap */\n      0x00\n        /* \"contracts/Exchange.sol\":3496:3513  _amountERC20Token */\n      dup3\n        /* \"contracts/Exchange.sol\":3473:3493  contractTokenBalance */\n      sload(0x04)\n        /* \"contracts/Exchange.sol\":3473:3513  contractTokenBalance + _amountERC20Token */\n      tag_135\n      swap2\n      swap1\n      tag_109\n      jump\t// in\n    tag_135:\n        /* \"contracts/Exchange.sol\":3431:3513  uint contractERC20TokenBalanceAfterSwap = contractTokenBalance + _amountERC20Token */\n      swap1\n      pop\n        /* \"contracts/Exchange.sol\":3523:3555  uint contractEthBalanceAfterSwap */\n      0x00\n        /* \"contracts/Exchange.sol\":3604:3638  contractERC20TokenBalanceAfterSwap */\n      dup2\n        /* \"contracts/Exchange.sol\":3580:3600  contractTokenBalance */\n      sload(0x04)\n        /* \"contracts/Exchange.sol\":3559:3577  contractEthBalance */\n      sload(0x03)\n        /* \"contracts/Exchange.sol\":3559:3600  contractEthBalance * contractTokenBalance */\n      tag_136\n      swap2\n      swap1\n      tag_80\n      jump\t// in\n    tag_136:\n        /* \"contracts/Exchange.sol\":3558:3638  (contractEthBalance * contractTokenBalance) / contractERC20TokenBalanceAfterSwap */\n      tag_137\n      swap2\n      swap1\n      tag_82\n      jump\t// in\n    tag_137:\n        /* \"contracts/Exchange.sol\":3523:3638  uint contractEthBalanceAfterSwap = (contractEthBalance * contractTokenBalance) / contractERC20TokenBalanceAfterSwap */\n      swap1\n      pop\n        /* \"contracts/Exchange.sol\":3648:3662  uint ethToSend */\n      0x00\n        /* \"contracts/Exchange.sol\":3686:3713  contractEthBalanceAfterSwap */\n      dup2\n        /* \"contracts/Exchange.sol\":3665:3683  contractEthBalance */\n      sload(0x03)\n        /* \"contracts/Exchange.sol\":3665:3713  contractEthBalance - contractEthBalanceAfterSwap */\n      tag_138\n      swap2\n      swap1\n      tag_86\n      jump\t// in\n    tag_138:\n        /* \"contracts/Exchange.sol\":3648:3713  uint ethToSend = contractEthBalance - contractEthBalanceAfterSwap */\n      swap1\n      pop\n        /* \"contracts/Exchange.sol\":3730:3742  tokenAddress */\n      0x00\n      dup1\n      sload\n      swap1\n      0x0100\n      exp\n      swap1\n      div\n      0xffffffffffffffffffffffffffffffffffffffff\n      and\n        /* \"contracts/Exchange.sol\":3724:3756  ERC20(tokenAddress).transferFrom */\n      0xffffffffffffffffffffffffffffffffffffffff\n      and\n      0x23b872dd\n        /* \"contracts/Exchange.sol\":3757:3767  msg.sender */\n      caller\n        /* \"contracts/Exchange.sol\":3777:3781  this */\n      address\n        /* \"contracts/Exchange.sol\":3784:3801  _amountERC20Token */\n      dup9\n        /* \"contracts/Exchange.sol\":3724:3802  ERC20(tokenAddress).transferFrom(msg.sender, address(this), _amountERC20Token) */\n      mload(0x40)\n      dup5\n      0xffffffff\n      and\n      0xe0\n      shl\n      dup2\n      mstore\n      0x04\n      add\n      tag_139\n      swap4\n      swap3\n      swap2\n      swap1\n      tag_140\n      jump\t// in\n    tag_139:\n      0x20\n      mload(0x40)\n      dup1\n      dup4\n      sub\n      dup2\n      0x00\n      dup8\n      dup1\n      extcodesize\n      iszero\n      dup1\n      iszero\n      tag_141\n      jumpi\n      0x00\n      dup1\n      revert\n    tag_141:\n      pop\n      gas\n      call\n      iszero\n      dup1\n      iszero\n      tag_143\n      jumpi\n      returndatasize\n      0x00\n      dup1\n      returndatacopy\n      revert(0x00, returndatasize)\n    tag_143:\n      pop\n      pop\n      pop\n      pop\n      mload(0x40)\n      returndatasize\n      not(0x1f)\n      0x1f\n      dup3\n      add\n      and\n      dup3\n      add\n      dup1\n      0x40\n      mstore\n      pop\n      dup2\n      add\n      swap1\n      tag_144\n      swap2\n      swap1\n      tag_98\n      jump\t// in\n    tag_144:\n      pop\n        /* \"contracts/Exchange.sol\":3820:3830  msg.sender */\n      caller\n        /* \"contracts/Exchange.sol\":3812:3840  payable(msg.sender).transfer */\n      0xffffffffffffffffffffffffffffffffffffffff\n      and\n        /* \"contracts/Exchange.sol\":3812:3851  payable(msg.sender).transfer(ethToSend) */\n      0x08fc\n        /* \"contracts/Exchange.sol\":3841:3850  ethToSend */\n      dup3\n        /* \"contracts/Exchange.sol\":3812:3851  payable(msg.sender).transfer(ethToSend) */\n      swap1\n      dup2\n      iszero\n      mul\n      swap1\n      mload(0x40)\n      0x00\n      mload(0x40)\n      dup1\n      dup4\n      sub\n      dup2\n      dup6\n      dup9\n      dup9\n      call\n      swap4\n      pop\n      pop\n      pop\n      pop\n      iszero\n      dup1\n      iszero\n      tag_146\n      jumpi\n      returndatasize\n      0x00\n      dup1\n      returndatacopy\n      revert(0x00, returndatasize)\n    tag_146:\n      pop\n        /* \"contracts/Exchange.sol\":3885:3902  _amountERC20Token */\n      dup5\n        /* \"contracts/Exchange.sol\":3861:3881  contractTokenBalance */\n      0x04\n      0x00\n        /* \"contracts/Exchange.sol\":3861:3902  contractTokenBalance += _amountERC20Token */\n      dup3\n      dup3\n      sload\n      tag_147\n      swap2\n      swap1\n      tag_109\n      jump\t// in\n    tag_147:\n      swap3\n      pop\n      pop\n      dup2\n      swap1\n      sstore\n      pop\n        /* \"contracts/Exchange.sol\":3934:3943  ethToSend */\n      dup1\n        /* \"contracts/Exchange.sol\":3912:3930  contractEthBalance */\n      0x03\n      0x00\n        /* \"contracts/Exchange.sol\":3912:3943  contractEthBalance -= ethToSend */\n      dup3\n      dup3\n      sload\n      tag_148\n      swap2\n      swap1\n      tag_86\n      jump\t// in\n    tag_148:\n      swap3\n      pop\n      pop\n      dup2\n      swap1\n      sstore\n      pop\n        /* \"contracts/Exchange.sol\":3959:3999  SwapForEth(_amountERC20Token, ethToSend) */\n      0x3297a389bb586920e62a196af529d5f42651b17a1013d6bfe77f22372a0b2112\n        /* \"contracts/Exchange.sol\":3970:3987  _amountERC20Token */\n      dup6\n        /* \"contracts/Exchange.sol\":3989:3998  ethToSend */\n      dup3\n        /* \"contracts/Exchange.sol\":3959:3999  SwapForEth(_amountERC20Token, ethToSend) */\n      mload(0x40)\n      tag_149\n      swap3\n      swap2\n      swap1\n      tag_21\n      jump\t// in\n    tag_149:\n      mload(0x40)\n      dup1\n      swap2\n      sub\n      swap1\n      log1\n        /* \"contracts/Exchange.sol\":4016:4025  ethToSend */\n      dup1\n        /* \"contracts/Exchange.sol\":4009:4025  return ethToSend */\n      swap4\n      pop\n      pop\n      pop\n      pop\n        /* \"contracts/Exchange.sol\":3290:4032  function swapForEth(uint _amountERC20Token) external returns (uint) {... */\n      swap2\n      swap1\n      pop\n      jump\t// out\n        /* \"contracts/Exchange.sol\":2189:2307  function getMyLiquidityPositions() external view returns (uint) {... */\n    tag_63:\n        /* \"contracts/Exchange.sol\":2247:2251  uint */\n      0x00\n        /* \"contracts/Exchange.sol\":2270:2288  liquidityPositions */\n      0x02\n        /* \"contracts/Exchange.sol\":2270:2300  liquidityPositions[msg.sender] */\n      0x00\n        /* \"contracts/Exchange.sol\":2289:2299  msg.sender */\n      caller\n        /* \"contracts/Exchange.sol\":2270:2300  liquidityPositions[msg.sender] */\n      0xffffffffffffffffffffffffffffffffffffffff\n      and\n      0xffffffffffffffffffffffffffffffffffffffff\n      and\n      dup2\n      mstore\n      0x20\n      add\n      swap1\n      dup2\n      mstore\n      0x20\n      add\n      0x00\n      keccak256\n      sload\n        /* \"contracts/Exchange.sol\":2263:2300  return liquidityPositions[msg.sender] */\n      swap1\n      pop\n        /* \"contracts/Exchange.sol\":2189:2307  function getMyLiquidityPositions() external view returns (uint) {... */\n      swap1\n      jump\t// out\n        /* \"contracts/Exchange.sol\":843:1838  function provideLiquidity(uint _amountERC20Token) external payable returns (uint liquidityPositionsIssued) {... */\n    tag_67:\n        /* \"contracts/Exchange.sol\":919:948  uint liquidityPositionsIssued */\n      0x00\n        /* \"contracts/Exchange.sol\":980:981  0 */\n      dup1\n        /* \"contracts/Exchange.sol\":968:977  msg.value */\n      callvalue\n        /* \"contracts/Exchange.sol\":968:981  msg.value > 0 */\n      gt\n        /* \"contracts/Exchange.sol\":968:1006  msg.value > 0 && _amountERC20Token > 0 */\n      dup1\n      iszero\n      tag_152\n      jumpi\n      pop\n        /* \"contracts/Exchange.sol\":1005:1006  0 */\n      0x00\n        /* \"contracts/Exchange.sol\":985:1002  _amountERC20Token */\n      dup3\n        /* \"contracts/Exchange.sol\":985:1006  _amountERC20Token > 0 */\n      gt\n        /* \"contracts/Exchange.sol\":968:1006  msg.value > 0 && _amountERC20Token > 0 */\n    tag_152:\n        /* \"contracts/Exchange.sol\":960:1044  require(msg.value > 0 && _amountERC20Token > 0, \"Must provide ETH and ERC-20 token\") */\n      tag_153\n      jumpi\n      mload(0x40)\n      0x08c379a000000000000000000000000000000000000000000000000000000000\n      dup2\n      mstore\n      0x04\n      add\n      tag_154\n      swap1\n      tag_155\n      jump\t// in\n    tag_154:\n      mload(0x40)\n      dup1\n      swap2\n      sub\n      swap1\n      revert\n    tag_153:\n        /* \"contracts/Exchange.sol\":1054:1065  ERC20 token */\n      0x00\n        /* \"contracts/Exchange.sol\":1074:1086  tokenAddress */\n      dup1\n      0x00\n      swap1\n      sload\n      swap1\n      0x0100\n      exp\n      swap1\n      div\n      0xffffffffffffffffffffffffffffffffffffffff\n      and\n        /* \"contracts/Exchange.sol\":1054:1087  ERC20 token = ERC20(tokenAddress) */\n      swap1\n      pop\n        /* \"contracts/Exchange.sol\":1105:1110  token */\n      dup1\n        /* \"contracts/Exchange.sol\":1105:1123  token.transferFrom */\n      0xffffffffffffffffffffffffffffffffffffffff\n      and\n      0x23b872dd\n        /* \"contracts/Exchange.sol\":1124:1134  msg.sender */\n      caller\n        /* \"contracts/Exchange.sol\":1144:1148  this */\n      address\n        /* \"contracts/Exchange.sol\":1151:1168  _amountERC20Token */\n      dup7\n        /* \"contracts/Exchange.sol\":1105:1169  token.transferFrom(msg.sender, address(this), _amountERC20Token) */\n      mload(0x40)\n      dup5\n      0xffffffff\n      and\n      0xe0\n      shl\n      dup2\n      mstore\n      0x04\n      add\n      tag_156\n      swap4\n      swap3\n      swap2\n      swap1\n      tag_140\n      jump\t// in\n    tag_156:\n      0x20\n      mload(0x40)\n      dup1\n      dup4\n      sub\n      dup2\n      0x00\n      dup8\n      dup1\n      extcodesize\n      iszero\n      dup1\n      iszero\n      tag_157\n      jumpi\n      0x00\n      dup1\n      revert\n    tag_157:\n      pop\n      gas\n      call\n      iszero\n      dup1\n      iszero\n      tag_159\n      jumpi\n      returndatasize\n      0x00\n      dup1\n      returndatacopy\n      revert(0x00, returndatasize)\n    tag_159:\n      pop\n      pop\n      pop\n      pop\n      mload(0x40)\n      returndatasize\n      not(0x1f)\n      0x1f\n      dup3\n      add\n      and\n      dup3\n      add\n      dup1\n      0x40\n      mstore\n      pop\n      dup2\n      add\n      swap1\n      tag_160\n      swap2\n      swap1\n      tag_98\n      jump\t// in\n    tag_160:\n        /* \"contracts/Exchange.sol\":1097:1189  require(token.transferFrom(msg.sender, address(this), _amountERC20Token), \"Transfer failed\") */\n      tag_161\n      jumpi\n      mload(0x40)\n      0x08c379a000000000000000000000000000000000000000000000000000000000\n      dup2\n      mstore\n      0x04\n      add\n      tag_162\n      swap1\n      tag_163\n      jump\t// in\n    tag_162:\n      mload(0x40)\n      dup1\n      swap2\n      sub\n      swap1\n      revert\n    tag_161:\n        /* \"contracts/Exchange.sol\":1239:1240  0 */\n      0x00\n        /* \"contracts/Exchange.sol\":1212:1235  totalLiquidityPositions */\n      sload(0x01)\n        /* \"contracts/Exchange.sol\":1212:1240  totalLiquidityPositions == 0 */\n      eq\n        /* \"contracts/Exchange.sol\":1208:1609  if (totalLiquidityPositions == 0) {... */\n      iszero\n      tag_164\n      jumpi\n        /* \"contracts/Exchange.sol\":1289:1292  100 */\n      0x64\n        /* \"contracts/Exchange.sol\":1256:1274  liquidityPositions */\n      0x02\n        /* \"contracts/Exchange.sol\":1256:1286  liquidityPositions[msg.sender] */\n      0x00\n        /* \"contracts/Exchange.sol\":1275:1285  msg.sender */\n      caller\n        /* \"contracts/Exchange.sol\":1256:1286  liquidityPositions[msg.sender] */\n      0xffffffffffffffffffffffffffffffffffffffff\n      and\n      0xffffffffffffffffffffffffffffffffffffffff\n      and\n      dup2\n      mstore\n      0x20\n      add\n      swap1\n      dup2\n      mstore\n      0x20\n      add\n      0x00\n      keccak256\n        /* \"contracts/Exchange.sol\":1256:1292  liquidityPositions[msg.sender] = 100 */\n      dup2\n      swap1\n      sstore\n      pop\n        /* \"contracts/Exchange.sol\":1332:1335  100 */\n      0x64\n        /* \"contracts/Exchange.sol\":1306:1329  totalLiquidityPositions */\n      0x01\n        /* \"contracts/Exchange.sol\":1306:1335  totalLiquidityPositions = 100 */\n      dup2\n      swap1\n      sstore\n      pop\n        /* \"contracts/Exchange.sol\":1208:1609  if (totalLiquidityPositions == 0) {... */\n      jump(tag_165)\n    tag_164:\n        /* \"contracts/Exchange.sol\":1441:1461  contractTokenBalance */\n      sload(0x04)\n        /* \"contracts/Exchange.sol\":1420:1437  _amountERC20Token */\n      dup4\n        /* \"contracts/Exchange.sol\":1394:1417  totalLiquidityPositions */\n      sload(0x01)\n        /* \"contracts/Exchange.sol\":1394:1437  totalLiquidityPositions * _amountERC20Token */\n      tag_166\n      swap2\n      swap1\n      tag_80\n      jump\t// in\n    tag_166:\n        /* \"contracts/Exchange.sol\":1393:1461  (totalLiquidityPositions * _amountERC20Token) / contractTokenBalance */\n      tag_167\n      swap2\n      swap1\n      tag_82\n      jump\t// in\n    tag_167:\n        /* \"contracts/Exchange.sol\":1366:1461  liquidityPositionsIssued = (totalLiquidityPositions * _amountERC20Token) / contractTokenBalance */\n      swap2\n      pop\n        /* \"contracts/Exchange.sol\":1509:1533  liquidityPositionsIssued */\n      dup2\n        /* \"contracts/Exchange.sol\":1475:1493  liquidityPositions */\n      0x02\n        /* \"contracts/Exchange.sol\":1475:1505  liquidityPositions[msg.sender] */\n      0x00\n        /* \"contracts/Exchange.sol\":1494:1504  msg.sender */\n      caller\n        /* \"contracts/Exchange.sol\":1475:1505  liquidityPositions[msg.sender] */\n      0xffffffffffffffffffffffffffffffffffffffff\n      and\n      0xffffffffffffffffffffffffffffffffffffffff\n      and\n      dup2\n      mstore\n      0x20\n      add\n      swap1\n      dup2\n      mstore\n      0x20\n      add\n      0x00\n      keccak256\n      0x00\n        /* \"contracts/Exchange.sol\":1475:1533  liquidityPositions[msg.sender] += liquidityPositionsIssued */\n      dup3\n      dup3\n      sload\n      tag_168\n      swap2\n      swap1\n      tag_109\n      jump\t// in\n    tag_168:\n      swap3\n      pop\n      pop\n      dup2\n      swap1\n      sstore\n      pop\n        /* \"contracts/Exchange.sol\":1574:1598  liquidityPositionsIssued */\n      dup2\n        /* \"contracts/Exchange.sol\":1547:1570  totalLiquidityPositions */\n      0x01\n      0x00\n        /* \"contracts/Exchange.sol\":1547:1598  totalLiquidityPositions += liquidityPositionsIssued */\n      dup3\n      dup3\n      sload\n      tag_169\n      swap2\n      swap1\n      tag_109\n      jump\t// in\n    tag_169:\n      swap3\n      pop\n      pop\n      dup2\n      swap1\n      sstore\n      pop\n        /* \"contracts/Exchange.sol\":1208:1609  if (totalLiquidityPositions == 0) {... */\n    tag_165:\n        /* \"contracts/Exchange.sol\":1641:1650  msg.value */\n      callvalue\n        /* \"contracts/Exchange.sol\":1619:1637  contractEthBalance */\n      0x03\n      0x00\n        /* \"contracts/Exchange.sol\":1619:1650  contractEthBalance += msg.value */\n      dup3\n      dup3\n      sload\n      tag_170\n      swap2\n      swap1\n      tag_109\n      jump\t// in\n    tag_170:\n      swap3\n      pop\n      pop\n      dup2\n      swap1\n      sstore\n      pop\n        /* \"contracts/Exchange.sol\":1684:1701  _amountERC20Token */\n      dup3\n        /* \"contracts/Exchange.sol\":1660:1680  contractTokenBalance */\n      0x04\n      0x00\n        /* \"contracts/Exchange.sol\":1660:1701  contractTokenBalance += _amountERC20Token */\n      dup3\n      dup3\n      sload\n      tag_171\n      swap2\n      swap1\n      tag_109\n      jump\t// in\n    tag_171:\n      swap3\n      pop\n      pop\n      dup2\n      swap1\n      sstore\n      pop\n        /* \"contracts/Exchange.sol\":1717:1790  LiquidityProvided(_amountERC20Token, msg.value, liquidityPositionsIssued) */\n      0xaa58f006cc244b2af6662862508bd39465f57169ff8386d1d1f7b0b903150abc\n        /* \"contracts/Exchange.sol\":1735:1752  _amountERC20Token */\n      dup4\n        /* \"contracts/Exchange.sol\":1754:1763  msg.value */\n      callvalue\n        /* \"contracts/Exchange.sol\":1765:1789  liquidityPositionsIssued */\n      dup5\n        /* \"contracts/Exchange.sol\":1717:1790  LiquidityProvided(_amountERC20Token, msg.value, liquidityPositionsIssued) */\n      mload(0x40)\n      tag_172\n      swap4\n      swap3\n      swap2\n      swap1\n      tag_100\n      jump\t// in\n    tag_172:\n      mload(0x40)\n      dup1\n      swap2\n      sub\n      swap1\n      log1\n        /* \"contracts/Exchange.sol\":1800:1831  return liquidityPositionsIssued */\n      pop\n        /* \"contracts/Exchange.sol\":843:1838  function provideLiquidity(uint _amountERC20Token) external payable returns (uint liquidityPositionsIssued) {... */\n      swap2\n      swap1\n      pop\n      jump\t// out\n        /* \"contracts/Exchange.sol\":2020:2183  function estimateERC20TokenToProvide(uint _amountEth) external view returns (uint) {... */\n    tag_72:\n        /* \"contracts/Exchange.sol\":2097:2101  uint */\n      0x00\n        /* \"contracts/Exchange.sol\":2158:2176  contractEthBalance */\n      sload(0x03)\n        /* \"contracts/Exchange.sol\":2144:2154  _amountEth */\n      dup3\n        /* \"contracts/Exchange.sol\":2121:2141  contractTokenBalance */\n      sload(0x04)\n        /* \"contracts/Exchange.sol\":2121:2154  contractTokenBalance * _amountEth */\n      tag_174\n      swap2\n      swap1\n      tag_80\n      jump\t// in\n    tag_174:\n        /* \"contracts/Exchange.sol\":2120:2176  (contractTokenBalance * _amountEth) / contractEthBalance */\n      tag_175\n      swap2\n      swap1\n      tag_82\n      jump\t// in\n    tag_175:\n        /* \"contracts/Exchange.sol\":2113:2176  return (contractTokenBalance * _amountEth) / contractEthBalance */\n      swap1\n      pop\n        /* \"contracts/Exchange.sol\":2020:2183  function estimateERC20TokenToProvide(uint _amountEth) external view returns (uint) {... */\n      swap2\n      swap1\n      pop\n      jump\t// out\n        /* \"#utility.yul\":7:146   */\n    tag_177:\n        /* \"#utility.yul\":53:58   */\n      0x00\n        /* \"#utility.yul\":91:97   */\n      dup2\n        /* \"#utility.yul\":78:98   */\n      calldataload\n        /* \"#utility.yul\":69:98   */\n      swap1\n      pop\n        /* \"#utility.yul\":107:140   */\n      tag_179\n        /* \"#utility.yul\":134:139   */\n      dup2\n        /* \"#utility.yul\":107:140   */\n      tag_180\n      jump\t// in\n    tag_179:\n        /* \"#utility.yul\":7:146   */\n      swap3\n      swap2\n      pop\n      pop\n      jump\t// out\n        /* \"#utility.yul\":152:289   */\n    tag_181:\n        /* \"#utility.yul\":206:211   */\n      0x00\n        /* \"#utility.yul\":237:243   */\n      dup2\n        /* \"#utility.yul\":231:244   */\n      mload\n        /* \"#utility.yul\":222:244   */\n      swap1\n      pop\n        /* \"#utility.yul\":253:283   */\n      tag_183\n        /* \"#utility.yul\":277:282   */\n      dup2\n        /* \"#utility.yul\":253:283   */\n      tag_184\n      jump\t// in\n    tag_183:\n        /* \"#utility.yul\":152:289   */\n      swap3\n      swap2\n      pop\n      pop\n      jump\t// out\n        /* \"#utility.yul\":295:434   */\n    tag_185:\n        /* \"#utility.yul\":341:346   */\n      0x00\n        /* \"#utility.yul\":379:385   */\n      dup2\n        /* \"#utility.yul\":366:386   */\n      calldataload\n        /* \"#utility.yul\":357:386   */\n      swap1\n      pop\n        /* \"#utility.yul\":395:428   */\n      tag_187\n        /* \"#utility.yul\":422:427   */\n      dup2\n        /* \"#utility.yul\":395:428   */\n      tag_188\n      jump\t// in\n    tag_187:\n        /* \"#utility.yul\":295:434   */\n      swap3\n      swap2\n      pop\n      pop\n      jump\t// out\n        /* \"#utility.yul\":440:769   */\n    tag_38:\n        /* \"#utility.yul\":499:505   */\n      0x00\n        /* \"#utility.yul\":548:550   */\n      0x20\n        /* \"#utility.yul\":536:545   */\n      dup3\n        /* \"#utility.yul\":527:534   */\n      dup5\n        /* \"#utility.yul\":523:546   */\n      sub\n        /* \"#utility.yul\":519:551   */\n      slt\n        /* \"#utility.yul\":516:635   */\n      iszero\n      tag_190\n      jumpi\n        /* \"#utility.yul\":554:633   */\n      tag_191\n      tag_192\n      jump\t// in\n    tag_191:\n        /* \"#utility.yul\":516:635   */\n    tag_190:\n        /* \"#utility.yul\":674:675   */\n      0x00\n        /* \"#utility.yul\":699:752   */\n      tag_193\n        /* \"#utility.yul\":744:751   */\n      dup5\n        /* \"#utility.yul\":735:741   */\n      dup3\n        /* \"#utility.yul\":724:733   */\n      dup6\n        /* \"#utility.yul\":720:742   */\n      add\n        /* \"#utility.yul\":699:752   */\n      tag_177\n      jump\t// in\n    tag_193:\n        /* \"#utility.yul\":689:752   */\n      swap2\n      pop\n        /* \"#utility.yul\":645:762   */\n      pop\n        /* \"#utility.yul\":440:769   */\n      swap3\n      swap2\n      pop\n      pop\n      jump\t// out\n        /* \"#utility.yul\":775:1120   */\n    tag_98:\n        /* \"#utility.yul\":842:848   */\n      0x00\n        /* \"#utility.yul\":891:893   */\n      0x20\n        /* \"#utility.yul\":879:888   */\n      dup3\n        /* \"#utility.yul\":870:877   */\n      dup5\n        /* \"#utility.yul\":866:889   */\n      sub\n        /* \"#utility.yul\":862:894   */\n      slt\n        /* \"#utility.yul\":859:978   */\n      iszero\n      tag_195\n      jumpi\n        /* \"#utility.yul\":897:976   */\n      tag_196\n      tag_192\n      jump\t// in\n    tag_196:\n        /* \"#utility.yul\":859:978   */\n    tag_195:\n        /* \"#utility.yul\":1017:1018   */\n      0x00\n        /* \"#utility.yul\":1042:1103   */\n      tag_197\n        /* \"#utility.yul\":1095:1102   */\n      dup5\n        /* \"#utility.yul\":1086:1092   */\n      dup3\n        /* \"#utility.yul\":1075:1084   */\n      dup6\n        /* \"#utility.yul\":1071:1093   */\n      add\n        /* \"#utility.yul\":1042:1103   */\n      tag_181\n      jump\t// in\n    tag_197:\n        /* \"#utility.yul\":1032:1103   */\n      swap2\n      pop\n        /* \"#utility.yul\":988:1113   */\n      pop\n        /* \"#utility.yul\":775:1120   */\n      swap3\n      swap2\n      pop\n      pop\n      jump\t// out\n        /* \"#utility.yul\":1126:1455   */\n    tag_18:\n        /* \"#utility.yul\":1185:1191   */\n      0x00\n        /* \"#utility.yul\":1234:1236   */\n      0x20\n        /* \"#utility.yul\":1222:1231   */\n      dup3\n        /* \"#utility.yul\":1213:1220   */\n      dup5\n        /* \"#utility.yul\":1209:1232   */\n      sub\n        /* \"#utility.yul\":1205:1237   */\n      slt\n        /* \"#utility.yul\":1202:1321   */\n      iszero\n      tag_199\n      jumpi\n        /* \"#utility.yul\":1240:1319   */\n      tag_200\n      tag_192\n      jump\t// in\n    tag_200:\n        /* \"#utility.yul\":1202:1321   */\n    tag_199:\n        /* \"#utility.yul\":1360:1361   */\n      0x00\n        /* \"#utility.yul\":1385:1438   */\n      tag_201\n        /* \"#utility.yul\":1430:1437   */\n      dup5\n        /* \"#utility.yul\":1421:1427   */\n      dup3\n        /* \"#utility.yul\":1410:1419   */\n      dup6\n        /* \"#utility.yul\":1406:1428   */\n      add\n        /* \"#utility.yul\":1385:1438   */\n      tag_185\n      jump\t// in\n    tag_201:\n        /* \"#utility.yul\":1375:1438   */\n      swap2\n      pop\n        /* \"#utility.yul\":1331:1448   */\n      pop\n        /* \"#utility.yul\":1126:1455   */\n      swap3\n      swap2\n      pop\n      pop\n      jump\t// out\n        /* \"#utility.yul\":1461:1579   */\n    tag_202:\n        /* \"#utility.yul\":1548:1572   */\n      tag_204\n        /* \"#utility.yul\":1566:1571   */\n      dup2\n        /* \"#utility.yul\":1548:1572   */\n      tag_205\n      jump\t// in\n    tag_204:\n        /* \"#utility.yul\":1543:1546   */\n      dup3\n        /* \"#utility.yul\":1536:1573   */\n      mstore\n        /* \"#utility.yul\":1461:1579   */\n      pop\n      pop\n      jump\t// out\n        /* \"#utility.yul\":1585:1951   */\n    tag_206:\n        /* \"#utility.yul\":1727:1730   */\n      0x00\n        /* \"#utility.yul\":1748:1815   */\n      tag_208\n        /* \"#utility.yul\":1812:1814   */\n      0x0f\n        /* \"#utility.yul\":1807:1810   */\n      dup4\n        /* \"#utility.yul\":1748:1815   */\n      tag_209\n      jump\t// in\n    tag_208:\n        /* \"#utility.yul\":1741:1815   */\n      swap2\n      pop\n        /* \"#utility.yul\":1824:1917   */\n      tag_210\n        /* \"#utility.yul\":1913:1916   */\n      dup3\n        /* \"#utility.yul\":1824:1917   */\n      tag_211\n      jump\t// in\n    tag_210:\n        /* \"#utility.yul\":1942:1944   */\n      0x20\n        /* \"#utility.yul\":1937:1940   */\n      dup3\n        /* \"#utility.yul\":1933:1945   */\n      add\n        /* \"#utility.yul\":1926:1945   */\n      swap1\n      pop\n        /* \"#utility.yul\":1585:1951   */\n      swap2\n      swap1\n      pop\n      jump\t// out\n        /* \"#utility.yul\":1957:2323   */\n    tag_212:\n        /* \"#utility.yul\":2099:2102   */\n      0x00\n        /* \"#utility.yul\":2120:2187   */\n      tag_214\n        /* \"#utility.yul\":2184:2186   */\n      0x0e\n        /* \"#utility.yul\":2179:2182   */\n      dup4\n        /* \"#utility.yul\":2120:2187   */\n      tag_209\n      jump\t// in\n    tag_214:\n        /* \"#utility.yul\":2113:2187   */\n      swap2\n      pop\n        /* \"#utility.yul\":2196:2289   */\n      tag_215\n        /* \"#utility.yul\":2285:2288   */\n      dup3\n        /* \"#utility.yul\":2196:2289   */\n      tag_216\n      jump\t// in\n    tag_215:\n        /* \"#utility.yul\":2314:2316   */\n      0x20\n        /* \"#utility.yul\":2309:2312   */\n      dup3\n        /* \"#utility.yul\":2305:2317   */\n      add\n        /* \"#utility.yul\":2298:2317   */\n      swap1\n      pop\n        /* \"#utility.yul\":1957:2323   */\n      swap2\n      swap1\n      pop\n      jump\t// out\n        /* \"#utility.yul\":2329:2695   */\n    tag_217:\n        /* \"#utility.yul\":2471:2474   */\n      0x00\n        /* \"#utility.yul\":2492:2559   */\n      tag_219\n        /* \"#utility.yul\":2556:2558   */\n      0x10\n        /* \"#utility.yul\":2551:2554   */\n      dup4\n        /* \"#utility.yul\":2492:2559   */\n      tag_209\n      jump\t// in\n    tag_219:\n        /* \"#utility.yul\":2485:2559   */\n      swap2\n      pop\n        /* \"#utility.yul\":2568:2661   */\n      tag_220\n        /* \"#utility.yul\":2657:2660   */\n      dup3\n        /* \"#utility.yul\":2568:2661   */\n      tag_221\n      jump\t// in\n    tag_220:\n        /* \"#utility.yul\":2686:2688   */\n      0x20\n        /* \"#utility.yul\":2681:2684   */\n      dup3\n        /* \"#utility.yul\":2677:2689   */\n      add\n        /* \"#utility.yul\":2670:2689   */\n      swap1\n      pop\n        /* \"#utility.yul\":2329:2695   */\n      swap2\n      swap1\n      pop\n      jump\t// out\n        /* \"#utility.yul\":2701:3067   */\n    tag_222:\n        /* \"#utility.yul\":2843:2846   */\n      0x00\n        /* \"#utility.yul\":2864:2931   */\n      tag_224\n        /* \"#utility.yul\":2928:2930   */\n      0x13\n        /* \"#utility.yul\":2923:2926   */\n      dup4\n        /* \"#utility.yul\":2864:2931   */\n      tag_209\n      jump\t// in\n    tag_224:\n        /* \"#utility.yul\":2857:2931   */\n      swap2\n      pop\n        /* \"#utility.yul\":2940:3033   */\n      tag_225\n        /* \"#utility.yul\":3029:3032   */\n      dup3\n        /* \"#utility.yul\":2940:3033   */\n      tag_226\n      jump\t// in\n    tag_225:\n        /* \"#utility.yul\":3058:3060   */\n      0x20\n        /* \"#utility.yul\":3053:3056   */\n      dup3\n        /* \"#utility.yul\":3049:3061   */\n      add\n        /* \"#utility.yul\":3042:3061   */\n      swap1\n      pop\n        /* \"#utility.yul\":2701:3067   */\n      swap2\n      swap1\n      pop\n      jump\t// out\n        /* \"#utility.yul\":3073:3439   */\n    tag_227:\n        /* \"#utility.yul\":3215:3218   */\n      0x00\n        /* \"#utility.yul\":3236:3303   */\n      tag_229\n        /* \"#utility.yul\":3300:3302   */\n      0x21\n        /* \"#utility.yul\":3295:3298   */\n      dup4\n        /* \"#utility.yul\":3236:3303   */\n      tag_209\n      jump\t// in\n    tag_229:\n        /* \"#utility.yul\":3229:3303   */\n      swap2\n      pop\n        /* \"#utility.yul\":3312:3405   */\n      tag_230\n        /* \"#utility.yul\":3401:3404   */\n      dup3\n        /* \"#utility.yul\":3312:3405   */\n      tag_231\n      jump\t// in\n    tag_230:\n        /* \"#utility.yul\":3430:3432   */\n      0x40\n        /* \"#utility.yul\":3425:3428   */\n      dup3\n        /* \"#utility.yul\":3421:3433   */\n      add\n        /* \"#utility.yul\":3414:3433   */\n      swap1\n      pop\n        /* \"#utility.yul\":3073:3439   */\n      swap2\n      swap1\n      pop\n      jump\t// out\n        /* \"#utility.yul\":3445:3563   */\n    tag_232:\n        /* \"#utility.yul\":3532:3556   */\n      tag_234\n        /* \"#utility.yul\":3550:3555   */\n      dup2\n        /* \"#utility.yul\":3532:3556   */\n      tag_235\n      jump\t// in\n    tag_234:\n        /* \"#utility.yul\":3527:3530   */\n      dup3\n        /* \"#utility.yul\":3520:3557   */\n      mstore\n        /* \"#utility.yul\":3445:3563   */\n      pop\n      pop\n      jump\t// out\n        /* \"#utility.yul\":3569:3791   */\n    tag_55:\n        /* \"#utility.yul\":3662:3666   */\n      0x00\n        /* \"#utility.yul\":3700:3702   */\n      0x20\n        /* \"#utility.yul\":3689:3698   */\n      dup3\n        /* \"#utility.yul\":3685:3703   */\n      add\n        /* \"#utility.yul\":3677:3703   */\n      swap1\n      pop\n        /* \"#utility.yul\":3713:3784   */\n      tag_237\n        /* \"#utility.yul\":3781:3782   */\n      0x00\n        /* \"#utility.yul\":3770:3779   */\n      dup4\n        /* \"#utility.yul\":3766:3783   */\n      add\n        /* \"#utility.yul\":3757:3763   */\n      dup5\n        /* \"#utility.yul\":3713:3784   */\n      tag_202\n      jump\t// in\n    tag_237:\n        /* \"#utility.yul\":3569:3791   */\n      swap3\n      swap2\n      pop\n      pop\n      jump\t// out\n        /* \"#utility.yul\":3797:4239   */\n    tag_140:\n        /* \"#utility.yul\":3946:3950   */\n      0x00\n        /* \"#utility.yul\":3984:3986   */\n      0x60\n        /* \"#utility.yul\":3973:3982   */\n      dup3\n        /* \"#utility.yul\":3969:3987   */\n      add\n        /* \"#utility.yul\":3961:3987   */\n      swap1\n      pop\n        /* \"#utility.yul\":3997:4068   */\n      tag_239\n        /* \"#utility.yul\":4065:4066   */\n      0x00\n        /* \"#utility.yul\":4054:4063   */\n      dup4\n        /* \"#utility.yul\":4050:4067   */\n      add\n        /* \"#utility.yul\":4041:4047   */\n      dup7\n        /* \"#utility.yul\":3997:4068   */\n      tag_202\n      jump\t// in\n    tag_239:\n        /* \"#utility.yul\":4078:4150   */\n      tag_240\n        /* \"#utility.yul\":4146:4148   */\n      0x20\n        /* \"#utility.yul\":4135:4144   */\n      dup4\n        /* \"#utility.yul\":4131:4149   */\n      add\n        /* \"#utility.yul\":4122:4128   */\n      dup6\n        /* \"#utility.yul\":4078:4150   */\n      tag_202\n      jump\t// in\n    tag_240:\n        /* \"#utility.yul\":4160:4232   */\n      tag_241\n        /* \"#utility.yul\":4228:4230   */\n      0x40\n        /* \"#utility.yul\":4217:4226   */\n      dup4\n        /* \"#utility.yul\":4213:4231   */\n      add\n        /* \"#utility.yul\":4204:4210   */\n      dup5\n        /* \"#utility.yul\":4160:4232   */\n      tag_232\n      jump\t// in\n    tag_241:\n        /* \"#utility.yul\":3797:4239   */\n      swap5\n      swap4\n      pop\n      pop\n      pop\n      pop\n      jump\t// out\n        /* \"#utility.yul\":4245:4577   */\n    tag_93:\n        /* \"#utility.yul\":4366:4370   */\n      0x00\n        /* \"#utility.yul\":4404:4406   */\n      0x40\n        /* \"#utility.yul\":4393:4402   */\n      dup3\n        /* \"#utility.yul\":4389:4407   */\n      add\n        /* \"#utility.yul\":4381:4407   */\n      swap1\n      pop\n        /* \"#utility.yul\":4417:4488   */\n      tag_243\n        /* \"#utility.yul\":4485:4486   */\n      0x00\n        /* \"#utility.yul\":4474:4483   */\n      dup4\n        /* \"#utility.yul\":4470:4487   */\n      add\n        /* \"#utility.yul\":4461:4467   */\n      dup6\n        /* \"#utility.yul\":4417:4488   */\n      tag_202\n      jump\t// in\n    tag_243:\n        /* \"#utility.yul\":4498:4570   */\n      tag_244\n        /* \"#utility.yul\":4566:4568   */\n      0x20\n        /* \"#utility.yul\":4555:4564   */\n      dup4\n        /* \"#utility.yul\":4551:4569   */\n      add\n        /* \"#utility.yul\":4542:4548   */\n      dup5\n        /* \"#utility.yul\":4498:4570   */\n      tag_232\n      jump\t// in\n    tag_244:\n        /* \"#utility.yul\":4245:4577   */\n      swap4\n      swap3\n      pop\n      pop\n      pop\n      jump\t// out\n        /* \"#utility.yul\":4583:5002   */\n    tag_163:\n        /* \"#utility.yul\":4749:4753   */\n      0x00\n        /* \"#utility.yul\":4787:4789   */\n      0x20\n        /* \"#utility.yul\":4776:4785   */\n      dup3\n        /* \"#utility.yul\":4772:4790   */\n      add\n        /* \"#utility.yul\":4764:4790   */\n      swap1\n      pop\n        /* \"#utility.yul\":4836:4845   */\n      dup2\n        /* \"#utility.yul\":4830:4834   */\n      dup2\n        /* \"#utility.yul\":4826:4846   */\n      sub\n        /* \"#utility.yul\":4822:4823   */\n      0x00\n        /* \"#utility.yul\":4811:4820   */\n      dup4\n        /* \"#utility.yul\":4807:4824   */\n      add\n        /* \"#utility.yul\":4800:4847   */\n      mstore\n        /* \"#utility.yul\":4864:4995   */\n      tag_246\n        /* \"#utility.yul\":4990:4994   */\n      dup2\n        /* \"#utility.yul\":4864:4995   */\n      tag_206\n      jump\t// in\n    tag_246:\n        /* \"#utility.yul\":4856:4995   */\n      swap1\n      pop\n        /* \"#utility.yul\":4583:5002   */\n      swap2\n      swap1\n      pop\n      jump\t// out\n        /* \"#utility.yul\":5008:5427   */\n    tag_78:\n        /* \"#utility.yul\":5174:5178   */\n      0x00\n        /* \"#utility.yul\":5212:5214   */\n      0x20\n        /* \"#utility.yul\":5201:5210   */\n      dup3\n        /* \"#utility.yul\":5197:5215   */\n      add\n        /* \"#utility.yul\":5189:5215   */\n      swap1\n      pop\n        /* \"#utility.yul\":5261:5270   */\n      dup2\n        /* \"#utility.yul\":5255:5259   */\n      dup2\n        /* \"#utility.yul\":5251:5271   */\n      sub\n        /* \"#utility.yul\":5247:5248   */\n      0x00\n        /* \"#utility.yul\":5236:5245   */\n      dup4\n        /* \"#utility.yul\":5232:5249   */\n      add\n        /* \"#utility.yul\":5225:5272   */\n      mstore\n        /* \"#utility.yul\":5289:5420   */\n      tag_248\n        /* \"#utility.yul\":5415:5419   */\n      dup2\n        /* \"#utility.yul\":5289:5420   */\n      tag_212\n      jump\t// in\n    tag_248:\n        /* \"#utility.yul\":5281:5420   */\n      swap1\n      pop\n        /* \"#utility.yul\":5008:5427   */\n      swap2\n      swap1\n      pop\n      jump\t// out\n        /* \"#utility.yul\":5433:5852   */\n    tag_107:\n        /* \"#utility.yul\":5599:5603   */\n      0x00\n        /* \"#utility.yul\":5637:5639   */\n      0x20\n        /* \"#utility.yul\":5626:5635   */\n      dup3\n        /* \"#utility.yul\":5622:5640   */\n      add\n        /* \"#utility.yul\":5614:5640   */\n      swap1\n      pop\n        /* \"#utility.yul\":5686:5695   */\n      dup2\n        /* \"#utility.yul\":5680:5684   */\n      dup2\n        /* \"#utility.yul\":5676:5696   */\n      sub\n        /* \"#utility.yul\":5672:5673   */\n      0x00\n        /* \"#utility.yul\":5661:5670   */\n      dup4\n        /* \"#utility.yul\":5657:5674   */\n      add\n        /* \"#utility.yul\":5650:5697   */\n      mstore\n        /* \"#utility.yul\":5714:5845   */\n      tag_250\n        /* \"#utility.yul\":5840:5844   */\n      dup2\n        /* \"#utility.yul\":5714:5845   */\n      tag_217\n      jump\t// in\n    tag_250:\n        /* \"#utility.yul\":5706:5845   */\n      swap1\n      pop\n        /* \"#utility.yul\":5433:5852   */\n      swap2\n      swap1\n      pop\n      jump\t// out\n        /* \"#utility.yul\":5858:6277   */\n    tag_134:\n        /* \"#utility.yul\":6024:6028   */\n      0x00\n        /* \"#utility.yul\":6062:6064   */\n      0x20\n        /* \"#utility.yul\":6051:6060   */\n      dup3\n        /* \"#utility.yul\":6047:6065   */\n      add\n        /* \"#utility.yul\":6039:6065   */\n      swap1\n      pop\n        /* \"#utility.yul\":6111:6120   */\n      dup2\n        /* \"#utility.yul\":6105:6109   */\n      dup2\n        /* \"#utility.yul\":6101:6121   */\n      sub\n        /* \"#utility.yul\":6097:6098   */\n      0x00\n        /* \"#utility.yul\":6086:6095   */\n      dup4\n        /* \"#utility.yul\":6082:6099   */\n      add\n        /* \"#utility.yul\":6075:6122   */\n      mstore\n        /* \"#utility.yul\":6139:6270   */\n      tag_252\n        /* \"#utility.yul\":6265:6269   */\n      dup2\n        /* \"#utility.yul\":6139:6270   */\n      tag_222\n      jump\t// in\n    tag_252:\n        /* \"#utility.yul\":6131:6270   */\n      swap1\n      pop\n        /* \"#utility.yul\":5858:6277   */\n      swap2\n      swap1\n      pop\n      jump\t// out\n        /* \"#utility.yul\":6283:6702   */\n    tag_155:\n        /* \"#utility.yul\":6449:6453   */\n      0x00\n        /* \"#utility.yul\":6487:6489   */\n      0x20\n        /* \"#utility.yul\":6476:6485   */\n      dup3\n        /* \"#utility.yul\":6472:6490   */\n      add\n        /* \"#utility.yul\":6464:6490   */\n      swap1\n      pop\n        /* \"#utility.yul\":6536:6545   */\n      dup2\n        /* \"#utility.yul\":6530:6534   */\n      dup2\n        /* \"#utility.yul\":6526:6546   */\n      sub\n        /* \"#utility.yul\":6522:6523   */\n      0x00\n        /* \"#utility.yul\":6511:6520   */\n      dup4\n        /* \"#utility.yul\":6507:6524   */\n      add\n        /* \"#utility.yul\":6500:6547   */\n      mstore\n        /* \"#utility.yul\":6564:6695   */\n      tag_254\n        /* \"#utility.yul\":6690:6694   */\n      dup2\n        /* \"#utility.yul\":6564:6695   */\n      tag_227\n      jump\t// in\n    tag_254:\n        /* \"#utility.yul\":6556:6695   */\n      swap1\n      pop\n        /* \"#utility.yul\":6283:6702   */\n      swap2\n      swap1\n      pop\n      jump\t// out\n        /* \"#utility.yul\":6708:6930   */\n    tag_26:\n        /* \"#utility.yul\":6801:6805   */\n      0x00\n        /* \"#utility.yul\":6839:6841   */\n      0x20\n        /* \"#utility.yul\":6828:6837   */\n      dup3\n        /* \"#utility.yul\":6824:6842   */\n      add\n        /* \"#utility.yul\":6816:6842   */\n      swap1\n      pop\n        /* \"#utility.yul\":6852:6923   */\n      tag_256\n        /* \"#utility.yul\":6920:6921   */\n      0x00\n        /* \"#utility.yul\":6909:6918   */\n      dup4\n        /* \"#utility.yul\":6905:6922   */\n      add\n        /* \"#utility.yul\":6896:6902   */\n      dup5\n        /* \"#utility.yul\":6852:6923   */\n      tag_232\n      jump\t// in\n    tag_256:\n        /* \"#utility.yul\":6708:6930   */\n      swap3\n      swap2\n      pop\n      pop\n      jump\t// out\n        /* \"#utility.yul\":6936:7268   */\n    tag_21:\n        /* \"#utility.yul\":7057:7061   */\n      0x00\n        /* \"#utility.yul\":7095:7097   */\n      0x40\n        /* \"#utility.yul\":7084:7093   */\n      dup3\n        /* \"#utility.yul\":7080:7098   */\n      add\n        /* \"#utility.yul\":7072:7098   */\n      swap1\n      pop\n        /* \"#utility.yul\":7108:7179   */\n      tag_258\n        /* \"#utility.yul\":7176:7177   */\n      0x00\n        /* \"#utility.yul\":7165:7174   */\n      dup4\n        /* \"#utility.yul\":7161:7178   */\n      add\n        /* \"#utility.yul\":7152:7158   */\n      dup6\n        /* \"#utility.yul\":7108:7179   */\n      tag_232\n      jump\t// in\n    tag_258:\n        /* \"#utility.yul\":7189:7261   */\n      tag_259\n        /* \"#utility.yul\":7257:7259   */\n      0x20\n        /* \"#utility.yul\":7246:7255   */\n      dup4\n        /* \"#utility.yul\":7242:7260   */\n      add\n        /* \"#utility.yul\":7233:7239   */\n      dup5\n        /* \"#utility.yul\":7189:7261   */\n      tag_232\n      jump\t// in\n    tag_259:\n        /* \"#utility.yul\":6936:7268   */\n      swap4\n      swap3\n      pop\n      pop\n      pop\n      jump\t// out\n        /* \"#utility.yul\":7274:7716   */\n    tag_100:\n        /* \"#utility.yul\":7423:7427   */\n      0x00\n        /* \"#utility.yul\":7461:7463   */\n      0x60\n        /* \"#utility.yul\":7450:7459   */\n      dup3\n        /* \"#utility.yul\":7446:7464   */\n      add\n        /* \"#utility.yul\":7438:7464   */\n      swap1\n      pop\n        /* \"#utility.yul\":7474:7545   */\n      tag_261\n        /* \"#utility.yul\":7542:7543   */\n      0x00\n        /* \"#utility.yul\":7531:7540   */\n      dup4\n        /* \"#utility.yul\":7527:7544   */\n      add\n        /* \"#utility.yul\":7518:7524   */\n      dup7\n        /* \"#utility.yul\":7474:7545   */\n      tag_232\n      jump\t// in\n    tag_261:\n        /* \"#utility.yul\":7555:7627   */\n      tag_262\n        /* \"#utility.yul\":7623:7625   */\n      0x20\n        /* \"#utility.yul\":7612:7621   */\n      dup4\n        /* \"#utility.yul\":7608:7626   */\n      add\n        /* \"#utility.yul\":7599:7605   */\n      dup6\n        /* \"#utility.yul\":7555:7627   */\n      tag_232\n      jump\t// in\n    tag_262:\n        /* \"#utility.yul\":7637:7709   */\n      tag_263\n        /* \"#utility.yul\":7705:7707   */\n      0x40\n        /* \"#utility.yul\":7694:7703   */\n      dup4\n        /* \"#utility.yul\":7690:7708   */\n      add\n        /* \"#utility.yul\":7681:7687   */\n      dup5\n        /* \"#utility.yul\":7637:7709   */\n      tag_232\n      jump\t// in\n    tag_263:\n        /* \"#utility.yul\":7274:7716   */\n      swap5\n      swap4\n      pop\n      pop\n      pop\n      pop\n      jump\t// out\n        /* \"#utility.yul\":7803:7972   */\n    tag_209:\n        /* \"#utility.yul\":7887:7898   */\n      0x00\n        /* \"#utility.yul\":7921:7927   */\n      dup3\n        /* \"#utility.yul\":7916:7919   */\n      dup3\n        /* \"#utility.yul\":7909:7928   */\n      mstore\n        /* \"#utility.yul\":7961:7965   */\n      0x20\n        /* \"#utility.yul\":7956:7959   */\n      dup3\n        /* \"#utility.yul\":7952:7966   */\n      add\n        /* \"#utility.yul\":7937:7966   */\n      swap1\n      pop\n        /* \"#utility.yul\":7803:7972   */\n      swap3\n      swap2\n      pop\n      pop\n      jump\t// out\n        /* \"#utility.yul\":7978:8283   */\n    tag_109:\n        /* \"#utility.yul\":8018:8021   */\n      0x00\n        /* \"#utility.yul\":8037:8057   */\n      tag_268\n        /* \"#utility.yul\":8055:8056   */\n      dup3\n        /* \"#utility.yul\":8037:8057   */\n      tag_235\n      jump\t// in\n    tag_268:\n        /* \"#utility.yul\":8032:8057   */\n      swap2\n      pop\n        /* \"#utility.yul\":8071:8091   */\n      tag_269\n        /* \"#utility.yul\":8089:8090   */\n      dup4\n        /* \"#utility.yul\":8071:8091   */\n      tag_235\n      jump\t// in\n    tag_269:\n        /* \"#utility.yul\":8066:8091   */\n      swap3\n      pop\n        /* \"#utility.yul\":8225:8226   */\n      dup3\n        /* \"#utility.yul\":8157:8223   */\n      0xffffffffffffffffffffffffffffffffffffffffffffffffffffffffffffffff\n        /* \"#utility.yul\":8153:8227   */\n      sub\n        /* \"#utility.yul\":8150:8151   */\n      dup3\n        /* \"#utility.yul\":8147:8228   */\n      gt\n        /* \"#utility.yul\":8144:8251   */\n      iszero\n      tag_270\n      jumpi\n        /* \"#utility.yul\":8231:8249   */\n      tag_271\n      tag_272\n      jump\t// in\n    tag_271:\n        /* \"#utility.yul\":8144:8251   */\n    tag_270:\n        /* \"#utility.yul\":8275:8276   */\n      dup3\n        /* \"#utility.yul\":8272:8273   */\n      dup3\n        /* \"#utility.yul\":8268:8277   */\n      add\n        /* \"#utility.yul\":8261:8277   */\n      swap1\n      pop\n        /* \"#utility.yul\":7978:8283   */\n      swap3\n      swap2\n      pop\n      pop\n      jump\t// out\n        /* \"#utility.yul\":8289:8474   */\n    tag_82:\n        /* \"#utility.yul\":8329:8330   */\n      0x00\n        /* \"#utility.yul\":8346:8366   */\n      tag_274\n        /* \"#utility.yul\":8364:8365   */\n      dup3\n        /* \"#utility.yul\":8346:8366   */\n      tag_235\n      jump\t// in\n    tag_274:\n        /* \"#utility.yul\":8341:8366   */\n      swap2\n      pop\n        /* \"#utility.yul\":8380:8400   */\n      tag_275\n        /* \"#utility.yul\":8398:8399   */\n      dup4\n        /* \"#utility.yul\":8380:8400   */\n      tag_235\n      jump\t// in\n    tag_275:\n        /* \"#utility.yul\":8375:8400   */\n      swap3\n      pop\n        /* \"#utility.yul\":8419:8420   */\n      dup3\n        /* \"#utility.yul\":8409:8444   */\n      tag_276\n      jumpi\n        /* \"#utility.yul\":8424:8442   */\n      tag_277\n      tag_278\n      jump\t// in\n    tag_277:\n        /* \"#utility.yul\":8409:8444   */\n    tag_276:\n        /* \"#utility.yul\":8466:8467   */\n      dup3\n        /* \"#utility.yul\":8463:8464   */\n      dup3\n        /* \"#utility.yul\":8459:8468   */\n      div\n        /* \"#utility.yul\":8454:8468   */\n      swap1\n      pop\n        /* \"#utility.yul\":8289:8474   */\n      swap3\n      swap2\n      pop\n      pop\n      jump\t// out\n        /* \"#utility.yul\":8480:8828   */\n    tag_80:\n        /* \"#utility.yul\":8520:8527   */\n      0x00\n        /* \"#utility.yul\":8543:8563   */\n      tag_280\n        /* \"#utility.yul\":8561:8562   */\n      dup3\n        /* \"#utility.yul\":8543:8563   */\n      tag_235\n      jump\t// in\n    tag_280:\n        /* \"#utility.yul\":8538:8563   */\n      swap2\n      pop\n        /* \"#utility.yul\":8577:8597   */\n      tag_281\n        /* \"#utility.yul\":8595:8596   */\n      dup4\n        /* \"#utility.yul\":8577:8597   */\n      tag_235\n      jump\t// in\n    tag_281:\n        /* \"#utility.yul\":8572:8597   */\n      swap3\n      pop\n        /* \"#utility.yul\":8765:8766   */\n      dup2\n        /* \"#utility.yul\":8697:8763   */\n      0xffffffffffffffffffffffffffffffffffffffffffffffffffffffffffffffff\n        /* \"#utility.yul\":8693:8767   */\n      div\n        /* \"#utility.yul\":8690:8691   */\n      dup4\n        /* \"#utility.yul\":8687:8768   */\n      gt\n        /* \"#utility.yul\":8682:8683   */\n      dup3\n        /* \"#utility.yul\":8675:8684   */\n      iszero\n        /* \"#utility.yul\":8668:8685   */\n      iszero\n        /* \"#utility.yul\":8664:8769   */\n      and\n        /* \"#utility.yul\":8661:8792   */\n      iszero\n      tag_282\n      jumpi\n        /* \"#utility.yul\":8772:8790   */\n      tag_283\n      tag_272\n      jump\t// in\n    tag_283:\n        /* \"#utility.yul\":8661:8792   */\n    tag_282:\n        /* \"#utility.yul\":8820:8821   */\n      dup3\n        /* \"#utility.yul\":8817:8818   */\n      dup3\n        /* \"#utility.yul\":8813:8822   */\n      mul\n        /* \"#utility.yul\":8802:8822   */\n      swap1\n      pop\n        /* \"#utility.yul\":8480:8828   */\n      swap3\n      swap2\n      pop\n      pop\n      jump\t// out\n        /* \"#utility.yul\":8834:9025   */\n    tag_86:\n        /* \"#utility.yul\":8874:8878   */\n      0x00\n        /* \"#utility.yul\":8894:8914   */\n      tag_285\n        /* \"#utility.yul\":8912:8913   */\n      dup3\n        /* \"#utility.yul\":8894:8914   */\n      tag_235\n      jump\t// in\n    tag_285:\n        /* \"#utility.yul\":8889:8914   */\n      swap2\n      pop\n        /* \"#utility.yul\":8928:8948   */\n      tag_286\n        /* \"#utility.yul\":8946:8947   */\n      dup4\n        /* \"#utility.yul\":8928:8948   */\n      tag_235\n      jump\t// in\n    tag_286:\n        /* \"#utility.yul\":8923:8948   */\n      swap3\n      pop\n        /* \"#utility.yul\":8967:8968   */\n      dup3\n        /* \"#utility.yul\":8964:8965   */\n      dup3\n        /* \"#utility.yul\":8961:8969   */\n      lt\n        /* \"#utility.yul\":8958:8992   */\n      iszero\n      tag_287\n      jumpi\n        /* \"#utility.yul\":8972:8990   */\n      tag_288\n      tag_272\n      jump\t// in\n    tag_288:\n        /* \"#utility.yul\":8958:8992   */\n    tag_287:\n        /* \"#utility.yul\":9017:9018   */\n      dup3\n        /* \"#utility.yul\":9014:9015   */\n      dup3\n        /* \"#utility.yul\":9010:9019   */\n      sub\n        /* \"#utility.yul\":9002:9019   */\n      swap1\n      pop\n        /* \"#utility.yul\":8834:9025   */\n      swap3\n      swap2\n      pop\n      pop\n      jump\t// out\n        /* \"#utility.yul\":9031:9127   */\n    tag_205:\n        /* \"#utility.yul\":9068:9075   */\n      0x00\n        /* \"#utility.yul\":9097:9121   */\n      tag_290\n        /* \"#utility.yul\":9115:9120   */\n      dup3\n        /* \"#utility.yul\":9097:9121   */\n      tag_291\n      jump\t// in\n    tag_290:\n        /* \"#utility.yul\":9086:9121   */\n      swap1\n      pop\n        /* \"#utility.yul\":9031:9127   */\n      swap2\n      swap1\n      pop\n      jump\t// out\n        /* \"#utility.yul\":9133:9223   */\n    tag_292:\n        /* \"#utility.yul\":9167:9174   */\n      0x00\n        /* \"#utility.yul\":9210:9215   */\n      dup2\n        /* \"#utility.yul\":9203:9216   */\n      iszero\n        /* \"#utility.yul\":9196:9217   */\n      iszero\n        /* \"#utility.yul\":9185:9217   */\n      swap1\n      pop\n        /* \"#utility.yul\":9133:9223   */\n      swap2\n      swap1\n      pop\n      jump\t// out\n        /* \"#utility.yul\":9229:9355   */\n    tag_291:\n        /* \"#utility.yul\":9266:9273   */\n      0x00\n        /* \"#utility.yul\":9306:9348   */\n      0xffffffffffffffffffffffffffffffffffffffff\n        /* \"#utility.yul\":9299:9304   */\n      dup3\n        /* \"#utility.yul\":9295:9349   */\n      and\n        /* \"#utility.yul\":9284:9349   */\n      swap1\n      pop\n        /* \"#utility.yul\":9229:9355   */\n      swap2\n      swap1\n      pop\n      jump\t// out\n        /* \"#utility.yul\":9361:9438   */\n    tag_235:\n        /* \"#utility.yul\":9398:9405   */\n      0x00\n        /* \"#utility.yul\":9427:9432   */\n      dup2\n        /* \"#utility.yul\":9416:9432   */\n      swap1\n      pop\n        /* \"#utility.yul\":9361:9438   */\n      swap2\n      swap1\n      pop\n      jump\t// out\n        /* \"#utility.yul\":9444:9624   */\n    tag_272:\n        /* \"#utility.yul\":9492:9569   */\n      0x4e487b7100000000000000000000000000000000000000000000000000000000\n        /* \"#utility.yul\":9489:9490   */\n      0x00\n        /* \"#utility.yul\":9482:9570   */\n      mstore\n        /* \"#utility.yul\":9589:9593   */\n      0x11\n        /* \"#utility.yul\":9586:9587   */\n      0x04\n        /* \"#utility.yul\":9579:9594   */\n      mstore\n        /* \"#utility.yul\":9613:9617   */\n      0x24\n        /* \"#utility.yul\":9610:9611   */\n      0x00\n        /* \"#utility.yul\":9603:9618   */\n      revert\n        /* \"#utility.yul\":9630:9810   */\n    tag_278:\n        /* \"#utility.yul\":9678:9755   */\n      0x4e487b7100000000000000000000000000000000000000000000000000000000\n        /* \"#utility.yul\":9675:9676   */\n      0x00\n        /* \"#utility.yul\":9668:9756   */\n      mstore\n        /* \"#utility.yul\":9775:9779   */\n      0x12\n        /* \"#utility.yul\":9772:9773   */\n      0x04\n        /* \"#utility.yul\":9765:9780   */\n      mstore\n        /* \"#utility.yul\":9799:9803   */\n      0x24\n        /* \"#utility.yul\":9796:9797   */\n      0x00\n        /* \"#utility.yul\":9789:9804   */\n      revert\n        /* \"#utility.yul\":9939:10056   */\n    tag_192:\n        /* \"#utility.yul\":10048:10049   */\n      0x00\n        /* \"#utility.yul\":10045:10046   */\n      dup1\n        /* \"#utility.yul\":10038:10050   */\n      revert\n        /* \"#utility.yul\":10062:10227   */\n    tag_211:\n        /* \"#utility.yul\":10202:10219   */\n      0x5472616e73666572206661696c65640000000000000000000000000000000000\n        /* \"#utility.yul\":10198:10199   */\n      0x00\n        /* \"#utility.yul\":10190:10196   */\n      dup3\n        /* \"#utility.yul\":10186:10200   */\n      add\n        /* \"#utility.yul\":10179:10220   */\n      mstore\n        /* \"#utility.yul\":10062:10227   */\n      pop\n      jump\t// out\n        /* \"#utility.yul\":10233:10397   */\n    tag_216:\n        /* \"#utility.yul\":10373:10389   */\n      0x496e76616c696420616d6f756e74000000000000000000000000000000000000\n        /* \"#utility.yul\":10369:10370   */\n      0x00\n        /* \"#utility.yul\":10361:10367   */\n      dup3\n        /* \"#utility.yul\":10357:10371   */\n      add\n        /* \"#utility.yul\":10350:10390   */\n      mstore\n        /* \"#utility.yul\":10233:10397   */\n      pop\n      jump\t// out\n        /* \"#utility.yul\":10403:10569   */\n    tag_221:\n        /* \"#utility.yul\":10543:10561   */\n      0x4d7573742070726f766964652045544800000000000000000000000000000000\n        /* \"#utility.yul\":10539:10540   */\n      0x00\n        /* \"#utility.yul\":10531:10537   */\n      dup3\n        /* \"#utility.yul\":10527:10541   */\n      add\n        /* \"#utility.yul\":10520:10562   */\n      mstore\n        /* \"#utility.yul\":10403:10569   */\n      pop\n      jump\t// out\n        /* \"#utility.yul\":10575:10744   */\n    tag_226:\n        /* \"#utility.yul\":10715:10736   */\n      0x4d7573742070726f7669646520746f6b656e7300000000000000000000000000\n        /* \"#utility.yul\":10711:10712   */\n      0x00\n        /* \"#utility.yul\":10703:10709   */\n      dup3\n        /* \"#utility.yul\":10699:10713   */\n      add\n        /* \"#utility.yul\":10692:10737   */\n      mstore\n        /* \"#utility.yul\":10575:10744   */\n      pop\n      jump\t// out\n        /* \"#utility.yul\":10750:10970   */\n    tag_231:\n        /* \"#utility.yul\":10890:10924   */\n      0x4d7573742070726f766964652045544820616e64204552432d323020746f6b65\n        /* \"#utility.yul\":10886:10887   */\n      0x00\n        /* \"#utility.yul\":10878:10884   */\n      dup3\n        /* \"#utility.yul\":10874:10888   */\n      add\n        /* \"#utility.yul\":10867:10925   */\n      mstore\n        /* \"#utility.yul\":10959:10962   */\n      0x6e00000000000000000000000000000000000000000000000000000000000000\n        /* \"#utility.yul\":10954:10956   */\n      0x20\n        /* \"#utility.yul\":10946:10952   */\n      dup3\n        /* \"#utility.yul\":10942:10957   */\n      add\n        /* \"#utility.yul\":10935:10963   */\n      mstore\n        /* \"#utility.yul\":10750:10970   */\n      pop\n      jump\t// out\n        /* \"#utility.yul\":10976:11098   */\n    tag_180:\n        /* \"#utility.yul\":11049:11073   */\n      tag_307\n        /* \"#utility.yul\":11067:11072   */\n      dup2\n        /* \"#utility.yul\":11049:11073   */\n      tag_205\n      jump\t// in\n    tag_307:\n        /* \"#utility.yul\":11042:11047   */\n      dup2\n        /* \"#utility.yul\":11039:11074   */\n      eq\n        /* \"#utility.yul\":11029:11092   */\n      tag_308\n      jumpi\n        /* \"#utility.yul\":11088:11089   */\n      0x00\n        /* \"#utility.yul\":11085:11086   */\n      dup1\n        /* \"#utility.yul\":11078:11090   */\n      revert\n        /* \"#utility.yul\":11029:11092   */\n    tag_308:\n        /* \"#utility.yul\":10976:11098   */\n      pop\n      jump\t// out\n        /* \"#utility.yul\":11104:11220   */\n    tag_184:\n        /* \"#utility.yul\":11174:11195   */\n      tag_310\n        /* \"#utility.yul\":11189:11194   */\n      dup2\n        /* \"#utility.yul\":11174:11195   */\n      tag_292\n      jump\t// in\n    tag_310:\n        /* \"#utility.yul\":11167:11172   */\n      dup2\n        /* \"#utility.yul\":11164:11196   */\n      eq\n        /* \"#utility.yul\":11154:11214   */\n      tag_311\n      jumpi\n        /* \"#utility.yul\":11210:11211   */\n      0x00\n        /* \"#utility.yul\":11207:11208   */\n      dup1\n        /* \"#utility.yul\":11200:11212   */\n      revert\n        /* \"#utility.yul\":11154:11214   */\n    tag_311:\n        /* \"#utility.yul\":11104:11220   */\n      pop\n      jump\t// out\n        /* \"#utility.yul\":11226:11348   */\n    tag_188:\n        /* \"#utility.yul\":11299:11323   */\n      tag_313\n        /* \"#utility.yul\":11317:11322   */\n      dup2\n        /* \"#utility.yul\":11299:11323   */\n      tag_235\n      jump\t// in\n    tag_313:\n        /* \"#utility.yul\":11292:11297   */\n      dup2\n        /* \"#utility.yul\":11289:11324   */\n      eq\n        /* \"#utility.yul\":11279:11342   */\n      tag_314\n      jumpi\n        /* \"#utility.yul\":11338:11339   */\n      0x00\n        /* \"#utility.yul\":11335:11336   */\n      dup1\n        /* \"#utility.yul\":11328:11340   */\n      revert\n        /* \"#utility.yul\":11279:11342   */\n    tag_314:\n        /* \"#utility.yul\":11226:11348   */\n      pop\n      jump\t// out\n\n    auxdata: 0xa26469706673582212205514361eaa8802affb8bc00e7d592d9ad60231112d2c0ec2c21ed0209f26f87f64736f6c63430008070033\n}\n",
				"bytecode": {
					"linkReferences": {},
					"object": "60806040523480156200001157600080fd5b506040516200150738038062001507833981810160405281019062000037919062000095565b806000806101000a81548173ffffffffffffffffffffffffffffffffffffffff021916908373ffffffffffffffffffffffffffffffffffffffff160217905550506200011a565b6000815190506200008f8162000100565b92915050565b600060208284031215620000ae57620000ad620000fb565b5b6000620000be848285016200007e565b91505092915050565b6000620000d482620000db565b9050919050565b600073ffffffffffffffffffffffffffffffffffffffff82169050919050565b600080fd5b6200010b81620000c7565b81146200011757600080fd5b50565b6113dd806200012a6000396000f3fe6080604052600436106100a75760003560e01c8063903875f711610064578063903875f7146101ea5780639d76ea5814610227578063c8ab832514610252578063e0ba20001461028f578063eb521a4c146102ba578063ed7bf868146102ea576100a7565b80630a861f2a146100ac5780631cde6226146100ea578063240f3dea1461011557806329cbab3e146101525780636fd0ea921461017057806379ed3562146101ad575b600080fd5b3480156100b857600080fd5b506100d360048036038101906100ce9190610e0e565b610327565b6040516100e192919061103e565b60405180910390f35b3480156100f657600080fd5b506100ff6105d4565b60405161010c9190611023565b60405180910390f35b34801561012157600080fd5b5061013c60048036038101906101379190610e0e565b6105da565b6040516101499190611023565b60405180910390f35b61015a6105fe565b6040516101679190611023565b60405180910390f35b34801561017c57600080fd5b5061019760048036038101906101929190610db4565b6107a7565b6040516101a49190611023565b60405180910390f35b3480156101b957600080fd5b506101d460048036038101906101cf9190610e0e565b6107bf565b6040516101e19190611023565b60405180910390f35b3480156101f657600080fd5b50610211600480360381019061020c9190610e0e565b610808565b60405161021e9190611023565b60405180910390f35b34801561023357600080fd5b5061023c610851565b6040516102499190610f08565b60405180910390f35b34801561025e57600080fd5b5061027960048036038101906102749190610e0e565b610875565b6040516102869190611023565b60405180910390f35b34801561029b57600080fd5b506102a4610a69565b6040516102b19190611023565b60405180910390f35b6102d460048036038101906102cf9190610e0e565b610ab0565b6040516102e19190611023565b60405180910390f35b3480156102f657600080fd5b50610311600480360381019061030c9190610e0e565b610d51565b60405161031e9190611023565b60405180910390f35b6000806000831180156103795750600260003373ffffffffffffffffffffffffffffffffffffffff1673ffffffffffffffffffffffffffffffffffffffff168152602001908152602001600020548311155b6103b8576040517f08c379a00000000000000000000000000000000000000000000000000000000081526004016103af90610fa3565b60405180910390fd5b6000600154846003546103cb9190611136565b6103d59190611105565b90506000600154856004546103ea9190611136565b6103f49190611105565b905084600260003373ffffffffffffffffffffffffffffffffffffffff1673ffffffffffffffffffffffffffffffffffffffff16815260200190815260200160002060008282546104459190611190565b92505081905550846001600082825461045e9190611190565b9250508190555081600360008282546104779190611190565b9250508190555080600460008282546104909190611190565b925050819055503373ffffffffffffffffffffffffffffffffffffffff166108fc839081150290604051600060405180830381858888f193505050501580156104dd573d6000803e3d6000fd5b5060008054906101000a900473ffffffffffffffffffffffffffffffffffffffff1673ffffffffffffffffffffffffffffffffffffffff1663a9059cbb33836040518363ffffffff1660e01b8152600401610539929190610f5a565b602060405180830381600087803b15801561055357600080fd5b505af1158015610567573d6000803e3d6000fd5b505050506040513d601f19601f8201168201806040525081019061058b9190610de1565b507fb14f451e613015c13a17c78777f1d87fcb448d7330d67299a09b8f2db38aab108183876040516105bf93929190611067565b60405180910390a18082935093505050915091565b60015481565b6000600454826003546105ed9190611136565b6105f79190611105565b9050919050565b6000803411610642576040517f08c379a000000000000000000000000000000000000000000000000000000000815260040161063990610fc3565b60405180910390fd5b60003460035461065291906110af565b90506000816003546004546106679190611136565b6106719190611105565b90506000816004546106839190611190565b905060008054906101000a900473ffffffffffffffffffffffffffffffffffffffff1673ffffffffffffffffffffffffffffffffffffffff1663a9059cbb33836040518363ffffffff1660e01b81526004016106e0929190610f5a565b602060405180830381600087803b1580156106fa57600080fd5b505af115801561070e573d6000803e3d6000fd5b505050506040513d601f19601f820116820180604052508101906107329190610de1565b50346003600082825461074591906110af565b92505081905550806004600082825461075e9190611190565b925050819055507fcdfc57b3d0cdc24b23cea1f480aabea287321f5bee23ad76c2b52fa7982f5ea5813460405161079692919061103e565b60405180910390a180935050505090565b60026020528060005260406000206000915090505481565b600080826003546107d091906110af565b90506000816003546004546107e59190611136565b6107ef9190611105565b9050806004546107ff9190611190565b92505050919050565b6000808260045461081991906110af565b905060008160045460035461082e9190611136565b6108389190611105565b9050806003546108489190611190565b92505050919050565b60008054906101000a900473ffffffffffffffffffffffffffffffffffffffff1681565b60008082116108b9576040517f08c379a00000000000000000000000000000000000000000000000000000000081526004016108b090610fe3565b60405180910390fd5b6000826004546108c991906110af565b90506000816004546003546108de9190611136565b6108e89190611105565b90506000816003546108fa9190611190565b905060008054906101000a900473ffffffffffffffffffffffffffffffffffffffff1673ffffffffffffffffffffffffffffffffffffffff166323b872dd3330886040518463ffffffff1660e01b815260040161095993929190610f23565b602060405180830381600087803b15801561097357600080fd5b505af1158015610987573d6000803e3d6000fd5b505050506040513d601f19601f820116820180604052508101906109ab9190610de1565b503373ffffffffffffffffffffffffffffffffffffffff166108fc829081150290604051600060405180830381858888f193505050501580156109f2573d6000803e3d6000fd5b508460046000828254610a0591906110af565b925050819055508060036000828254610a1e9190611190565b925050819055507f3297a389bb586920e62a196af529d5f42651b17a1013d6bfe77f22372a0b21128582604051610a5692919061103e565b60405180910390a1809350505050919050565b6000600260003373ffffffffffffffffffffffffffffffffffffffff1673ffffffffffffffffffffffffffffffffffffffff16815260200190815260200160002054905090565b60008034118015610ac15750600082115b610b00576040517f08c379a0000000000000000000000000000000000000000000000000000000008152600401610af790611003565b60405180910390fd5b60008060009054906101000a900473ffffffffffffffffffffffffffffffffffffffff1690508073ffffffffffffffffffffffffffffffffffffffff166323b872dd3330866040518463ffffffff1660e01b8152600401610b6393929190610f23565b602060405180830381600087803b158015610b7d57600080fd5b505af1158015610b91573d6000803e3d6000fd5b505050506040513d601f19601f82011682018060405250810190610bb59190610de1565b610bf4576040517f08c379a0000000000000000000000000000000000000000000000000000000008152600401610beb90610f83565b60405180910390fd5b60006001541415610c51576064600260003373ffffffffffffffffffffffffffffffffffffffff1673ffffffffffffffffffffffffffffffffffffffff168152602001908152602001600020819055506064600181905550610cde565b60045483600154610c629190611136565b610c6c9190611105565b915081600260003373ffffffffffffffffffffffffffffffffffffffff1673ffffffffffffffffffffffffffffffffffffffff1681526020019081526020016000206000828254610cbd91906110af565b925050819055508160016000828254610cd691906110af565b925050819055505b3460036000828254610cf091906110af565b925050819055508260046000828254610d0991906110af565b925050819055507faa58f006cc244b2af6662862508bd39465f57169ff8386d1d1f7b0b903150abc833484604051610d4393929190611067565b60405180910390a150919050565b600060035482600454610d649190611136565b610d6e9190611105565b9050919050565b600081359050610d8481611362565b92915050565b600081519050610d9981611379565b92915050565b600081359050610dae81611390565b92915050565b600060208284031215610dca57610dc961126a565b5b6000610dd884828501610d75565b91505092915050565b600060208284031215610df757610df661126a565b5b6000610e0584828501610d8a565b91505092915050565b600060208284031215610e2457610e2361126a565b5b6000610e3284828501610d9f565b91505092915050565b610e44816111c4565b82525050565b6000610e57600f8361109e565b9150610e628261126f565b602082019050919050565b6000610e7a600e8361109e565b9150610e8582611298565b602082019050919050565b6000610e9d60108361109e565b9150610ea8826112c1565b602082019050919050565b6000610ec060138361109e565b9150610ecb826112ea565b602082019050919050565b6000610ee360218361109e565b9150610eee82611313565b604082019050919050565b610f0281611202565b82525050565b6000602082019050610f1d6000830184610e3b565b92915050565b6000606082019050610f386000830186610e3b565b610f456020830185610e3b565b610f526040830184610ef9565b949350505050565b6000604082019050610f6f6000830185610e3b565b610f7c6020830184610ef9565b9392505050565b60006020820190508181036000830152610f9c81610e4a565b9050919050565b60006020820190508181036000830152610fbc81610e6d565b9050919050565b60006020820190508181036000830152610fdc81610e90565b9050919050565b60006020820190508181036000830152610ffc81610eb3565b9050919050565b6000602082019050818103600083015261101c81610ed6565b9050919050565b60006020820190506110386000830184610ef9565b92915050565b60006040820190506110536000830185610ef9565b6110606020830184610ef9565b9392505050565b600060608201905061107c6000830186610ef9565b6110896020830185610ef9565b6110966040830184610ef9565b949350505050565b600082825260208201905092915050565b60006110ba82611202565b91506110c583611202565b9250827fffffffffffffffffffffffffffffffffffffffffffffffffffffffffffffffff038211156110fa576110f961120c565b5b828201905092915050565b600061111082611202565b915061111b83611202565b92508261112b5761112a61123b565b5b828204905092915050565b600061114182611202565b915061114c83611202565b9250817fffffffffffffffffffffffffffffffffffffffffffffffffffffffffffffffff04831182151516156111855761118461120c565b5b828202905092915050565b600061119b82611202565b91506111a683611202565b9250828210156111b9576111b861120c565b5b828203905092915050565b60006111cf826111e2565b9050919050565b60008115159050919050565b600073ffffffffffffffffffffffffffffffffffffffff82169050919050565b6000819050919050565b7f4e487b7100000000000000000000000000000000000000000000000000000000600052601160045260246000fd5b7f4e487b7100000000000000000000000000000000000000000000000000000000600052601260045260246000fd5b600080fd5b7f5472616e73666572206661696c65640000000000000000000000000000000000600082015250565b7f496e76616c696420616d6f756e74000000000000000000000000000000000000600082015250565b7f4d7573742070726f766964652045544800000000000000000000000000000000600082015250565b7f4d7573742070726f7669646520746f6b656e7300000000000000000000000000600082015250565b7f4d7573742070726f766964652045544820616e64204552432d323020746f6b6560008201527f6e00000000000000000000000000000000000000000000000000000000000000602082015250565b61136b816111c4565b811461137657600080fd5b50565b611382816111d6565b811461138d57600080fd5b50565b61139981611202565b81146113a457600080fd5b5056fea26469706673582212205514361eaa8802affb8bc00e7d592d9ad60231112d2c0ec2c21ed0209f26f87f64736f6c63430008070033",
					"opcodes": "PUSH1 0x80 PUSH1 0x40 MSTORE CALLVALUE DUP1 ISZERO PUSH3 0x11 JUMPI PUSH1 0x0 DUP1 REVERT JUMPDEST POP PUSH1 0x40 MLOAD PUSH3 0x1507 CODESIZE SUB DUP1 PUSH3 0x1507 DUP4 CODECOPY DUP2 DUP2 ADD PUSH1 0x40 MSTORE DUP2 ADD SWAP1 PUSH3 0x37 SWAP2 SWAP1 PUSH3 0x95 JUMP JUMPDEST DUP1 PUSH1 0x0 DUP1 PUSH2 0x100 EXP DUP2 SLOAD DUP2 PUSH20 0xFFFFFFFFFFFFFFFFFFFFFFFFFFFFFFFFFFFFFFFF MUL NOT AND SWAP1 DUP4 PUSH20 0xFFFFFFFFFFFFFFFFFFFFFFFFFFFFFFFFFFFFFFFF AND MUL OR SWAP1 SSTORE POP POP PUSH3 0x11A JUMP JUMPDEST PUSH1 0x0 DUP2 MLOAD SWAP1 POP PUSH3 0x8F DUP2 PUSH3 0x100 JUMP JUMPDEST SWAP3 SWAP2 POP POP JUMP JUMPDEST PUSH1 0x0 PUSH1 0x20 DUP3 DUP5 SUB SLT ISZERO PUSH3 0xAE JUMPI PUSH3 0xAD PUSH3 0xFB JUMP JUMPDEST JUMPDEST PUSH1 0x0 PUSH3 0xBE DUP5 DUP3 DUP6 ADD PUSH3 0x7E JUMP JUMPDEST SWAP2 POP POP SWAP3 SWAP2 POP POP JUMP JUMPDEST PUSH1 0x0 PUSH3 0xD4 DUP3 PUSH3 0xDB JUMP JUMPDEST SWAP1 POP SWAP2 SWAP1 POP JUMP JUMPDEST PUSH1 0x0 PUSH20 0xFFFFFFFFFFFFFFFFFFFFFFFFFFFFFFFFFFFFFFFF DUP3 AND SWAP1 POP SWAP2 SWAP1 POP JUMP JUMPDEST PUSH1 0x0 DUP1 REVERT JUMPDEST PUSH3 0x10B DUP2 PUSH3 0xC7 JUMP JUMPDEST DUP2 EQ PUSH3 0x117 JUMPI PUSH1 0x0 DUP1 REVERT JUMPDEST POP JUMP JUMPDEST PUSH2 0x13DD DUP1 PUSH3 0x12A PUSH1 0x0 CODECOPY PUSH1 0x0 RETURN INVALID PUSH1 0x80 PUSH1 0x40 MSTORE PUSH1 0x4 CALLDATASIZE LT PUSH2 0xA7 JUMPI PUSH1 0x0 CALLDATALOAD PUSH1 0xE0 SHR DUP1 PUSH4 0x903875F7 GT PUSH2 0x64 JUMPI DUP1 PUSH4 0x903875F7 EQ PUSH2 0x1EA JUMPI DUP1 PUSH4 0x9D76EA58 EQ PUSH2 0x227 JUMPI DUP1 PUSH4 0xC8AB8325 EQ PUSH2 0x252 JUMPI DUP1 PUSH4 0xE0BA2000 EQ PUSH2 0x28F JUMPI DUP1 PUSH4 0xEB521A4C EQ PUSH2 0x2BA JUMPI DUP1 PUSH4 0xED7BF868 EQ PUSH2 0x2EA JUMPI PUSH2 0xA7 JUMP JUMPDEST DUP1 PUSH4 0xA861F2A EQ PUSH2 0xAC JUMPI DUP1 PUSH4 0x1CDE6226 EQ PUSH2 0xEA JUMPI DUP1 PUSH4 0x240F3DEA EQ PUSH2 0x115 JUMPI DUP1 PUSH4 0x29CBAB3E EQ PUSH2 0x152 JUMPI DUP1 PUSH4 0x6FD0EA92 EQ PUSH2 0x170 JUMPI DUP1 PUSH4 0x79ED3562 EQ PUSH2 0x1AD JUMPI JUMPDEST PUSH1 0x0 DUP1 REVERT JUMPDEST CALLVALUE DUP1 ISZERO PUSH2 0xB8 JUMPI PUSH1 0x0 DUP1 REVERT JUMPDEST POP PUSH2 0xD3 PUSH1 0x4 DUP1 CALLDATASIZE SUB DUP2 ADD SWAP1 PUSH2 0xCE SWAP2 SWAP1 PUSH2 0xE0E JUMP JUMPDEST PUSH2 0x327 JUMP JUMPDEST PUSH1 0x40 MLOAD PUSH2 0xE1 SWAP3 SWAP2 SWAP1 PUSH2 0x103E JUMP JUMPDEST PUSH1 0x40 MLOAD DUP1 SWAP2 SUB SWAP1 RETURN JUMPDEST CALLVALUE DUP1 ISZERO PUSH2 0xF6 JUMPI PUSH1 0x0 DUP1 REVERT JUMPDEST POP PUSH2 0xFF PUSH2 0x5D4 JUMP JUMPDEST PUSH1 0x40 MLOAD PUSH2 0x10C SWAP2 SWAP1 PUSH2 0x1023 JUMP JUMPDEST PUSH1 0x40 MLOAD DUP1 SWAP2 SUB SWAP1 RETURN JUMPDEST CALLVALUE DUP1 ISZERO PUSH2 0x121 JUMPI PUSH1 0x0 DUP1 REVERT JUMPDEST POP PUSH2 0x13C PUSH1 0x4 DUP1 CALLDATASIZE SUB DUP2 ADD SWAP1 PUSH2 0x137 SWAP2 SWAP1 PUSH2 0xE0E JUMP JUMPDEST PUSH2 0x5DA JUMP JUMPDEST PUSH1 0x40 MLOAD PUSH2 0x149 SWAP2 SWAP1 PUSH2 0x1023 JUMP JUMPDEST PUSH1 0x40 MLOAD DUP1 SWAP2 SUB SWAP1 RETURN JUMPDEST PUSH2 0x15A PUSH2 0x5FE JUMP JUMPDEST PUSH1 0x40 MLOAD PUSH2 0x167 SWAP2 SWAP1 PUSH2 0x1023 JUMP JUMPDEST PUSH1 0x40 MLOAD DUP1 SWAP2 SUB SWAP1 RETURN JUMPDEST CALLVALUE DUP1 ISZERO PUSH2 0x17C JUMPI PUSH1 0x0 DUP1 REVERT JUMPDEST POP PUSH2 0x197 PUSH1 0x4 DUP1 CALLDATASIZE SUB DUP2 ADD SWAP1 PUSH2 0x192 SWAP2 SWAP1 PUSH2 0xDB4 JUMP JUMPDEST PUSH2 0x7A7 JUMP JUMPDEST PUSH1 0x40 MLOAD PUSH2 0x1A4 SWAP2 SWAP1 PUSH2 0x1023 JUMP JUMPDEST PUSH1 0x40 MLOAD DUP1 SWAP2 SUB SWAP1 RETURN JUMPDEST CALLVALUE DUP1 ISZERO PUSH2 0x1B9 JUMPI PUSH1 0x0 DUP1 REVERT JUMPDEST POP PUSH2 0x1D4 PUSH1 0x4 DUP1 CALLDATASIZE SUB DUP2 ADD SWAP1 PUSH2 0x1CF SWAP2 SWAP1 PUSH2 0xE0E JUMP JUMPDEST PUSH2 0x7BF JUMP JUMPDEST PUSH1 0x40 MLOAD PUSH2 0x1E1 SWAP2 SWAP1 PUSH2 0x1023 JUMP JUMPDEST PUSH1 0x40 MLOAD DUP1 SWAP2 SUB SWAP1 RETURN JUMPDEST CALLVALUE DUP1 ISZERO PUSH2 0x1F6 JUMPI PUSH1 0x0 DUP1 REVERT JUMPDEST POP PUSH2 0x211 PUSH1 0x4 DUP1 CALLDATASIZE SUB DUP2 ADD SWAP1 PUSH2 0x20C SWAP2 SWAP1 PUSH2 0xE0E JUMP JUMPDEST PUSH2 0x808 JUMP JUMPDEST PUSH1 0x40 MLOAD PUSH2 0x21E SWAP2 SWAP1 PUSH2 0x1023 JUMP JUMPDEST PUSH1 0x40 MLOAD DUP1 SWAP2 SUB SWAP1 RETURN JUMPDEST CALLVALUE DUP1 ISZERO PUSH2 0x233 JUMPI PUSH1 0x0 DUP1 REVERT JUMPDEST POP PUSH2 0x23C PUSH2 0x851 JUMP JUMPDEST PUSH1 0x40 MLOAD PUSH2 0x249 SWAP2 SWAP1 PUSH2 0xF08 JUMP JUMPDEST PUSH1 0x40 MLOAD DUP1 SWAP2 SUB SWAP1 RETURN JUMPDEST CALLVALUE DUP1 ISZERO PUSH2 0x25E JUMPI PUSH1 0x0 DUP1 REVERT JUMPDEST POP PUSH2 0x279 PUSH1 0x4 DUP1 CALLDATASIZE SUB DUP2 ADD SWAP1 PUSH2 0x274 SWAP2 SWAP1 PUSH2 0xE0E JUMP JUMPDEST PUSH2 0x875 JUMP JUMPDEST PUSH1 0x40 MLOAD PUSH2 0x286 SWAP2 SWAP1 PUSH2 0x1023 JUMP JUMPDEST PUSH1 0x40 MLOAD DUP1 SWAP2 SUB SWAP1 RETURN JUMPDEST CALLVALUE DUP1 ISZERO PUSH2 0x29B JUMPI PUSH1 0x0 DUP1 REVERT JUMPDEST POP PUSH2 0x2A4 PUSH2 0xA69 JUMP JUMPDEST PUSH1 0x40 MLOAD PUSH2 0x2B1 SWAP2 SWAP1 PUSH2 0x1023 JUMP JUMPDEST PUSH1 0x40 MLOAD DUP1 SWAP2 SUB SWAP1 RETURN JUMPDEST PUSH2 0x2D4 PUSH1 0x4 DUP1 CALLDATASIZE SUB DUP2 ADD SWAP1 PUSH2 0x2CF SWAP2 SWAP1 PUSH2 0xE0E JUMP JUMPDEST PUSH2 0xAB0 JUMP JUMPDEST PUSH1 0x40 MLOAD PUSH2 0x2E1 SWAP2 SWAP1 PUSH2 0x1023 JUMP JUMPDEST PUSH1 0x40 MLOAD DUP1 SWAP2 SUB SWAP1 RETURN JUMPDEST CALLVALUE DUP1 ISZERO PUSH2 0x2F6 JUMPI PUSH1 0x0 DUP1 REVERT JUMPDEST POP PUSH2 0x311 PUSH1 0x4 DUP1 CALLDATASIZE SUB DUP2 ADD SWAP1 PUSH2 0x30C SWAP2 SWAP1 PUSH2 0xE0E JUMP JUMPDEST PUSH2 0xD51 JUMP JUMPDEST PUSH1 0x40 MLOAD PUSH2 0x31E SWAP2 SWAP1 PUSH2 0x1023 JUMP JUMPDEST PUSH1 0x40 MLOAD DUP1 SWAP2 SUB SWAP1 RETURN JUMPDEST PUSH1 0x0 DUP1 PUSH1 0x0 DUP4 GT DUP1 ISZERO PUSH2 0x379 JUMPI POP PUSH1 0x2 PUSH1 0x0 CALLER PUSH20 0xFFFFFFFFFFFFFFFFFFFFFFFFFFFFFFFFFFFFFFFF AND PUSH20 0xFFFFFFFFFFFFFFFFFFFFFFFFFFFFFFFFFFFFFFFF AND DUP2 MSTORE PUSH1 0x20 ADD SWAP1 DUP2 MSTORE PUSH1 0x20 ADD PUSH1 0x0 KECCAK256 SLOAD DUP4 GT ISZERO JUMPDEST PUSH2 0x3B8 JUMPI PUSH1 0x40 MLOAD PUSH32 0x8C379A000000000000000000000000000000000000000000000000000000000 DUP2 MSTORE PUSH1 0x4 ADD PUSH2 0x3AF SWAP1 PUSH2 0xFA3 JUMP JUMPDEST PUSH1 0x40 MLOAD DUP1 SWAP2 SUB SWAP1 REVERT JUMPDEST PUSH1 0x0 PUSH1 0x1 SLOAD DUP5 PUSH1 0x3 SLOAD PUSH2 0x3CB SWAP2 SWAP1 PUSH2 0x1136 JUMP JUMPDEST PUSH2 0x3D5 SWAP2 SWAP1 PUSH2 0x1105 JUMP JUMPDEST SWAP1 POP PUSH1 0x0 PUSH1 0x1 SLOAD DUP6 PUSH1 0x4 SLOAD PUSH2 0x3EA SWAP2 SWAP1 PUSH2 0x1136 JUMP JUMPDEST PUSH2 0x3F4 SWAP2 SWAP1 PUSH2 0x1105 JUMP JUMPDEST SWAP1 POP DUP5 PUSH1 0x2 PUSH1 0x0 CALLER PUSH20 0xFFFFFFFFFFFFFFFFFFFFFFFFFFFFFFFFFFFFFFFF AND PUSH20 0xFFFFFFFFFFFFFFFFFFFFFFFFFFFFFFFFFFFFFFFF AND DUP2 MSTORE PUSH1 0x20 ADD SWAP1 DUP2 MSTORE PUSH1 0x20 ADD PUSH1 0x0 KECCAK256 PUSH1 0x0 DUP3 DUP3 SLOAD PUSH2 0x445 SWAP2 SWAP1 PUSH2 0x1190 JUMP JUMPDEST SWAP3 POP POP DUP2 SWAP1 SSTORE POP DUP5 PUSH1 0x1 PUSH1 0x0 DUP3 DUP3 SLOAD PUSH2 0x45E SWAP2 SWAP1 PUSH2 0x1190 JUMP JUMPDEST SWAP3 POP POP DUP2 SWAP1 SSTORE POP DUP2 PUSH1 0x3 PUSH1 0x0 DUP3 DUP3 SLOAD PUSH2 0x477 SWAP2 SWAP1 PUSH2 0x1190 JUMP JUMPDEST SWAP3 POP POP DUP2 SWAP1 SSTORE POP DUP1 PUSH1 0x4 PUSH1 0x0 DUP3 DUP3 SLOAD PUSH2 0x490 SWAP2 SWAP1 PUSH2 0x1190 JUMP JUMPDEST SWAP3 POP POP DUP2 SWAP1 SSTORE POP CALLER PUSH20 0xFFFFFFFFFFFFFFFFFFFFFFFFFFFFFFFFFFFFFFFF AND PUSH2 0x8FC DUP4 SWAP1 DUP2 ISZERO MUL SWAP1 PUSH1 0x40 MLOAD PUSH1 0x0 PUSH1 0x40 MLOAD DUP1 DUP4 SUB DUP2 DUP6 DUP9 DUP9 CALL SWAP4 POP POP POP POP ISZERO DUP1 ISZERO PUSH2 0x4DD JUMPI RETURNDATASIZE PUSH1 0x0 DUP1 RETURNDATACOPY RETURNDATASIZE PUSH1 0x0 REVERT JUMPDEST POP PUSH1 0x0 DUP1 SLOAD SWAP1 PUSH2 0x100 EXP SWAP1 DIV PUSH20 0xFFFFFFFFFFFFFFFFFFFFFFFFFFFFFFFFFFFFFFFF AND PUSH20 0xFFFFFFFFFFFFFFFFFFFFFFFFFFFFFFFFFFFFFFFF AND PUSH4 0xA9059CBB CALLER DUP4 PUSH1 0x40 MLOAD DUP4 PUSH4 0xFFFFFFFF AND PUSH1 0xE0 SHL DUP2 MSTORE PUSH1 0x4 ADD PUSH2 0x539 SWAP3 SWAP2 SWAP1 PUSH2 0xF5A JUMP JUMPDEST PUSH1 0x20 PUSH1 0x40 MLOAD DUP1 DUP4 SUB DUP2 PUSH1 0x0 DUP8 DUP1 EXTCODESIZE ISZERO DUP1 ISZERO PUSH2 0x553 JUMPI PUSH1 0x0 DUP1 REVERT JUMPDEST POP GAS CALL ISZERO DUP1 ISZERO PUSH2 0x567 JUMPI RETURNDATASIZE PUSH1 0x0 DUP1 RETURNDATACOPY RETURNDATASIZE PUSH1 0x0 REVERT JUMPDEST POP POP POP POP PUSH1 0x40 MLOAD RETURNDATASIZE PUSH1 0x1F NOT PUSH1 0x1F DUP3 ADD AND DUP3 ADD DUP1 PUSH1 0x40 MSTORE POP DUP2 ADD SWAP1 PUSH2 0x58B SWAP2 SWAP1 PUSH2 0xDE1 JUMP JUMPDEST POP PUSH32 0xB14F451E613015C13A17C78777F1D87FCB448D7330D67299A09B8F2DB38AAB10 DUP2 DUP4 DUP8 PUSH1 0x40 MLOAD PUSH2 0x5BF SWAP4 SWAP3 SWAP2 SWAP1 PUSH2 0x1067 JUMP JUMPDEST PUSH1 0x40 MLOAD DUP1 SWAP2 SUB SWAP1 LOG1 DUP1 DUP3 SWAP4 POP SWAP4 POP POP POP SWAP2 POP SWAP2 JUMP JUMPDEST PUSH1 0x1 SLOAD DUP2 JUMP JUMPDEST PUSH1 0x0 PUSH1 0x4 SLOAD DUP3 PUSH1 0x3 SLOAD PUSH2 0x5ED SWAP2 SWAP1 PUSH2 0x1136 JUMP JUMPDEST PUSH2 0x5F7 SWAP2 SWAP1 PUSH2 0x1105 JUMP JUMPDEST SWAP1 POP SWAP2 SWAP1 POP JUMP JUMPDEST PUSH1 0x0 DUP1 CALLVALUE GT PUSH2 0x642 JUMPI PUSH1 0x40 MLOAD PUSH32 0x8C379A000000000000000000000000000000000000000000000000000000000 DUP2 MSTORE PUSH1 0x4 ADD PUSH2 0x639 SWAP1 PUSH2 0xFC3 JUMP JUMPDEST PUSH1 0x40 MLOAD DUP1 SWAP2 SUB SWAP1 REVERT JUMPDEST PUSH1 0x0 CALLVALUE PUSH1 0x3 SLOAD PUSH2 0x652 SWAP2 SWAP1 PUSH2 0x10AF JUMP JUMPDEST SWAP1 POP PUSH1 0x0 DUP2 PUSH1 0x3 SLOAD PUSH1 0x4 SLOAD PUSH2 0x667 SWAP2 SWAP1 PUSH2 0x1136 JUMP JUMPDEST PUSH2 0x671 SWAP2 SWAP1 PUSH2 0x1105 JUMP JUMPDEST SWAP1 POP PUSH1 0x0 DUP2 PUSH1 0x4 SLOAD PUSH2 0x683 SWAP2 SWAP1 PUSH2 0x1190 JUMP JUMPDEST SWAP1 POP PUSH1 0x0 DUP1 SLOAD SWAP1 PUSH2 0x100 EXP SWAP1 DIV PUSH20 0xFFFFFFFFFFFFFFFFFFFFFFFFFFFFFFFFFFFFFFFF AND PUSH20 0xFFFFFFFFFFFFFFFFFFFFFFFFFFFFFFFFFFFFFFFF AND PUSH4 0xA9059CBB CALLER DUP4 PUSH1 0x40 MLOAD DUP4 PUSH4 0xFFFFFFFF AND PUSH1 0xE0 SHL DUP2 MSTORE PUSH1 0x4 ADD PUSH2 0x6E0 SWAP3 SWAP2 SWAP1 PUSH2 0xF5A JUMP JUMPDEST PUSH1 0x20 PUSH1 0x40 MLOAD DUP1 DUP4 SUB DUP2 PUSH1 0x0 DUP8 DUP1 EXTCODESIZE ISZERO DUP1 ISZERO PUSH2 0x6FA JUMPI PUSH1 0x0 DUP1 REVERT JUMPDEST POP GAS CALL ISZERO DUP1 ISZERO PUSH2 0x70E JUMPI RETURNDATASIZE PUSH1 0x0 DUP1 RETURNDATACOPY RETURNDATASIZE PUSH1 0x0 REVERT JUMPDEST POP POP POP POP PUSH1 0x40 MLOAD RETURNDATASIZE PUSH1 0x1F NOT PUSH1 0x1F DUP3 ADD AND DUP3 ADD DUP1 PUSH1 0x40 MSTORE POP DUP2 ADD SWAP1 PUSH2 0x732 SWAP2 SWAP1 PUSH2 0xDE1 JUMP JUMPDEST POP CALLVALUE PUSH1 0x3 PUSH1 0x0 DUP3 DUP3 SLOAD PUSH2 0x745 SWAP2 SWAP1 PUSH2 0x10AF JUMP JUMPDEST SWAP3 POP POP DUP2 SWAP1 SSTORE POP DUP1 PUSH1 0x4 PUSH1 0x0 DUP3 DUP3 SLOAD PUSH2 0x75E SWAP2 SWAP1 PUSH2 0x1190 JUMP JUMPDEST SWAP3 POP POP DUP2 SWAP1 SSTORE POP PUSH32 0xCDFC57B3D0CDC24B23CEA1F480AABEA287321F5BEE23AD76C2B52FA7982F5EA5 DUP2 CALLVALUE PUSH1 0x40 MLOAD PUSH2 0x796 SWAP3 SWAP2 SWAP1 PUSH2 0x103E JUMP JUMPDEST PUSH1 0x40 MLOAD DUP1 SWAP2 SUB SWAP1 LOG1 DUP1 SWAP4 POP POP POP POP SWAP1 JUMP JUMPDEST PUSH1 0x2 PUSH1 0x20 MSTORE DUP1 PUSH1 0x0 MSTORE PUSH1 0x40 PUSH1 0x0 KECCAK256 PUSH1 0x0 SWAP2 POP SWAP1 POP SLOAD DUP2 JUMP JUMPDEST PUSH1 0x0 DUP1 DUP3 PUSH1 0x3 SLOAD PUSH2 0x7D0 SWAP2 SWAP1 PUSH2 0x10AF JUMP JUMPDEST SWAP1 POP PUSH1 0x0 DUP2 PUSH1 0x3 SLOAD PUSH1 0x4 SLOAD PUSH2 0x7E5 SWAP2 SWAP1 PUSH2 0x1136 JUMP JUMPDEST PUSH2 0x7EF SWAP2 SWAP1 PUSH2 0x1105 JUMP JUMPDEST SWAP1 POP DUP1 PUSH1 0x4 SLOAD PUSH2 0x7FF SWAP2 SWAP1 PUSH2 0x1190 JUMP JUMPDEST SWAP3 POP POP POP SWAP2 SWAP1 POP JUMP JUMPDEST PUSH1 0x0 DUP1 DUP3 PUSH1 0x4 SLOAD PUSH2 0x819 SWAP2 SWAP1 PUSH2 0x10AF JUMP JUMPDEST SWAP1 POP PUSH1 0x0 DUP2 PUSH1 0x4 SLOAD PUSH1 0x3 SLOAD PUSH2 0x82E SWAP2 SWAP1 PUSH2 0x1136 JUMP JUMPDEST PUSH2 0x838 SWAP2 SWAP1 PUSH2 0x1105 JUMP JUMPDEST SWAP1 POP DUP1 PUSH1 0x3 SLOAD PUSH2 0x848 SWAP2 SWAP1 PUSH2 0x1190 JUMP JUMPDEST SWAP3 POP POP POP SWAP2 SWAP1 POP JUMP JUMPDEST PUSH1 0x0 DUP1 SLOAD SWAP1 PUSH2 0x100 EXP SWAP1 DIV PUSH20 0xFFFFFFFFFFFFFFFFFFFFFFFFFFFFFFFFFFFFFFFF AND DUP2 JUMP JUMPDEST PUSH1 0x0 DUP1 DUP3 GT PUSH2 0x8B9 JUMPI PUSH1 0x40 MLOAD PUSH32 0x8C379A000000000000000000000000000000000000000000000000000000000 DUP2 MSTORE PUSH1 0x4 ADD PUSH2 0x8B0 SWAP1 PUSH2 0xFE3 JUMP JUMPDEST PUSH1 0x40 MLOAD DUP1 SWAP2 SUB SWAP1 REVERT JUMPDEST PUSH1 0x0 DUP3 PUSH1 0x4 SLOAD PUSH2 0x8C9 SWAP2 SWAP1 PUSH2 0x10AF JUMP JUMPDEST SWAP1 POP PUSH1 0x0 DUP2 PUSH1 0x4 SLOAD PUSH1 0x3 SLOAD PUSH2 0x8DE SWAP2 SWAP1 PUSH2 0x1136 JUMP JUMPDEST PUSH2 0x8E8 SWAP2 SWAP1 PUSH2 0x1105 JUMP JUMPDEST SWAP1 POP PUSH1 0x0 DUP2 PUSH1 0x3 SLOAD PUSH2 0x8FA SWAP2 SWAP1 PUSH2 0x1190 JUMP JUMPDEST SWAP1 POP PUSH1 0x0 DUP1 SLOAD SWAP1 PUSH2 0x100 EXP SWAP1 DIV PUSH20 0xFFFFFFFFFFFFFFFFFFFFFFFFFFFFFFFFFFFFFFFF AND PUSH20 0xFFFFFFFFFFFFFFFFFFFFFFFFFFFFFFFFFFFFFFFF AND PUSH4 0x23B872DD CALLER ADDRESS DUP9 PUSH1 0x40 MLOAD DUP5 PUSH4 0xFFFFFFFF AND PUSH1 0xE0 SHL DUP2 MSTORE PUSH1 0x4 ADD PUSH2 0x959 SWAP4 SWAP3 SWAP2 SWAP1 PUSH2 0xF23 JUMP JUMPDEST PUSH1 0x20 PUSH1 0x40 MLOAD DUP1 DUP4 SUB DUP2 PUSH1 0x0 DUP8 DUP1 EXTCODESIZE ISZERO DUP1 ISZERO PUSH2 0x973 JUMPI PUSH1 0x0 DUP1 REVERT JUMPDEST POP GAS CALL ISZERO DUP1 ISZERO PUSH2 0x987 JUMPI RETURNDATASIZE PUSH1 0x0 DUP1 RETURNDATACOPY RETURNDATASIZE PUSH1 0x0 REVERT JUMPDEST POP POP POP POP PUSH1 0x40 MLOAD RETURNDATASIZE PUSH1 0x1F NOT PUSH1 0x1F DUP3 ADD AND DUP3 ADD DUP1 PUSH1 0x40 MSTORE POP DUP2 ADD SWAP1 PUSH2 0x9AB SWAP2 SWAP1 PUSH2 0xDE1 JUMP JUMPDEST POP CALLER PUSH20 0xFFFFFFFFFFFFFFFFFFFFFFFFFFFFFFFFFFFFFFFF AND PUSH2 0x8FC DUP3 SWAP1 DUP2 ISZERO MUL SWAP1 PUSH1 0x40 MLOAD PUSH1 0x0 PUSH1 0x40 MLOAD DUP1 DUP4 SUB DUP2 DUP6 DUP9 DUP9 CALL SWAP4 POP POP POP POP ISZERO DUP1 ISZERO PUSH2 0x9F2 JUMPI RETURNDATASIZE PUSH1 0x0 DUP1 RETURNDATACOPY RETURNDATASIZE PUSH1 0x0 REVERT JUMPDEST POP DUP5 PUSH1 0x4 PUSH1 0x0 DUP3 DUP3 SLOAD PUSH2 0xA05 SWAP2 SWAP1 PUSH2 0x10AF JUMP JUMPDEST SWAP3 POP POP DUP2 SWAP1 SSTORE POP DUP1 PUSH1 0x3 PUSH1 0x0 DUP3 DUP3 SLOAD PUSH2 0xA1E SWAP2 SWAP1 PUSH2 0x1190 JUMP JUMPDEST SWAP3 POP POP DUP2 SWAP1 SSTORE POP PUSH32 0x3297A389BB586920E62A196AF529D5F42651B17A1013D6BFE77F22372A0B2112 DUP6 DUP3 PUSH1 0x40 MLOAD PUSH2 0xA56 SWAP3 SWAP2 SWAP1 PUSH2 0x103E JUMP JUMPDEST PUSH1 0x40 MLOAD DUP1 SWAP2 SUB SWAP1 LOG1 DUP1 SWAP4 POP POP POP POP SWAP2 SWAP1 POP JUMP JUMPDEST PUSH1 0x0 PUSH1 0x2 PUSH1 0x0 CALLER PUSH20 0xFFFFFFFFFFFFFFFFFFFFFFFFFFFFFFFFFFFFFFFF AND PUSH20 0xFFFFFFFFFFFFFFFFFFFFFFFFFFFFFFFFFFFFFFFF AND DUP2 MSTORE PUSH1 0x20 ADD SWAP1 DUP2 MSTORE PUSH1 0x20 ADD PUSH1 0x0 KECCAK256 SLOAD SWAP1 POP SWAP1 JUMP JUMPDEST PUSH1 0x0 DUP1 CALLVALUE GT DUP1 ISZERO PUSH2 0xAC1 JUMPI POP PUSH1 0x0 DUP3 GT JUMPDEST PUSH2 0xB00 JUMPI PUSH1 0x40 MLOAD PUSH32 0x8C379A000000000000000000000000000000000000000000000000000000000 DUP2 MSTORE PUSH1 0x4 ADD PUSH2 0xAF7 SWAP1 PUSH2 0x1003 JUMP JUMPDEST PUSH1 0x40 MLOAD DUP1 SWAP2 SUB SWAP1 REVERT JUMPDEST PUSH1 0x0 DUP1 PUSH1 0x0 SWAP1 SLOAD SWAP1 PUSH2 0x100 EXP SWAP1 DIV PUSH20 0xFFFFFFFFFFFFFFFFFFFFFFFFFFFFFFFFFFFFFFFF AND SWAP1 POP DUP1 PUSH20 0xFFFFFFFFFFFFFFFFFFFFFFFFFFFFFFFFFFFFFFFF AND PUSH4 0x23B872DD CALLER ADDRESS DUP7 PUSH1 0x40 MLOAD DUP5 PUSH4 0xFFFFFFFF AND PUSH1 0xE0 SHL DUP2 MSTORE PUSH1 0x4 ADD PUSH2 0xB63 SWAP4 SWAP3 SWAP2 SWAP1 PUSH2 0xF23 JUMP JUMPDEST PUSH1 0x20 PUSH1 0x40 MLOAD DUP1 DUP4 SUB DUP2 PUSH1 0x0 DUP8 DUP1 EXTCODESIZE ISZERO DUP1 ISZERO PUSH2 0xB7D JUMPI PUSH1 0x0 DUP1 REVERT JUMPDEST POP GAS CALL ISZERO DUP1 ISZERO PUSH2 0xB91 JUMPI RETURNDATASIZE PUSH1 0x0 DUP1 RETURNDATACOPY RETURNDATASIZE PUSH1 0x0 REVERT JUMPDEST POP POP POP POP PUSH1 0x40 MLOAD RETURNDATASIZE PUSH1 0x1F NOT PUSH1 0x1F DUP3 ADD AND DUP3 ADD DUP1 PUSH1 0x40 MSTORE POP DUP2 ADD SWAP1 PUSH2 0xBB5 SWAP2 SWAP1 PUSH2 0xDE1 JUMP JUMPDEST PUSH2 0xBF4 JUMPI PUSH1 0x40 MLOAD PUSH32 0x8C379A000000000000000000000000000000000000000000000000000000000 DUP2 MSTORE PUSH1 0x4 ADD PUSH2 0xBEB SWAP1 PUSH2 0xF83 JUMP JUMPDEST PUSH1 0x40 MLOAD DUP1 SWAP2 SUB SWAP1 REVERT JUMPDEST PUSH1 0x0 PUSH1 0x1 SLOAD EQ ISZERO PUSH2 0xC51 JUMPI PUSH1 0x64 PUSH1 0x2 PUSH1 0x0 CALLER PUSH20 0xFFFFFFFFFFFFFFFFFFFFFFFFFFFFFFFFFFFFFFFF AND PUSH20 0xFFFFFFFFFFFFFFFFFFFFFFFFFFFFFFFFFFFFFFFF AND DUP2 MSTORE PUSH1 0x20 ADD SWAP1 DUP2 MSTORE PUSH1 0x20 ADD PUSH1 0x0 KECCAK256 DUP2 SWAP1 SSTORE POP PUSH1 0x64 PUSH1 0x1 DUP2 SWAP1 SSTORE POP PUSH2 0xCDE JUMP JUMPDEST PUSH1 0x4 SLOAD DUP4 PUSH1 0x1 SLOAD PUSH2 0xC62 SWAP2 SWAP1 PUSH2 0x1136 JUMP JUMPDEST PUSH2 0xC6C SWAP2 SWAP1 PUSH2 0x1105 JUMP JUMPDEST SWAP2 POP DUP2 PUSH1 0x2 PUSH1 0x0 CALLER PUSH20 0xFFFFFFFFFFFFFFFFFFFFFFFFFFFFFFFFFFFFFFFF AND PUSH20 0xFFFFFFFFFFFFFFFFFFFFFFFFFFFFFFFFFFFFFFFF AND DUP2 MSTORE PUSH1 0x20 ADD SWAP1 DUP2 MSTORE PUSH1 0x20 ADD PUSH1 0x0 KECCAK256 PUSH1 0x0 DUP3 DUP3 SLOAD PUSH2 0xCBD SWAP2 SWAP1 PUSH2 0x10AF JUMP JUMPDEST SWAP3 POP POP DUP2 SWAP1 SSTORE POP DUP2 PUSH1 0x1 PUSH1 0x0 DUP3 DUP3 SLOAD PUSH2 0xCD6 SWAP2 SWAP1 PUSH2 0x10AF JUMP JUMPDEST SWAP3 POP POP DUP2 SWAP1 SSTORE POP JUMPDEST CALLVALUE PUSH1 0x3 PUSH1 0x0 DUP3 DUP3 SLOAD PUSH2 0xCF0 SWAP2 SWAP1 PUSH2 0x10AF JUMP JUMPDEST SWAP3 POP POP DUP2 SWAP1 SSTORE POP DUP3 PUSH1 0x4 PUSH1 0x0 DUP3 DUP3 SLOAD PUSH2 0xD09 SWAP2 SWAP1 PUSH2 0x10AF JUMP JUMPDEST SWAP3 POP POP DUP2 SWAP1 SSTORE POP PUSH32 0xAA58F006CC244B2AF6662862508BD39465F57169FF8386D1D1F7B0B903150ABC DUP4 CALLVALUE DUP5 PUSH1 0x40 MLOAD PUSH2 0xD43 SWAP4 SWAP3 SWAP2 SWAP1 PUSH2 0x1067 JUMP JUMPDEST PUSH1 0x40 MLOAD DUP1 SWAP2 SUB SWAP1 LOG1 POP SWAP2 SWAP1 POP JUMP JUMPDEST PUSH1 0x0 PUSH1 0x3 SLOAD DUP3 PUSH1 0x4 SLOAD PUSH2 0xD64 SWAP2 SWAP1 PUSH2 0x1136 JUMP JUMPDEST PUSH2 0xD6E SWAP2 SWAP1 PUSH2 0x1105 JUMP JUMPDEST SWAP1 POP SWAP2 SWAP1 POP JUMP JUMPDEST PUSH1 0x0 DUP2 CALLDATALOAD SWAP1 POP PUSH2 0xD84 DUP2 PUSH2 0x1362 JUMP JUMPDEST SWAP3 SWAP2 POP POP JUMP JUMPDEST PUSH1 0x0 DUP2 MLOAD SWAP1 POP PUSH2 0xD99 DUP2 PUSH2 0x1379 JUMP JUMPDEST SWAP3 SWAP2 POP POP JUMP JUMPDEST PUSH1 0x0 DUP2 CALLDATALOAD SWAP1 POP PUSH2 0xDAE DUP2 PUSH2 0x1390 JUMP JUMPDEST SWAP3 SWAP2 POP POP JUMP JUMPDEST PUSH1 0x0 PUSH1 0x20 DUP3 DUP5 SUB SLT ISZERO PUSH2 0xDCA JUMPI PUSH2 0xDC9 PUSH2 0x126A JUMP JUMPDEST JUMPDEST PUSH1 0x0 PUSH2 0xDD8 DUP5 DUP3 DUP6 ADD PUSH2 0xD75 JUMP JUMPDEST SWAP2 POP POP SWAP3 SWAP2 POP POP JUMP JUMPDEST PUSH1 0x0 PUSH1 0x20 DUP3 DUP5 SUB SLT ISZERO PUSH2 0xDF7 JUMPI PUSH2 0xDF6 PUSH2 0x126A JUMP JUMPDEST JUMPDEST PUSH1 0x0 PUSH2 0xE05 DUP5 DUP3 DUP6 ADD PUSH2 0xD8A JUMP JUMPDEST SWAP2 POP POP SWAP3 SWAP2 POP POP JUMP JUMPDEST PUSH1 0x0 PUSH1 0x20 DUP3 DUP5 SUB SLT ISZERO PUSH2 0xE24 JUMPI PUSH2 0xE23 PUSH2 0x126A JUMP JUMPDEST JUMPDEST PUSH1 0x0 PUSH2 0xE32 DUP5 DUP3 DUP6 ADD PUSH2 0xD9F JUMP JUMPDEST SWAP2 POP POP SWAP3 SWAP2 POP POP JUMP JUMPDEST PUSH2 0xE44 DUP2 PUSH2 0x11C4 JUMP JUMPDEST DUP3 MSTORE POP POP JUMP JUMPDEST PUSH1 0x0 PUSH2 0xE57 PUSH1 0xF DUP4 PUSH2 0x109E JUMP JUMPDEST SWAP2 POP PUSH2 0xE62 DUP3 PUSH2 0x126F JUMP JUMPDEST PUSH1 0x20 DUP3 ADD SWAP1 POP SWAP2 SWAP1 POP JUMP JUMPDEST PUSH1 0x0 PUSH2 0xE7A PUSH1 0xE DUP4 PUSH2 0x109E JUMP JUMPDEST SWAP2 POP PUSH2 0xE85 DUP3 PUSH2 0x1298 JUMP JUMPDEST PUSH1 0x20 DUP3 ADD SWAP1 POP SWAP2 SWAP1 POP JUMP JUMPDEST PUSH1 0x0 PUSH2 0xE9D PUSH1 0x10 DUP4 PUSH2 0x109E JUMP JUMPDEST SWAP2 POP PUSH2 0xEA8 DUP3 PUSH2 0x12C1 JUMP JUMPDEST PUSH1 0x20 DUP3 ADD SWAP1 POP SWAP2 SWAP1 POP JUMP JUMPDEST PUSH1 0x0 PUSH2 0xEC0 PUSH1 0x13 DUP4 PUSH2 0x109E JUMP JUMPDEST SWAP2 POP PUSH2 0xECB DUP3 PUSH2 0x12EA JUMP JUMPDEST PUSH1 0x20 DUP3 ADD SWAP1 POP SWAP2 SWAP1 POP JUMP JUMPDEST PUSH1 0x0 PUSH2 0xEE3 PUSH1 0x21 DUP4 PUSH2 0x109E JUMP JUMPDEST SWAP2 POP PUSH2 0xEEE DUP3 PUSH2 0x1313 JUMP JUMPDEST PUSH1 0x40 DUP3 ADD SWAP1 POP SWAP2 SWAP1 POP JUMP JUMPDEST PUSH2 0xF02 DUP2 PUSH2 0x1202 JUMP JUMPDEST DUP3 MSTORE POP POP JUMP JUMPDEST PUSH1 0x0 PUSH1 0x20 DUP3 ADD SWAP1 POP PUSH2 0xF1D PUSH1 0x0 DUP4 ADD DUP5 PUSH2 0xE3B JUMP JUMPDEST SWAP3 SWAP2 POP POP JUMP JUMPDEST PUSH1 0x0 PUSH1 0x60 DUP3 ADD SWAP1 POP PUSH2 0xF38 PUSH1 0x0 DUP4 ADD DUP7 PUSH2 0xE3B JUMP JUMPDEST PUSH2 0xF45 PUSH1 0x20 DUP4 ADD DUP6 PUSH2 0xE3B JUMP JUMPDEST PUSH2 0xF52 PUSH1 0x40 DUP4 ADD DUP5 PUSH2 0xEF9 JUMP JUMPDEST SWAP5 SWAP4 POP POP POP POP JUMP JUMPDEST PUSH1 0x0 PUSH1 0x40 DUP3 ADD SWAP1 POP PUSH2 0xF6F PUSH1 0x0 DUP4 ADD DUP6 PUSH2 0xE3B JUMP JUMPDEST PUSH2 0xF7C PUSH1 0x20 DUP4 ADD DUP5 PUSH2 0xEF9 JUMP JUMPDEST SWAP4 SWAP3 POP POP POP JUMP JUMPDEST PUSH1 0x0 PUSH1 0x20 DUP3 ADD SWAP1 POP DUP2 DUP2 SUB PUSH1 0x0 DUP4 ADD MSTORE PUSH2 0xF9C DUP2 PUSH2 0xE4A JUMP JUMPDEST SWAP1 POP SWAP2 SWAP1 POP JUMP JUMPDEST PUSH1 0x0 PUSH1 0x20 DUP3 ADD SWAP1 POP DUP2 DUP2 SUB PUSH1 0x0 DUP4 ADD MSTORE PUSH2 0xFBC DUP2 PUSH2 0xE6D JUMP JUMPDEST SWAP1 POP SWAP2 SWAP1 POP JUMP JUMPDEST PUSH1 0x0 PUSH1 0x20 DUP3 ADD SWAP1 POP DUP2 DUP2 SUB PUSH1 0x0 DUP4 ADD MSTORE PUSH2 0xFDC DUP2 PUSH2 0xE90 JUMP JUMPDEST SWAP1 POP SWAP2 SWAP1 POP JUMP JUMPDEST PUSH1 0x0 PUSH1 0x20 DUP3 ADD SWAP1 POP DUP2 DUP2 SUB PUSH1 0x0 DUP4 ADD MSTORE PUSH2 0xFFC DUP2 PUSH2 0xEB3 JUMP JUMPDEST SWAP1 POP SWAP2 SWAP1 POP JUMP JUMPDEST PUSH1 0x0 PUSH1 0x20 DUP3 ADD SWAP1 POP DUP2 DUP2 SUB PUSH1 0x0 DUP4 ADD MSTORE PUSH2 0x101C DUP2 PUSH2 0xED6 JUMP JUMPDEST SWAP1 POP SWAP2 SWAP1 POP JUMP JUMPDEST PUSH1 0x0 PUSH1 0x20 DUP3 ADD SWAP1 POP PUSH2 0x1038 PUSH1 0x0 DUP4 ADD DUP5 PUSH2 0xEF9 JUMP JUMPDEST SWAP3 SWAP2 POP POP JUMP JUMPDEST PUSH1 0x0 PUSH1 0x40 DUP3 ADD SWAP1 POP PUSH2 0x1053 PUSH1 0x0 DUP4 ADD DUP6 PUSH2 0xEF9 JUMP JUMPDEST PUSH2 0x1060 PUSH1 0x20 DUP4 ADD DUP5 PUSH2 0xEF9 JUMP JUMPDEST SWAP4 SWAP3 POP POP POP JUMP JUMPDEST PUSH1 0x0 PUSH1 0x60 DUP3 ADD SWAP1 POP PUSH2 0x107C PUSH1 0x0 DUP4 ADD DUP7 PUSH2 0xEF9 JUMP JUMPDEST PUSH2 0x1089 PUSH1 0x20 DUP4 ADD DUP6 PUSH2 0xEF9 JUMP JUMPDEST PUSH2 0x1096 PUSH1 0x40 DUP4 ADD DUP5 PUSH2 0xEF9 JUMP JUMPDEST SWAP5 SWAP4 POP POP POP POP JUMP JUMPDEST PUSH1 0x0 DUP3 DUP3 MSTORE PUSH1 0x20 DUP3 ADD SWAP1 POP SWAP3 SWAP2 POP POP JUMP JUMPDEST PUSH1 0x0 PUSH2 0x10BA DUP3 PUSH2 0x1202 JUMP JUMPDEST SWAP2 POP PUSH2 0x10C5 DUP4 PUSH2 0x1202 JUMP JUMPDEST SWAP3 POP DUP3 PUSH32 0xFFFFFFFFFFFFFFFFFFFFFFFFFFFFFFFFFFFFFFFFFFFFFFFFFFFFFFFFFFFFFFFF SUB DUP3 GT ISZERO PUSH2 0x10FA JUMPI PUSH2 0x10F9 PUSH2 0x120C JUMP JUMPDEST JUMPDEST DUP3 DUP3 ADD SWAP1 POP SWAP3 SWAP2 POP POP JUMP JUMPDEST PUSH1 0x0 PUSH2 0x1110 DUP3 PUSH2 0x1202 JUMP JUMPDEST SWAP2 POP PUSH2 0x111B DUP4 PUSH2 0x1202 JUMP JUMPDEST SWAP3 POP DUP3 PUSH2 0x112B JUMPI PUSH2 0x112A PUSH2 0x123B JUMP JUMPDEST JUMPDEST DUP3 DUP3 DIV SWAP1 POP SWAP3 SWAP2 POP POP JUMP JUMPDEST PUSH1 0x0 PUSH2 0x1141 DUP3 PUSH2 0x1202 JUMP JUMPDEST SWAP2 POP PUSH2 0x114C DUP4 PUSH2 0x1202 JUMP JUMPDEST SWAP3 POP DUP2 PUSH32 0xFFFFFFFFFFFFFFFFFFFFFFFFFFFFFFFFFFFFFFFFFFFFFFFFFFFFFFFFFFFFFFFF DIV DUP4 GT DUP3 ISZERO ISZERO AND ISZERO PUSH2 0x1185 JUMPI PUSH2 0x1184 PUSH2 0x120C JUMP JUMPDEST JUMPDEST DUP3 DUP3 MUL SWAP1 POP SWAP3 SWAP2 POP POP JUMP JUMPDEST PUSH1 0x0 PUSH2 0x119B DUP3 PUSH2 0x1202 JUMP JUMPDEST SWAP2 POP PUSH2 0x11A6 DUP4 PUSH2 0x1202 JUMP JUMPDEST SWAP3 POP DUP3 DUP3 LT ISZERO PUSH2 0x11B9 JUMPI PUSH2 0x11B8 PUSH2 0x120C JUMP JUMPDEST JUMPDEST DUP3 DUP3 SUB SWAP1 POP SWAP3 SWAP2 POP POP JUMP JUMPDEST PUSH1 0x0 PUSH2 0x11CF DUP3 PUSH2 0x11E2 JUMP JUMPDEST SWAP1 POP SWAP2 SWAP1 POP JUMP JUMPDEST PUSH1 0x0 DUP2 ISZERO ISZERO SWAP1 POP SWAP2 SWAP1 POP JUMP JUMPDEST PUSH1 0x0 PUSH20 0xFFFFFFFFFFFFFFFFFFFFFFFFFFFFFFFFFFFFFFFF DUP3 AND SWAP1 POP SWAP2 SWAP1 POP JUMP JUMPDEST PUSH1 0x0 DUP2 SWAP1 POP SWAP2 SWAP1 POP JUMP JUMPDEST PUSH32 0x4E487B7100000000000000000000000000000000000000000000000000000000 PUSH1 0x0 MSTORE PUSH1 0x11 PUSH1 0x4 MSTORE PUSH1 0x24 PUSH1 0x0 REVERT JUMPDEST PUSH32 0x4E487B7100000000000000000000000000000000000000000000000000000000 PUSH1 0x0 MSTORE PUSH1 0x12 PUSH1 0x4 MSTORE PUSH1 0x24 PUSH1 0x0 REVERT JUMPDEST PUSH1 0x0 DUP1 REVERT JUMPDEST PUSH32 0x5472616E73666572206661696C65640000000000000000000000000000000000 PUSH1 0x0 DUP3 ADD MSTORE POP JUMP JUMPDEST PUSH32 0x496E76616C696420616D6F756E74000000000000000000000000000000000000 PUSH1 0x0 DUP3 ADD MSTORE POP JUMP JUMPDEST PUSH32 0x4D7573742070726F766964652045544800000000000000000000000000000000 PUSH1 0x0 DUP3 ADD MSTORE POP JUMP JUMPDEST PUSH32 0x4D7573742070726F7669646520746F6B656E7300000000000000000000000000 PUSH1 0x0 DUP3 ADD MSTORE POP JUMP JUMPDEST PUSH32 0x4D7573742070726F766964652045544820616E64204552432D323020746F6B65 PUSH1 0x0 DUP3 ADD MSTORE PUSH32 0x6E00000000000000000000000000000000000000000000000000000000000000 PUSH1 0x20 DUP3 ADD MSTORE POP JUMP JUMPDEST PUSH2 0x136B DUP2 PUSH2 0x11C4 JUMP JUMPDEST DUP2 EQ PUSH2 0x1376 JUMPI PUSH1 0x0 DUP1 REVERT JUMPDEST POP JUMP JUMPDEST PUSH2 0x1382 DUP2 PUSH2 0x11D6 JUMP JUMPDEST DUP2 EQ PUSH2 0x138D JUMPI PUSH1 0x0 DUP1 REVERT JUMPDEST POP JUMP JUMPDEST PUSH2 0x1399 DUP2 PUSH2 0x1202 JUMP JUMPDEST DUP2 EQ PUSH2 0x13A4 JUMPI PUSH1 0x0 DUP1 REVERT JUMPDEST POP JUMP INVALID LOG2 PUSH5 0x6970667358 0x22 SLT KECCAK256 SSTORE EQ CALLDATASIZE 0x1E 0xAA DUP9 MUL 0xAF 0xFB DUP12 0xC0 0xE PUSH30 0x592D9AD60231112D2C0EC2C21ED0209F26F87F64736F6C63430008070033 "
				},
				"gasEstimates": {
					"creation": {
						"codeDepositCost": "1017000",
						"executionCost": "infinite",
						"totalCost": "infinite"
					},
					"external": {
						"estimateERC20TokenToProvide(uint256)": "infinite",
						"estimateEthToProvide(uint256)": "infinite",
						"estimateSwapForERC20Token(uint256)": "infinite",
						"estimateSwapForEth(uint256)": "infinite",
						"getMyLiquidityPositions()": "2592",
						"liquidityPositions(address)": "2903",
						"provideLiquidity(uint256)": "infinite",
						"swapForERC20Token()": "infinite",
						"swapForEth(uint256)": "infinite",
						"tokenAddress()": "2533",
						"totalLiquidityPositions()": "2452",
						"withdrawLiquidity(uint256)": "infinite"
					}
				},
				"methodIdentifiers": {
					"estimateERC20TokenToProvide(uint256)": "ed7bf868",
					"estimateEthToProvide(uint256)": "240f3dea",
					"estimateSwapForERC20Token(uint256)": "79ed3562",
					"estimateSwapForEth(uint256)": "903875f7",
					"getMyLiquidityPositions()": "e0ba2000",
					"liquidityPositions(address)": "6fd0ea92",
					"provideLiquidity(uint256)": "eb521a4c",
					"swapForERC20Token()": "29cbab3e",
					"swapForEth(uint256)": "c8ab8325",
					"tokenAddress()": "9d76ea58",
					"totalLiquidityPositions()": "1cde6226",
					"withdrawLiquidity(uint256)": "0a861f2a"
				}
			},
			"storageLayout": {
				"storage": [
					{
						"astId": 4,
						"contract": "contracts/Exchange.sol:Exchange",
						"label": "tokenAddress",
						"offset": 0,
						"slot": "0",
						"type": "t_address"
					},
					{
						"astId": 6,
						"contract": "contracts/Exchange.sol:Exchange",
						"label": "totalLiquidityPositions",
						"offset": 0,
						"slot": "1",
						"type": "t_uint256"
					},
					{
						"astId": 10,
						"contract": "contracts/Exchange.sol:Exchange",
						"label": "liquidityPositions",
						"offset": 0,
						"slot": "2",
						"type": "t_mapping(t_address,t_uint256)"
					},
					{
						"astId": 12,
						"contract": "contracts/Exchange.sol:Exchange",
						"label": "contractEthBalance",
						"offset": 0,
						"slot": "3",
						"type": "t_uint256"
					},
					{
						"astId": 14,
						"contract": "contracts/Exchange.sol:Exchange",
						"label": "contractTokenBalance",
						"offset": 0,
						"slot": "4",
						"type": "t_uint256"
					}
				],
				"types": {
					"t_address": {
						"encoding": "inplace",
						"label": "address",
						"numberOfBytes": "20"
					},
					"t_mapping(t_address,t_uint256)": {
						"encoding": "mapping",
						"key": "t_address",
						"label": "mapping(address => uint256)",
						"numberOfBytes": "32",
						"value": "t_uint256"
					},
					"t_uint256": {
						"encoding": "inplace",
						"label": "uint256",
						"numberOfBytes": "32"
					}
				}
			},
			"userdoc": {
				"kind": "user",
				"methods": {},
				"version": 1
			}
		}
	}
}