{
	"data": {
		"bytecode": {
			"linkReferences": {},
			"object": "60806040523480156200001157600080fd5b506040516200150738038062001507833981810160405281019062000037919062000095565b806000806101000a81548173ffffffffffffffffffffffffffffffffffffffff021916908373ffffffffffffffffffffffffffffffffffffffff160217905550506200011a565b6000815190506200008f8162000100565b92915050565b600060208284031215620000ae57620000ad620000fb565b5b6000620000be848285016200007e565b91505092915050565b6000620000d482620000db565b9050919050565b600073ffffffffffffffffffffffffffffffffffffffff82169050919050565b600080fd5b6200010b81620000c7565b81146200011757600080fd5b50565b6113dd806200012a6000396000f3fe6080604052600436106100a75760003560e01c8063903875f711610064578063903875f7146101ea5780639d76ea5814610227578063c8ab832514610252578063e0ba20001461028f578063eb521a4c146102ba578063ed7bf868146102ea576100a7565b80630a861f2a146100ac5780631cde6226146100ea578063240f3dea1461011557806329cbab3e146101525780636fd0ea921461017057806379ed3562146101ad575b600080fd5b3480156100b857600080fd5b506100d360048036038101906100ce9190610e0e565b610327565b6040516100e192919061103e565b60405180910390f35b3480156100f657600080fd5b506100ff6105d4565b60405161010c9190611023565b60405180910390f35b34801561012157600080fd5b5061013c60048036038101906101379190610e0e565b6105da565b6040516101499190611023565b60405180910390f35b61015a6105fe565b6040516101679190611023565b60405180910390f35b34801561017c57600080fd5b5061019760048036038101906101929190610db4565b6107a7565b6040516101a49190611023565b60405180910390f35b3480156101b957600080fd5b506101d460048036038101906101cf9190610e0e565b6107bf565b6040516101e19190611023565b60405180910390f35b3480156101f657600080fd5b50610211600480360381019061020c9190610e0e565b610808565b60405161021e9190611023565b60405180910390f35b34801561023357600080fd5b5061023c610851565b6040516102499190610f08565b60405180910390f35b34801561025e57600080fd5b5061027960048036038101906102749190610e0e565b610875565b6040516102869190611023565b60405180910390f35b34801561029b57600080fd5b506102a4610a69565b6040516102b19190611023565b60405180910390f35b6102d460048036038101906102cf9190610e0e565b610ab0565b6040516102e19190611023565b60405180910390f35b3480156102f657600080fd5b50610311600480360381019061030c9190610e0e565b610d51565b60405161031e9190611023565b60405180910390f35b6000806000831180156103795750600260003373ffffffffffffffffffffffffffffffffffffffff1673ffffffffffffffffffffffffffffffffffffffff168152602001908152602001600020548311155b6103b8576040517f08c379a00000000000000000000000000000000000000000000000000000000081526004016103af90610fa3565b60405180910390fd5b6000600154846003546103cb9190611136565b6103d59190611105565b90506000600154856004546103ea9190611136565b6103f49190611105565b905084600260003373ffffffffffffffffffffffffffffffffffffffff1673ffffffffffffffffffffffffffffffffffffffff16815260200190815260200160002060008282546104459190611190565b92505081905550846001600082825461045e9190611190565b9250508190555081600360008282546104779190611190565b9250508190555080600460008282546104909190611190565b925050819055503373ffffffffffffffffffffffffffffffffffffffff166108fc839081150290604051600060405180830381858888f193505050501580156104dd573d6000803e3d6000fd5b5060008054906101000a900473ffffffffffffffffffffffffffffffffffffffff1673ffffffffffffffffffffffffffffffffffffffff1663a9059cbb33836040518363ffffffff1660e01b8152600401610539929190610f5a565b602060405180830381600087803b15801561055357600080fd5b505af1158015610567573d6000803e3d6000fd5b505050506040513d601f19601f8201168201806040525081019061058b9190610de1565b507fb14f451e613015c13a17c78777f1d87fcb448d7330d67299a09b8f2db38aab108183876040516105bf93929190611067565b60405180910390a18082935093505050915091565b60015481565b6000600454826003546105ed9190611136565b6105f79190611105565b9050919050565b6000803411610642576040517f08c379a000000000000000000000000000000000000000000000000000000000815260040161063990610fc3565b60405180910390fd5b60003460035461065291906110af565b90506000816003546004546106679190611136565b6106719190611105565b90506000816004546106839190611190565b905060008054906101000a900473ffffffffffffffffffffffffffffffffffffffff1673ffffffffffffffffffffffffffffffffffffffff1663a9059cbb33836040518363ffffffff1660e01b81526004016106e0929190610f5a565b602060405180830381600087803b1580156106fa57600080fd5b505af115801561070e573d6000803e3d6000fd5b505050506040513d601f19601f820116820180604052508101906107329190610de1565b50346003600082825461074591906110af565b92505081905550806004600082825461075e9190611190565b925050819055507fcdfc57b3d0cdc24b23cea1f480aabea287321f5bee23ad76c2b52fa7982f5ea5813460405161079692919061103e565b60405180910390a180935050505090565b60026020528060005260406000206000915090505481565b600080826003546107d091906110af565b90506000816003546004546107e59190611136565b6107ef9190611105565b9050806004546107ff9190611190565b92505050919050565b6000808260045461081991906110af565b905060008160045460035461082e9190611136565b6108389190611105565b9050806003546108489190611190565b92505050919050565b60008054906101000a900473ffffffffffffffffffffffffffffffffffffffff1681565b60008082116108b9576040517f08c379a00000000000000000000000000000000000000000000000000000000081526004016108b090610fe3565b60405180910390fd5b6000826004546108c991906110af565b90506000816004546003546108de9190611136565b6108e89190611105565b90506000816003546108fa9190611190565b905060008054906101000a900473ffffffffffffffffffffffffffffffffffffffff1673ffffffffffffffffffffffffffffffffffffffff166323b872dd3330886040518463ffffffff1660e01b815260040161095993929190610f23565b602060405180830381600087803b15801561097357600080fd5b505af1158015610987573d6000803e3d6000fd5b505050506040513d601f19601f820116820180604052508101906109ab9190610de1565b503373ffffffffffffffffffffffffffffffffffffffff166108fc829081150290604051600060405180830381858888f193505050501580156109f2573d6000803e3d6000fd5b508460046000828254610a0591906110af565b925050819055508060036000828254610a1e9190611190565b925050819055507f3297a389bb586920e62a196af529d5f42651b17a1013d6bfe77f22372a0b21128582604051610a5692919061103e565b60405180910390a1809350505050919050565b6000600260003373ffffffffffffffffffffffffffffffffffffffff1673ffffffffffffffffffffffffffffffffffffffff16815260200190815260200160002054905090565b60008034118015610ac15750600082115b610b00576040517f08c379a0000000000000000000000000000000000000000000000000000000008152600401610af790611003565b60405180910390fd5b60008060009054906101000a900473ffffffffffffffffffffffffffffffffffffffff1690508073ffffffffffffffffffffffffffffffffffffffff166323b872dd3330866040518463ffffffff1660e01b8152600401610b6393929190610f23565b602060405180830381600087803b158015610b7d57600080fd5b505af1158015610b91573d6000803e3d6000fd5b505050506040513d601f19601f82011682018060405250810190610bb59190610de1565b610bf4576040517f08c379a0000000000000000000000000000000000000000000000000000000008152600401610beb90610f83565b60405180910390fd5b60006001541415610c51576064600260003373ffffffffffffffffffffffffffffffffffffffff1673ffffffffffffffffffffffffffffffffffffffff168152602001908152602001600020819055506064600181905550610cde565b60045483600154610c629190611136565b610c6c9190611105565b915081600260003373ffffffffffffffffffffffffffffffffffffffff1673ffffffffffffffffffffffffffffffffffffffff1681526020019081526020016000206000828254610cbd91906110af565b925050819055508160016000828254610cd691906110af565b925050819055505b3460036000828254610cf091906110af565b925050819055508260046000828254610d0991906110af565b925050819055507faa58f006cc244b2af6662862508bd39465f57169ff8386d1d1f7b0b903150abc833484604051610d4393929190611067565b60405180910390a150919050565b600060035482600454610d649190611136565b610d6e9190611105565b9050919050565b600081359050610d8481611362565b92915050565b600081519050610d9981611379565b92915050565b600081359050610dae81611390565b92915050565b600060208284031215610dca57610dc961126a565b5b6000610dd884828501610d75565b91505092915050565b600060208284031215610df757610df661126a565b5b6000610e0584828501610d8a565b91505092915050565b600060208284031215610e2457610e2361126a565b5b6000610e3284828501610d9f565b91505092915050565b610e44816111c4565b82525050565b6000610e57600f8361109e565b9150610e628261126f565b602082019050919050565b6000610e7a600e8361109e565b9150610e8582611298565b602082019050919050565b6000610e9d60108361109e565b9150610ea8826112c1565b602082019050919050565b6000610ec060138361109e565b9150610ecb826112ea565b602082019050919050565b6000610ee360218361109e565b9150610eee82611313565b604082019050919050565b610f0281611202565b82525050565b6000602082019050610f1d6000830184610e3b565b92915050565b6000606082019050610f386000830186610e3b565b610f456020830185610e3b565b610f526040830184610ef9565b949350505050565b6000604082019050610f6f6000830185610e3b565b610f7c6020830184610ef9565b9392505050565b60006020820190508181036000830152610f9c81610e4a565b9050919050565b60006020820190508181036000830152610fbc81610e6d565b9050919050565b60006020820190508181036000830152610fdc81610e90565b9050919050565b60006020820190508181036000830152610ffc81610eb3565b9050919050565b6000602082019050818103600083015261101c81610ed6565b9050919050565b60006020820190506110386000830184610ef9565b92915050565b60006040820190506110536000830185610ef9565b6110606020830184610ef9565b9392505050565b600060608201905061107c6000830186610ef9565b6110896020830185610ef9565b6110966040830184610ef9565b949350505050565b600082825260208201905092915050565b60006110ba82611202565b91506110c583611202565b9250827fffffffffffffffffffffffffffffffffffffffffffffffffffffffffffffffff038211156110fa576110f961120c565b5b828201905092915050565b600061111082611202565b915061111b83611202565b92508261112b5761112a61123b565b5b828204905092915050565b600061114182611202565b915061114c83611202565b9250817fffffffffffffffffffffffffffffffffffffffffffffffffffffffffffffffff04831182151516156111855761118461120c565b5b828202905092915050565b600061119b82611202565b91506111a683611202565b9250828210156111b9576111b861120c565b5b828203905092915050565b60006111cf826111e2565b9050919050565b60008115159050919050565b600073ffffffffffffffffffffffffffffffffffffffff82169050919050565b6000819050919050565b7f4e487b7100000000000000000000000000000000000000000000000000000000600052601160045260246000fd5b7f4e487b7100000000000000000000000000000000000000000000000000000000600052601260045260246000fd5b600080fd5b7f5472616e73666572206661696c65640000000000000000000000000000000000600082015250565b7f496e76616c696420616d6f756e74000000000000000000000000000000000000600082015250565b7f4d7573742070726f766964652045544800000000000000000000000000000000600082015250565b7f4d7573742070726f7669646520746f6b656e7300000000000000000000000000600082015250565b7f4d7573742070726f766964652045544820616e64204552432d323020746f6b6560008201527f6e00000000000000000000000000000000000000000000000000000000000000602082015250565b61136b816111c4565b811461137657600080fd5b50565b611382816111d6565b811461138d57600080fd5b50565b61139981611202565b81146113a457600080fd5b5056fea26469706673582212205514361eaa8802affb8bc00e7d592d9ad60231112d2c0ec2c21ed0209f26f87f64736f6c63430008070033",
			"opcodes": "PUSH1 0x80 PUSH1 0x40 MSTORE CALLVALUE DUP1 ISZERO PUSH3 0x11 JUMPI PUSH1 0x0 DUP1 REVERT JUMPDEST POP PUSH1 0x40 MLOAD PUSH3 0x1507 CODESIZE SUB DUP1 PUSH3 0x1507 DUP4 CODECOPY DUP2 DUP2 ADD PUSH1 0x40 MSTORE DUP2 ADD SWAP1 PUSH3 0x37 SWAP2 SWAP1 PUSH3 0x95 JUMP JUMPDEST DUP1 PUSH1 0x0 DUP1 PUSH2 0x100 EXP DUP2 SLOAD DUP2 PUSH20 0xFFFFFFFFFFFFFFFFFFFFFFFFFFFFFFFFFFFFFFFF MUL NOT AND SWAP1 DUP4 PUSH20 0xFFFFFFFFFFFFFFFFFFFFFFFFFFFFFFFFFFFFFFFF AND MUL OR SWAP1 SSTORE POP POP PUSH3 0x11A JUMP JUMPDEST PUSH1 0x0 DUP2 MLOAD SWAP1 POP PUSH3 0x8F DUP2 PUSH3 0x100 JUMP JUMPDEST SWAP3 SWAP2 POP POP JUMP JUMPDEST PUSH1 0x0 PUSH1 0x20 DUP3 DUP5 SUB SLT ISZERO PUSH3 0xAE JUMPI PUSH3 0xAD PUSH3 0xFB JUMP JUMPDEST JUMPDEST PUSH1 0x0 PUSH3 0xBE DUP5 DUP3 DUP6 ADD PUSH3 0x7E JUMP JUMPDEST SWAP2 POP POP SWAP3 SWAP2 POP POP JUMP JUMPDEST PUSH1 0x0 PUSH3 0xD4 DUP3 PUSH3 0xDB JUMP JUMPDEST SWAP1 POP SWAP2 SWAP1 POP JUMP JUMPDEST PUSH1 0x0 PUSH20 0xFFFFFFFFFFFFFFFFFFFFFFFFFFFFFFFFFFFFFFFF DUP3 AND SWAP1 POP SWAP2 SWAP1 POP JUMP JUMPDEST PUSH1 0x0 DUP1 REVERT JUMPDEST PUSH3 0x10B DUP2 PUSH3 0xC7 JUMP JUMPDEST DUP2 EQ PUSH3 0x117 JUMPI PUSH1 0x0 DUP1 REVERT JUMPDEST POP JUMP JUMPDEST PUSH2 0x13DD DUP1 PUSH3 0x12A PUSH1 0x0 CODECOPY PUSH1 0x0 RETURN INVALID PUSH1 0x80 PUSH1 0x40 MSTORE PUSH1 0x4 CALLDATASIZE LT PUSH2 0xA7 JUMPI PUSH1 0x0 CALLDATALOAD PUSH1 0xE0 SHR DUP1 PUSH4 0x903875F7 GT PUSH2 0x64 JUMPI DUP1 PUSH4 0x903875F7 EQ PUSH2 0x1EA JUMPI DUP1 PUSH4 0x9D76EA58 EQ PUSH2 0x227 JUMPI DUP1 PUSH4 0xC8AB8325 EQ PUSH2 0x252 JUMPI DUP1 PUSH4 0xE0BA2000 EQ PUSH2 0x28F JUMPI DUP1 PUSH4 0xEB521A4C EQ PUSH2 0x2BA JUMPI DUP1 PUSH4 0xED7BF868 EQ PUSH2 0x2EA JUMPI PUSH2 0xA7 JUMP JUMPDEST DUP1 PUSH4 0xA861F2A EQ PUSH2 0xAC JUMPI DUP1 PUSH4 0x1CDE6226 EQ PUSH2 0xEA JUMPI DUP1 PUSH4 0x240F3DEA EQ PUSH2 0x115 JUMPI DUP1 PUSH4 0x29CBAB3E EQ PUSH2 0x152 JUMPI DUP1 PUSH4 0x6FD0EA92 EQ PUSH2 0x170 JUMPI DUP1 PUSH4 0x79ED3562 EQ PUSH2 0x1AD JUMPI JUMPDEST PUSH1 0x0 DUP1 REVERT JUMPDEST CALLVALUE DUP1 ISZERO PUSH2 0xB8 JUMPI PUSH1 0x0 DUP1 REVERT JUMPDEST POP PUSH2 0xD3 PUSH1 0x4 DUP1 CALLDATASIZE SUB DUP2 ADD SWAP1 PUSH2 0xCE SWAP2 SWAP1 PUSH2 0xE0E JUMP JUMPDEST PUSH2 0x327 JUMP JUMPDEST PUSH1 0x40 MLOAD PUSH2 0xE1 SWAP3 SWAP2 SWAP1 PUSH2 0x103E JUMP JUMPDEST PUSH1 0x40 MLOAD DUP1 SWAP2 SUB SWAP1 RETURN JUMPDEST CALLVALUE DUP1 ISZERO PUSH2 0xF6 JUMPI PUSH1 0x0 DUP1 REVERT JUMPDEST POP PUSH2 0xFF PUSH2 0x5D4 JUMP JUMPDEST PUSH1 0x40 MLOAD PUSH2 0x10C SWAP2 SWAP1 PUSH2 0x1023 JUMP JUMPDEST PUSH1 0x40 MLOAD DUP1 SWAP2 SUB SWAP1 RETURN JUMPDEST CALLVALUE DUP1 ISZERO PUSH2 0x121 JUMPI PUSH1 0x0 DUP1 REVERT JUMPDEST POP PUSH2 0x13C PUSH1 0x4 DUP1 CALLDATASIZE SUB DUP2 ADD SWAP1 PUSH2 0x137 SWAP2 SWAP1 PUSH2 0xE0E JUMP JUMPDEST PUSH2 0x5DA JUMP JUMPDEST PUSH1 0x40 MLOAD PUSH2 0x149 SWAP2 SWAP1 PUSH2 0x1023 JUMP JUMPDEST PUSH1 0x40 MLOAD DUP1 SWAP2 SUB SWAP1 RETURN JUMPDEST PUSH2 0x15A PUSH2 0x5FE JUMP JUMPDEST PUSH1 0x40 MLOAD PUSH2 0x167 SWAP2 SWAP1 PUSH2 0x1023 JUMP JUMPDEST PUSH1 0x40 MLOAD DUP1 SWAP2 SUB SWAP1 RETURN JUMPDEST CALLVALUE DUP1 ISZERO PUSH2 0x17C JUMPI PUSH1 0x0 DUP1 REVERT JUMPDEST POP PUSH2 0x197 PUSH1 0x4 DUP1 CALLDATASIZE SUB DUP2 ADD SWAP1 PUSH2 0x192 SWAP2 SWAP1 PUSH2 0xDB4 JUMP JUMPDEST PUSH2 0x7A7 JUMP JUMPDEST PUSH1 0x40 MLOAD PUSH2 0x1A4 SWAP2 SWAP1 PUSH2 0x1023 JUMP JUMPDEST PUSH1 0x40 MLOAD DUP1 SWAP2 SUB SWAP1 RETURN JUMPDEST CALLVALUE DUP1 ISZERO PUSH2 0x1B9 JUMPI PUSH1 0x0 DUP1 REVERT JUMPDEST POP PUSH2 0x1D4 PUSH1 0x4 DUP1 CALLDATASIZE SUB DUP2 ADD SWAP1 PUSH2 0x1CF SWAP2 SWAP1 PUSH2 0xE0E JUMP JUMPDEST PUSH2 0x7BF JUMP JUMPDEST PUSH1 0x40 MLOAD PUSH2 0x1E1 SWAP2 SWAP1 PUSH2 0x1023 JUMP JUMPDEST PUSH1 0x40 MLOAD DUP1 SWAP2 SUB SWAP1 RETURN JUMPDEST CALLVALUE DUP1 ISZERO PUSH2 0x1F6 JUMPI PUSH1 0x0 DUP1 REVERT JUMPDEST POP PUSH2 0x211 PUSH1 0x4 DUP1 CALLDATASIZE SUB DUP2 ADD SWAP1 PUSH2 0x20C SWAP2 SWAP1 PUSH2 0xE0E JUMP JUMPDEST PUSH2 0x808 JUMP JUMPDEST PUSH1 0x40 MLOAD PUSH2 0x21E SWAP2 SWAP1 PUSH2 0x1023 JUMP JUMPDEST PUSH1 0x40 MLOAD DUP1 SWAP2 SUB SWAP1 RETURN JUMPDEST CALLVALUE DUP1 ISZERO PUSH2 0x233 JUMPI PUSH1 0x0 DUP1 REVERT JUMPDEST POP PUSH2 0x23C PUSH2 0x851 JUMP JUMPDEST PUSH1 0x40 MLOAD PUSH2 0x249 SWAP2 SWAP1 PUSH2 0xF08 JUMP JUMPDEST PUSH1 0x40 MLOAD DUP1 SWAP2 SUB SWAP1 RETURN JUMPDEST CALLVALUE DUP1 ISZERO PUSH2 0x25E JUMPI PUSH1 0x0 DUP1 REVERT JUMPDEST POP PUSH2 0x279 PUSH1 0x4 DUP1 CALLDATASIZE SUB DUP2 ADD SWAP1 PUSH2 0x274 SWAP2 SWAP1 PUSH2 0xE0E JUMP JUMPDEST PUSH2 0x875 JUMP JUMPDEST PUSH1 0x40 MLOAD PUSH2 0x286 SWAP2 SWAP1 PUSH2 0x1023 JUMP JUMPDEST PUSH1 0x40 MLOAD DUP1 SWAP2 SUB SWAP1 RETURN JUMPDEST CALLVALUE DUP1 ISZERO PUSH2 0x29B JUMPI PUSH1 0x0 DUP1 REVERT JUMPDEST POP PUSH2 0x2A4 PUSH2 0xA69 JUMP JUMPDEST PUSH1 0x40 MLOAD PUSH2 0x2B1 SWAP2 SWAP1 PUSH2 0x1023 JUMP JUMPDEST PUSH1 0x40 MLOAD DUP1 SWAP2 SUB SWAP1 RETURN JUMPDEST PUSH2 0x2D4 PUSH1 0x4 DUP1 CALLDATASIZE SUB DUP2 ADD SWAP1 PUSH2 0x2CF SWAP2 SWAP1 PUSH2 0xE0E JUMP JUMPDEST PUSH2 0xAB0 JUMP JUMPDEST PUSH1 0x40 MLOAD PUSH2 0x2E1 SWAP2 SWAP1 PUSH2 0x1023 JUMP JUMPDEST PUSH1 0x40 MLOAD DUP1 SWAP2 SUB SWAP1 RETURN JUMPDEST CALLVALUE DUP1 ISZERO PUSH2 0x2F6 JUMPI PUSH1 0x0 DUP1 REVERT JUMPDEST POP PUSH2 0x311 PUSH1 0x4 DUP1 CALLDATASIZE SUB DUP2 ADD SWAP1 PUSH2 0x30C SWAP2 SWAP1 PUSH2 0xE0E JUMP JUMPDEST PUSH2 0xD51 JUMP JUMPDEST PUSH1 0x40 MLOAD PUSH2 0x31E SWAP2 SWAP1 PUSH2 0x1023 JUMP JUMPDEST PUSH1 0x40 MLOAD DUP1 SWAP2 SUB SWAP1 RETURN JUMPDEST PUSH1 0x0 DUP1 PUSH1 0x0 DUP4 GT DUP1 ISZERO PUSH2 0x379 JUMPI POP PUSH1 0x2 PUSH1 0x0 CALLER PUSH20 0xFFFFFFFFFFFFFFFFFFFFFFFFFFFFFFFFFFFFFFFF AND PUSH20 0xFFFFFFFFFFFFFFFFFFFFFFFFFFFFFFFFFFFFFFFF AND DUP2 MSTORE PUSH1 0x20 ADD SWAP1 DUP2 MSTORE PUSH1 0x20 ADD PUSH1 0x0 KECCAK256 SLOAD DUP4 GT ISZERO JUMPDEST PUSH2 0x3B8 JUMPI PUSH1 0x40 MLOAD PUSH32 0x8C379A000000000000000000000000000000000000000000000000000000000 DUP2 MSTORE PUSH1 0x4 ADD PUSH2 0x3AF SWAP1 PUSH2 0xFA3 JUMP JUMPDEST PUSH1 0x40 MLOAD DUP1 SWAP2 SUB SWAP1 REVERT JUMPDEST PUSH1 0x0 PUSH1 0x1 SLOAD DUP5 PUSH1 0x3 SLOAD PUSH2 0x3CB SWAP2 SWAP1 PUSH2 0x1136 JUMP JUMPDEST PUSH2 0x3D5 SWAP2 SWAP1 PUSH2 0x1105 JUMP JUMPDEST SWAP1 POP PUSH1 0x0 PUSH1 0x1 SLOAD DUP6 PUSH1 0x4 SLOAD PUSH2 0x3EA SWAP2 SWAP1 PUSH2 0x1136 JUMP JUMPDEST PUSH2 0x3F4 SWAP2 SWAP1 PUSH2 0x1105 JUMP JUMPDEST SWAP1 POP DUP5 PUSH1 0x2 PUSH1 0x0 CALLER PUSH20 0xFFFFFFFFFFFFFFFFFFFFFFFFFFFFFFFFFFFFFFFF AND PUSH20 0xFFFFFFFFFFFFFFFFFFFFFFFFFFFFFFFFFFFFFFFF AND DUP2 MSTORE PUSH1 0x20 ADD SWAP1 DUP2 MSTORE PUSH1 0x20 ADD PUSH1 0x0 KECCAK256 PUSH1 0x0 DUP3 DUP3 SLOAD PUSH2 0x445 SWAP2 SWAP1 PUSH2 0x1190 JUMP JUMPDEST SWAP3 POP POP DUP2 SWAP1 SSTORE POP DUP5 PUSH1 0x1 PUSH1 0x0 DUP3 DUP3 SLOAD PUSH2 0x45E SWAP2 SWAP1 PUSH2 0x1190 JUMP JUMPDEST SWAP3 POP POP DUP2 SWAP1 SSTORE POP DUP2 PUSH1 0x3 PUSH1 0x0 DUP3 DUP3 SLOAD PUSH2 0x477 SWAP2 SWAP1 PUSH2 0x1190 JUMP JUMPDEST SWAP3 POP POP DUP2 SWAP1 SSTORE POP DUP1 PUSH1 0x4 PUSH1 0x0 DUP3 DUP3 SLOAD PUSH2 0x490 SWAP2 SWAP1 PUSH2 0x1190 JUMP JUMPDEST SWAP3 POP POP DUP2 SWAP1 SSTORE POP CALLER PUSH20 0xFFFFFFFFFFFFFFFFFFFFFFFFFFFFFFFFFFFFFFFF AND PUSH2 0x8FC DUP4 SWAP1 DUP2 ISZERO MUL SWAP1 PUSH1 0x40 MLOAD PUSH1 0x0 PUSH1 0x40 MLOAD DUP1 DUP4 SUB DUP2 DUP6 DUP9 DUP9 CALL SWAP4 POP POP POP POP ISZERO DUP1 ISZERO PUSH2 0x4DD JUMPI RETURNDATASIZE PUSH1 0x0 DUP1 RETURNDATACOPY RETURNDATASIZE PUSH1 0x0 REVERT JUMPDEST POP PUSH1 0x0 DUP1 SLOAD SWAP1 PUSH2 0x100 EXP SWAP1 DIV PUSH20 0xFFFFFFFFFFFFFFFFFFFFFFFFFFFFFFFFFFFFFFFF AND PUSH20 0xFFFFFFFFFFFFFFFFFFFFFFFFFFFFFFFFFFFFFFFF AND PUSH4 0xA9059CBB CALLER DUP4 PUSH1 0x40 MLOAD DUP4 PUSH4 0xFFFFFFFF AND PUSH1 0xE0 SHL DUP2 MSTORE PUSH1 0x4 ADD PUSH2 0x539 SWAP3 SWAP2 SWAP1 PUSH2 0xF5A JUMP JUMPDEST PUSH1 0x20 PUSH1 0x40 MLOAD DUP1 DUP4 SUB DUP2 PUSH1 0x0 DUP8 DUP1 EXTCODESIZE ISZERO DUP1 ISZERO PUSH2 0x553 JUMPI PUSH1 0x0 DUP1 REVERT JUMPDEST POP GAS CALL ISZERO DUP1 ISZERO PUSH2 0x567 JUMPI RETURNDATASIZE PUSH1 0x0 DUP1 RETURNDATACOPY RETURNDATASIZE PUSH1 0x0 REVERT JUMPDEST POP POP POP POP PUSH1 0x40 MLOAD RETURNDATASIZE PUSH1 0x1F NOT PUSH1 0x1F DUP3 ADD AND DUP3 ADD DUP1 PUSH1 0x40 MSTORE POP DUP2 ADD SWAP1 PUSH2 0x58B SWAP2 SWAP1 PUSH2 0xDE1 JUMP JUMPDEST POP PUSH32 0xB14F451E613015C13A17C78777F1D87FCB448D7330D67299A09B8F2DB38AAB10 DUP2 DUP4 DUP8 PUSH1 0x40 MLOAD PUSH2 0x5BF SWAP4 SWAP3 SWAP2 SWAP1 PUSH2 0x1067 JUMP JUMPDEST PUSH1 0x40 MLOAD DUP1 SWAP2 SUB SWAP1 LOG1 DUP1 DUP3 SWAP4 POP SWAP4 POP POP POP SWAP2 POP SWAP2 JUMP JUMPDEST PUSH1 0x1 SLOAD DUP2 JUMP JUMPDEST PUSH1 0x0 PUSH1 0x4 SLOAD DUP3 PUSH1 0x3 SLOAD PUSH2 0x5ED SWAP2 SWAP1 PUSH2 0x1136 JUMP JUMPDEST PUSH2 0x5F7 SWAP2 SWAP1 PUSH2 0x1105 JUMP JUMPDEST SWAP1 POP SWAP2 SWAP1 POP JUMP JUMPDEST PUSH1 0x0 DUP1 CALLVALUE GT PUSH2 0x642 JUMPI PUSH1 0x40 MLOAD PUSH32 0x8C379A000000000000000000000000000000000000000000000000000000000 DUP2 MSTORE PUSH1 0x4 ADD PUSH2 0x639 SWAP1 PUSH2 0xFC3 JUMP JUMPDEST PUSH1 0x40 MLOAD DUP1 SWAP2 SUB SWAP1 REVERT JUMPDEST PUSH1 0x0 CALLVALUE PUSH1 0x3 SLOAD PUSH2 0x652 SWAP2 SWAP1 PUSH2 0x10AF JUMP JUMPDEST SWAP1 POP PUSH1 0x0 DUP2 PUSH1 0x3 SLOAD PUSH1 0x4 SLOAD PUSH2 0x667 SWAP2 SWAP1 PUSH2 0x1136 JUMP JUMPDEST PUSH2 0x671 SWAP2 SWAP1 PUSH2 0x1105 JUMP JUMPDEST SWAP1 POP PUSH1 0x0 DUP2 PUSH1 0x4 SLOAD PUSH2 0x683 SWAP2 SWAP1 PUSH2 0x1190 JUMP JUMPDEST SWAP1 POP PUSH1 0x0 DUP1 SLOAD SWAP1 PUSH2 0x100 EXP SWAP1 DIV PUSH20 0xFFFFFFFFFFFFFFFFFFFFFFFFFFFFFFFFFFFFFFFF AND PUSH20 0xFFFFFFFFFFFFFFFFFFFFFFFFFFFFFFFFFFFFFFFF AND PUSH4 0xA9059CBB CALLER DUP4 PUSH1 0x40 MLOAD DUP4 PUSH4 0xFFFFFFFF AND PUSH1 0xE0 SHL DUP2 MSTORE PUSH1 0x4 ADD PUSH2 0x6E0 SWAP3 SWAP2 SWAP1 PUSH2 0xF5A JUMP JUMPDEST PUSH1 0x20 PUSH1 0x40 MLOAD DUP1 DUP4 SUB DUP2 PUSH1 0x0 DUP8 DUP1 EXTCODESIZE ISZERO DUP1 ISZERO PUSH2 0x6FA JUMPI PUSH1 0x0 DUP1 REVERT JUMPDEST POP GAS CALL ISZERO DUP1 ISZERO PUSH2 0x70E JUMPI RETURNDATASIZE PUSH1 0x0 DUP1 RETURNDATACOPY RETURNDATASIZE PUSH1 0x0 REVERT JUMPDEST POP POP POP POP PUSH1 0x40 MLOAD RETURNDATASIZE PUSH1 0x1F NOT PUSH1 0x1F DUP3 ADD AND DUP3 ADD DUP1 PUSH1 0x40 MSTORE POP DUP2 ADD SWAP1 PUSH2 0x732 SWAP2 SWAP1 PUSH2 0xDE1 JUMP JUMPDEST POP CALLVALUE PUSH1 0x3 PUSH1 0x0 DUP3 DUP3 SLOAD PUSH2 0x745 SWAP2 SWAP1 PUSH2 0x10AF JUMP JUMPDEST SWAP3 POP POP DUP2 SWAP1 SSTORE POP DUP1 PUSH1 0x4 PUSH1 0x0 DUP3 DUP3 SLOAD PUSH2 0x75E SWAP2 SWAP1 PUSH2 0x1190 JUMP JUMPDEST SWAP3 POP POP DUP2 SWAP1 SSTORE POP PUSH32 0xCDFC57B3D0CDC24B23CEA1F480AABEA287321F5BEE23AD76C2B52FA7982F5EA5 DUP2 CALLVALUE PUSH1 0x40 MLOAD PUSH2 0x796 SWAP3 SWAP2 SWAP1 PUSH2 0x103E JUMP JUMPDEST PUSH1 0x40 MLOAD DUP1 SWAP2 SUB SWAP1 LOG1 DUP1 SWAP4 POP POP POP POP SWAP1 JUMP JUMPDEST PUSH1 0x2 PUSH1 0x20 MSTORE DUP1 PUSH1 0x0 MSTORE PUSH1 0x40 PUSH1 0x0 KECCAK256 PUSH1 0x0 SWAP2 POP SWAP1 POP SLOAD DUP2 JUMP JUMPDEST PUSH1 0x0 DUP1 DUP3 PUSH1 0x3 SLOAD PUSH2 0x7D0 SWAP2 SWAP1 PUSH2 0x10AF JUMP JUMPDEST SWAP1 POP PUSH1 0x0 DUP2 PUSH1 0x3 SLOAD PUSH1 0x4 SLOAD PUSH2 0x7E5 SWAP2 SWAP1 PUSH2 0x1136 JUMP JUMPDEST PUSH2 0x7EF SWAP2 SWAP1 PUSH2 0x1105 JUMP JUMPDEST SWAP1 POP DUP1 PUSH1 0x4 SLOAD PUSH2 0x7FF SWAP2 SWAP1 PUSH2 0x1190 JUMP JUMPDEST SWAP3 POP POP POP SWAP2 SWAP1 POP JUMP JUMPDEST PUSH1 0x0 DUP1 DUP3 PUSH1 0x4 SLOAD PUSH2 0x819 SWAP2 SWAP1 PUSH2 0x10AF JUMP JUMPDEST SWAP1 POP PUSH1 0x0 DUP2 PUSH1 0x4 SLOAD PUSH1 0x3 SLOAD PUSH2 0x82E SWAP2 SWAP1 PUSH2 0x1136 JUMP JUMPDEST PUSH2 0x838 SWAP2 SWAP1 PUSH2 0x1105 JUMP JUMPDEST SWAP1 POP DUP1 PUSH1 0x3 SLOAD PUSH2 0x848 SWAP2 SWAP1 PUSH2 0x1190 JUMP JUMPDEST SWAP3 POP POP POP SWAP2 SWAP1 POP JUMP JUMPDEST PUSH1 0x0 DUP1 SLOAD SWAP1 PUSH2 0x100 EXP SWAP1 DIV PUSH20 0xFFFFFFFFFFFFFFFFFFFFFFFFFFFFFFFFFFFFFFFF AND DUP2 JUMP JUMPDEST PUSH1 0x0 DUP1 DUP3 GT PUSH2 0x8B9 JUMPI PUSH1 0x40 MLOAD PUSH32 0x8C379A000000000000000000000000000000000000000000000000000000000 DUP2 MSTORE PUSH1 0x4 ADD PUSH2 0x8B0 SWAP1 PUSH2 0xFE3 JUMP JUMPDEST PUSH1 0x40 MLOAD DUP1 SWAP2 SUB SWAP1 REVERT JUMPDEST PUSH1 0x0 DUP3 PUSH1 0x4 SLOAD PUSH2 0x8C9 SWAP2 SWAP1 PUSH2 0x10AF JUMP JUMPDEST SWAP1 POP PUSH1 0x0 DUP2 PUSH1 0x4 SLOAD PUSH1 0x3 SLOAD PUSH2 0x8DE SWAP2 SWAP1 PUSH2 0x1136 JUMP JUMPDEST PUSH2 0x8E8 SWAP2 SWAP1 PUSH2 0x1105 JUMP JUMPDEST SWAP1 POP PUSH1 0x0 DUP2 PUSH1 0x3 SLOAD PUSH2 0x8FA SWAP2 SWAP1 PUSH2 0x1190 JUMP JUMPDEST SWAP1 POP PUSH1 0x0 DUP1 SLOAD SWAP1 PUSH2 0x100 EXP SWAP1 DIV PUSH20 0xFFFFFFFFFFFFFFFFFFFFFFFFFFFFFFFFFFFFFFFF AND PUSH20 0xFFFFFFFFFFFFFFFFFFFFFFFFFFFFFFFFFFFFFFFF AND PUSH4 0x23B872DD CALLER ADDRESS DUP9 PUSH1 0x40 MLOAD DUP5 PUSH4 0xFFFFFFFF AND PUSH1 0xE0 SHL DUP2 MSTORE PUSH1 0x4 ADD PUSH2 0x959 SWAP4 SWAP3 SWAP2 SWAP1 PUSH2 0xF23 JUMP JUMPDEST PUSH1 0x20 PUSH1 0x40 MLOAD DUP1 DUP4 SUB DUP2 PUSH1 0x0 DUP8 DUP1 EXTCODESIZE ISZERO DUP1 ISZERO PUSH2 0x973 JUMPI PUSH1 0x0 DUP1 REVERT JUMPDEST POP GAS CALL ISZERO DUP1 ISZERO PUSH2 0x987 JUMPI RETURNDATASIZE PUSH1 0x0 DUP1 RETURNDATACOPY RETURNDATASIZE PUSH1 0x0 REVERT JUMPDEST POP POP POP POP PUSH1 0x40 MLOAD RETURNDATASIZE PUSH1 0x1F NOT PUSH1 0x1F DUP3 ADD AND DUP3 ADD DUP1 PUSH1 0x40 MSTORE POP DUP2 ADD SWAP1 PUSH2 0x9AB SWAP2 SWAP1 PUSH2 0xDE1 JUMP JUMPDEST POP CALLER PUSH20 0xFFFFFFFFFFFFFFFFFFFFFFFFFFFFFFFFFFFFFFFF AND PUSH2 0x8FC DUP3 SWAP1 DUP2 ISZERO MUL SWAP1 PUSH1 0x40 MLOAD PUSH1 0x0 PUSH1 0x40 MLOAD DUP1 DUP4 SUB DUP2 DUP6 DUP9 DUP9 CALL SWAP4 POP POP POP POP ISZERO DUP1 ISZERO PUSH2 0x9F2 JUMPI RETURNDATASIZE PUSH1 0x0 DUP1 RETURNDATACOPY RETURNDATASIZE PUSH1 0x0 REVERT JUMPDEST POP DUP5 PUSH1 0x4 PUSH1 0x0 DUP3 DUP3 SLOAD PUSH2 0xA05 SWAP2 SWAP1 PUSH2 0x10AF JUMP JUMPDEST SWAP3 POP POP DUP2 SWAP1 SSTORE POP DUP1 PUSH1 0x3 PUSH1 0x0 DUP3 DUP3 SLOAD PUSH2 0xA1E SWAP2 SWAP1 PUSH2 0x1190 JUMP JUMPDEST SWAP3 POP POP DUP2 SWAP1 SSTORE POP PUSH32 0x3297A389BB586920E62A196AF529D5F42651B17A1013D6BFE77F22372A0B2112 DUP6 DUP3 PUSH1 0x40 MLOAD PUSH2 0xA56 SWAP3 SWAP2 SWAP1 PUSH2 0x103E JUMP JUMPDEST PUSH1 0x40 MLOAD DUP1 SWAP2 SUB SWAP1 LOG1 DUP1 SWAP4 POP POP POP POP SWAP2 SWAP1 POP JUMP JUMPDEST PUSH1 0x0 PUSH1 0x2 PUSH1 0x0 CALLER PUSH20 0xFFFFFFFFFFFFFFFFFFFFFFFFFFFFFFFFFFFFFFFF AND PUSH20 0xFFFFFFFFFFFFFFFFFFFFFFFFFFFFFFFFFFFFFFFF AND DUP2 MSTORE PUSH1 0x20 ADD SWAP1 DUP2 MSTORE PUSH1 0x20 ADD PUSH1 0x0 KECCAK256 SLOAD SWAP1 POP SWAP1 JUMP JUMPDEST PUSH1 0x0 DUP1 CALLVALUE GT DUP1 ISZERO PUSH2 0xAC1 JUMPI POP PUSH1 0x0 DUP3 GT JUMPDEST PUSH2 0xB00 JUMPI PUSH1 0x40 MLOAD PUSH32 0x8C379A000000000000000000000000000000000000000000000000000000000 DUP2 MSTORE PUSH1 0x4 ADD PUSH2 0xAF7 SWAP1 PUSH2 0x1003 JUMP JUMPDEST PUSH1 0x40 MLOAD DUP1 SWAP2 SUB SWAP1 REVERT JUMPDEST PUSH1 0x0 DUP1 PUSH1 0x0 SWAP1 SLOAD SWAP1 PUSH2 0x100 EXP SWAP1 DIV PUSH20 0xFFFFFFFFFFFFFFFFFFFFFFFFFFFFFFFFFFFFFFFF AND SWAP1 POP DUP1 PUSH20 0xFFFFFFFFFFFFFFFFFFFFFFFFFFFFFFFFFFFFFFFF AND PUSH4 0x23B872DD CALLER ADDRESS DUP7 PUSH1 0x40 MLOAD DUP5 PUSH4 0xFFFFFFFF AND PUSH1 0xE0 SHL DUP2 MSTORE PUSH1 0x4 ADD PUSH2 0xB63 SWAP4 SWAP3 SWAP2 SWAP1 PUSH2 0xF23 JUMP JUMPDEST PUSH1 0x20 PUSH1 0x40 MLOAD DUP1 DUP4 SUB DUP2 PUSH1 0x0 DUP8 DUP1 EXTCODESIZE ISZERO DUP1 ISZERO PUSH2 0xB7D JUMPI PUSH1 0x0 DUP1 REVERT JUMPDEST POP GAS CALL ISZERO DUP1 ISZERO PUSH2 0xB91 JUMPI RETURNDATASIZE PUSH1 0x0 DUP1 RETURNDATACOPY RETURNDATASIZE PUSH1 0x0 REVERT JUMPDEST POP POP POP POP PUSH1 0x40 MLOAD RETURNDATASIZE PUSH1 0x1F NOT PUSH1 0x1F DUP3 ADD AND DUP3 ADD DUP1 PUSH1 0x40 MSTORE POP DUP2 ADD SWAP1 PUSH2 0xBB5 SWAP2 SWAP1 PUSH2 0xDE1 JUMP JUMPDEST PUSH2 0xBF4 JUMPI PUSH1 0x40 MLOAD PUSH32 0x8C379A000000000000000000000000000000000000000000000000000000000 DUP2 MSTORE PUSH1 0x4 ADD PUSH2 0xBEB SWAP1 PUSH2 0xF83 JUMP JUMPDEST PUSH1 0x40 MLOAD DUP1 SWAP2 SUB SWAP1 REVERT JUMPDEST PUSH1 0x0 PUSH1 0x1 SLOAD EQ ISZERO PUSH2 0xC51 JUMPI PUSH1 0x64 PUSH1 0x2 PUSH1 0x0 CALLER PUSH20 0xFFFFFFFFFFFFFFFFFFFFFFFFFFFFFFFFFFFFFFFF AND PUSH20 0xFFFFFFFFFFFFFFFFFFFFFFFFFFFFFFFFFFFFFFFF AND DUP2 MSTORE PUSH1 0x20 ADD SWAP1 DUP2 MSTORE PUSH1 0x20 ADD PUSH1 0x0 KECCAK256 DUP2 SWAP1 SSTORE POP PUSH1 0x64 PUSH1 0x1 DUP2 SWAP1 SSTORE POP PUSH2 0xCDE JUMP JUMPDEST PUSH1 0x4 SLOAD DUP4 PUSH1 0x1 SLOAD PUSH2 0xC62 SWAP2 SWAP1 PUSH2 0x1136 JUMP JUMPDEST PUSH2 0xC6C SWAP2 SWAP1 PUSH2 0x1105 JUMP JUMPDEST SWAP2 POP DUP2 PUSH1 0x2 PUSH1 0x0 CALLER PUSH20 0xFFFFFFFFFFFFFFFFFFFFFFFFFFFFFFFFFFFFFFFF AND PUSH20 0xFFFFFFFFFFFFFFFFFFFFFFFFFFFFFFFFFFFFFFFF AND DUP2 MSTORE PUSH1 0x20 ADD SWAP1 DUP2 MSTORE PUSH1 0x20 ADD PUSH1 0x0 KECCAK256 PUSH1 0x0 DUP3 DUP3 SLOAD PUSH2 0xCBD SWAP2 SWAP1 PUSH2 0x10AF JUMP JUMPDEST SWAP3 POP POP DUP2 SWAP1 SSTORE POP DUP2 PUSH1 0x1 PUSH1 0x0 DUP3 DUP3 SLOAD PUSH2 0xCD6 SWAP2 SWAP1 PUSH2 0x10AF JUMP JUMPDEST SWAP3 POP POP DUP2 SWAP1 SSTORE POP JUMPDEST CALLVALUE PUSH1 0x3 PUSH1 0x0 DUP3 DUP3 SLOAD PUSH2 0xCF0 SWAP2 SWAP1 PUSH2 0x10AF JUMP JUMPDEST SWAP3 POP POP DUP2 SWAP1 SSTORE POP DUP3 PUSH1 0x4 PUSH1 0x0 DUP3 DUP3 SLOAD PUSH2 0xD09 SWAP2 SWAP1 PUSH2 0x10AF JUMP JUMPDEST SWAP3 POP POP DUP2 SWAP1 SSTORE POP PUSH32 0xAA58F006CC244B2AF6662862508BD39465F57169FF8386D1D1F7B0B903150ABC DUP4 CALLVALUE DUP5 PUSH1 0x40 MLOAD PUSH2 0xD43 SWAP4 SWAP3 SWAP2 SWAP1 PUSH2 0x1067 JUMP JUMPDEST PUSH1 0x40 MLOAD DUP1 SWAP2 SUB SWAP1 LOG1 POP SWAP2 SWAP1 POP JUMP JUMPDEST PUSH1 0x0 PUSH1 0x3 SLOAD DUP3 PUSH1 0x4 SLOAD PUSH2 0xD64 SWAP2 SWAP1 PUSH2 0x1136 JUMP JUMPDEST PUSH2 0xD6E SWAP2 SWAP1 PUSH2 0x1105 JUMP JUMPDEST SWAP1 POP SWAP2 SWAP1 POP JUMP JUMPDEST PUSH1 0x0 DUP2 CALLDATALOAD SWAP1 POP PUSH2 0xD84 DUP2 PUSH2 0x1362 JUMP JUMPDEST SWAP3 SWAP2 POP POP JUMP JUMPDEST PUSH1 0x0 DUP2 MLOAD SWAP1 POP PUSH2 0xD99 DUP2 PUSH2 0x1379 JUMP JUMPDEST SWAP3 SWAP2 POP POP JUMP JUMPDEST PUSH1 0x0 DUP2 CALLDATALOAD SWAP1 POP PUSH2 0xDAE DUP2 PUSH2 0x1390 JUMP JUMPDEST SWAP3 SWAP2 POP POP JUMP JUMPDEST PUSH1 0x0 PUSH1 0x20 DUP3 DUP5 SUB SLT ISZERO PUSH2 0xDCA JUMPI PUSH2 0xDC9 PUSH2 0x126A JUMP JUMPDEST JUMPDEST PUSH1 0x0 PUSH2 0xDD8 DUP5 DUP3 DUP6 ADD PUSH2 0xD75 JUMP JUMPDEST SWAP2 POP POP SWAP3 SWAP2 POP POP JUMP JUMPDEST PUSH1 0x0 PUSH1 0x20 DUP3 DUP5 SUB SLT ISZERO PUSH2 0xDF7 JUMPI PUSH2 0xDF6 PUSH2 0x126A JUMP JUMPDEST JUMPDEST PUSH1 0x0 PUSH2 0xE05 DUP5 DUP3 DUP6 ADD PUSH2 0xD8A JUMP JUMPDEST SWAP2 POP POP SWAP3 SWAP2 POP POP JUMP JUMPDEST PUSH1 0x0 PUSH1 0x20 DUP3 DUP5 SUB SLT ISZERO PUSH2 0xE24 JUMPI PUSH2 0xE23 PUSH2 0x126A JUMP JUMPDEST JUMPDEST PUSH1 0x0 PUSH2 0xE32 DUP5 DUP3 DUP6 ADD PUSH2 0xD9F JUMP JUMPDEST SWAP2 POP POP SWAP3 SWAP2 POP POP JUMP JUMPDEST PUSH2 0xE44 DUP2 PUSH2 0x11C4 JUMP JUMPDEST DUP3 MSTORE POP POP JUMP JUMPDEST PUSH1 0x0 PUSH2 0xE57 PUSH1 0xF DUP4 PUSH2 0x109E JUMP JUMPDEST SWAP2 POP PUSH2 0xE62 DUP3 PUSH2 0x126F JUMP JUMPDEST PUSH1 0x20 DUP3 ADD SWAP1 POP SWAP2 SWAP1 POP JUMP JUMPDEST PUSH1 0x0 PUSH2 0xE7A PUSH1 0xE DUP4 PUSH2 0x109E JUMP JUMPDEST SWAP2 POP PUSH2 0xE85 DUP3 PUSH2 0x1298 JUMP JUMPDEST PUSH1 0x20 DUP3 ADD SWAP1 POP SWAP2 SWAP1 POP JUMP JUMPDEST PUSH1 0x0 PUSH2 0xE9D PUSH1 0x10 DUP4 PUSH2 0x109E JUMP JUMPDEST SWAP2 POP PUSH2 0xEA8 DUP3 PUSH2 0x12C1 JUMP JUMPDEST PUSH1 0x20 DUP3 ADD SWAP1 POP SWAP2 SWAP1 POP JUMP JUMPDEST PUSH1 0x0 PUSH2 0xEC0 PUSH1 0x13 DUP4 PUSH2 0x109E JUMP JUMPDEST SWAP2 POP PUSH2 0xECB DUP3 PUSH2 0x12EA JUMP JUMPDEST PUSH1 0x20 DUP3 ADD SWAP1 POP SWAP2 SWAP1 POP JUMP JUMPDEST PUSH1 0x0 PUSH2 0xEE3 PUSH1 0x21 DUP4 PUSH2 0x109E JUMP JUMPDEST SWAP2 POP PUSH2 0xEEE DUP3 PUSH2 0x1313 JUMP JUMPDEST PUSH1 0x40 DUP3 ADD SWAP1 POP SWAP2 SWAP1 POP JUMP JUMPDEST PUSH2 0xF02 DUP2 PUSH2 0x1202 JUMP JUMPDEST DUP3 MSTORE POP POP JUMP JUMPDEST PUSH1 0x0 PUSH1 0x20 DUP3 ADD SWAP1 POP PUSH2 0xF1D PUSH1 0x0 DUP4 ADD DUP5 PUSH2 0xE3B JUMP JUMPDEST SWAP3 SWAP2 POP POP JUMP JUMPDEST PUSH1 0x0 PUSH1 0x60 DUP3 ADD SWAP1 POP PUSH2 0xF38 PUSH1 0x0 DUP4 ADD DUP7 PUSH2 0xE3B JUMP JUMPDEST PUSH2 0xF45 PUSH1 0x20 DUP4 ADD DUP6 PUSH2 0xE3B JUMP JUMPDEST PUSH2 0xF52 PUSH1 0x40 DUP4 ADD DUP5 PUSH2 0xEF9 JUMP JUMPDEST SWAP5 SWAP4 POP POP POP POP JUMP JUMPDEST PUSH1 0x0 PUSH1 0x40 DUP3 ADD SWAP1 POP PUSH2 0xF6F PUSH1 0x0 DUP4 ADD DUP6 PUSH2 0xE3B JUMP JUMPDEST PUSH2 0xF7C PUSH1 0x20 DUP4 ADD DUP5 PUSH2 0xEF9 JUMP JUMPDEST SWAP4 SWAP3 POP POP POP JUMP JUMPDEST PUSH1 0x0 PUSH1 0x20 DUP3 ADD SWAP1 POP DUP2 DUP2 SUB PUSH1 0x0 DUP4 ADD MSTORE PUSH2 0xF9C DUP2 PUSH2 0xE4A JUMP JUMPDEST SWAP1 POP SWAP2 SWAP1 POP JUMP JUMPDEST PUSH1 0x0 PUSH1 0x20 DUP3 ADD SWAP1 POP DUP2 DUP2 SUB PUSH1 0x0 DUP4 ADD MSTORE PUSH2 0xFBC DUP2 PUSH2 0xE6D JUMP JUMPDEST SWAP1 POP SWAP2 SWAP1 POP JUMP JUMPDEST PUSH1 0x0 PUSH1 0x20 DUP3 ADD SWAP1 POP DUP2 DUP2 SUB PUSH1 0x0 DUP4 ADD MSTORE PUSH2 0xFDC DUP2 PUSH2 0xE90 JUMP JUMPDEST SWAP1 POP SWAP2 SWAP1 POP JUMP JUMPDEST PUSH1 0x0 PUSH1 0x20 DUP3 ADD SWAP1 POP DUP2 DUP2 SUB PUSH1 0x0 DUP4 ADD MSTORE PUSH2 0xFFC DUP2 PUSH2 0xEB3 JUMP JUMPDEST SWAP1 POP SWAP2 SWAP1 POP JUMP JUMPDEST PUSH1 0x0 PUSH1 0x20 DUP3 ADD SWAP1 POP DUP2 DUP2 SUB PUSH1 0x0 DUP4 ADD MSTORE PUSH2 0x101C DUP2 PUSH2 0xED6 JUMP JUMPDEST SWAP1 POP SWAP2 SWAP1 POP JUMP JUMPDEST PUSH1 0x0 PUSH1 0x20 DUP3 ADD SWAP1 POP PUSH2 0x1038 PUSH1 0x0 DUP4 ADD DUP5 PUSH2 0xEF9 JUMP JUMPDEST SWAP3 SWAP2 POP POP JUMP JUMPDEST PUSH1 0x0 PUSH1 0x40 DUP3 ADD SWAP1 POP PUSH2 0x1053 PUSH1 0x0 DUP4 ADD DUP6 PUSH2 0xEF9 JUMP JUMPDEST PUSH2 0x1060 PUSH1 0x20 DUP4 ADD DUP5 PUSH2 0xEF9 JUMP JUMPDEST SWAP4 SWAP3 POP POP POP JUMP JUMPDEST PUSH1 0x0 PUSH1 0x60 DUP3 ADD SWAP1 POP PUSH2 0x107C PUSH1 0x0 DUP4 ADD DUP7 PUSH2 0xEF9 JUMP JUMPDEST PUSH2 0x1089 PUSH1 0x20 DUP4 ADD DUP6 PUSH2 0xEF9 JUMP JUMPDEST PUSH2 0x1096 PUSH1 0x40 DUP4 ADD DUP5 PUSH2 0xEF9 JUMP JUMPDEST SWAP5 SWAP4 POP POP POP POP JUMP JUMPDEST PUSH1 0x0 DUP3 DUP3 MSTORE PUSH1 0x20 DUP3 ADD SWAP1 POP SWAP3 SWAP2 POP POP JUMP JUMPDEST PUSH1 0x0 PUSH2 0x10BA DUP3 PUSH2 0x1202 JUMP JUMPDEST SWAP2 POP PUSH2 0x10C5 DUP4 PUSH2 0x1202 JUMP JUMPDEST SWAP3 POP DUP3 PUSH32 0xFFFFFFFFFFFFFFFFFFFFFFFFFFFFFFFFFFFFFFFFFFFFFFFFFFFFFFFFFFFFFFFF SUB DUP3 GT ISZERO PUSH2 0x10FA JUMPI PUSH2 0x10F9 PUSH2 0x120C JUMP JUMPDEST JUMPDEST DUP3 DUP3 ADD SWAP1 POP SWAP3 SWAP2 POP POP JUMP JUMPDEST PUSH1 0x0 PUSH2 0x1110 DUP3 PUSH2 0x1202 JUMP JUMPDEST SWAP2 POP PUSH2 0x111B DUP4 PUSH2 0x1202 JUMP JUMPDEST SWAP3 POP DUP3 PUSH2 0x112B JUMPI PUSH2 0x112A PUSH2 0x123B JUMP JUMPDEST JUMPDEST DUP3 DUP3 DIV SWAP1 POP SWAP3 SWAP2 POP POP JUMP JUMPDEST PUSH1 0x0 PUSH2 0x1141 DUP3 PUSH2 0x1202 JUMP JUMPDEST SWAP2 POP PUSH2 0x114C DUP4 PUSH2 0x1202 JUMP JUMPDEST SWAP3 POP DUP2 PUSH32 0xFFFFFFFFFFFFFFFFFFFFFFFFFFFFFFFFFFFFFFFFFFFFFFFFFFFFFFFFFFFFFFFF DIV DUP4 GT DUP3 ISZERO ISZERO AND ISZERO PUSH2 0x1185 JUMPI PUSH2 0x1184 PUSH2 0x120C JUMP JUMPDEST JUMPDEST DUP3 DUP3 MUL SWAP1 POP SWAP3 SWAP2 POP POP JUMP JUMPDEST PUSH1 0x0 PUSH2 0x119B DUP3 PUSH2 0x1202 JUMP JUMPDEST SWAP2 POP PUSH2 0x11A6 DUP4 PUSH2 0x1202 JUMP JUMPDEST SWAP3 POP DUP3 DUP3 LT ISZERO PUSH2 0x11B9 JUMPI PUSH2 0x11B8 PUSH2 0x120C JUMP JUMPDEST JUMPDEST DUP3 DUP3 SUB SWAP1 POP SWAP3 SWAP2 POP POP JUMP JUMPDEST PUSH1 0x0 PUSH2 0x11CF DUP3 PUSH2 0x11E2 JUMP JUMPDEST SWAP1 POP SWAP2 SWAP1 POP JUMP JUMPDEST PUSH1 0x0 DUP2 ISZERO ISZERO SWAP1 POP SWAP2 SWAP1 POP JUMP JUMPDEST PUSH1 0x0 PUSH20 0xFFFFFFFFFFFFFFFFFFFFFFFFFFFFFFFFFFFFFFFF DUP3 AND SWAP1 POP SWAP2 SWAP1 POP JUMP JUMPDEST PUSH1 0x0 DUP2 SWAP1 POP SWAP2 SWAP1 POP JUMP JUMPDEST PUSH32 0x4E487B7100000000000000000000000000000000000000000000000000000000 PUSH1 0x0 MSTORE PUSH1 0x11 PUSH1 0x4 MSTORE PUSH1 0x24 PUSH1 0x0 REVERT JUMPDEST PUSH32 0x4E487B7100000000000000000000000000000000000000000000000000000000 PUSH1 0x0 MSTORE PUSH1 0x12 PUSH1 0x4 MSTORE PUSH1 0x24 PUSH1 0x0 REVERT JUMPDEST PUSH1 0x0 DUP1 REVERT JUMPDEST PUSH32 0x5472616E73666572206661696C65640000000000000000000000000000000000 PUSH1 0x0 DUP3 ADD MSTORE POP JUMP JUMPDEST PUSH32 0x496E76616C696420616D6F756E74000000000000000000000000000000000000 PUSH1 0x0 DUP3 ADD MSTORE POP JUMP JUMPDEST PUSH32 0x4D7573742070726F766964652045544800000000000000000000000000000000 PUSH1 0x0 DUP3 ADD MSTORE POP JUMP JUMPDEST PUSH32 0x4D7573742070726F7669646520746F6B656E7300000000000000000000000000 PUSH1 0x0 DUP3 ADD MSTORE POP JUMP JUMPDEST PUSH32 0x4D7573742070726F766964652045544820616E64204552432D323020746F6B65 PUSH1 0x0 DUP3 ADD MSTORE PUSH32 0x6E00000000000000000000000000000000000000000000000000000000000000 PUSH1 0x20 DUP3 ADD MSTORE POP JUMP JUMPDEST PUSH2 0x136B DUP2 PUSH2 0x11C4 JUMP JUMPDEST DUP2 EQ PUSH2 0x1376 JUMPI PUSH1 0x0 DUP1 REVERT JUMPDEST POP JUMP JUMPDEST PUSH2 0x1382 DUP2 PUSH2 0x11D6 JUMP JUMPDEST DUP2 EQ PUSH2 0x138D JUMPI PUSH1 0x0 DUP1 REVERT JUMPDEST POP JUMP JUMPDEST PUSH2 0x1399 DUP2 PUSH2 0x1202 JUMP JUMPDEST DUP2 EQ PUSH2 0x13A4 JUMPI PUSH1 0x0 DUP1 REVERT JUMPDEST POP JUMP INVALID LOG2 PUSH5 0x6970667358 0x22 SLT KECCAK256 SSTORE EQ CALLDATASIZE 0x1E 0xAA DUP9 MUL 0xAF 0xFB DUP12 0xC0 0xE PUSH30 0x592D9AD60231112D2C0EC2C21ED0209F26F87F64736F6C63430008070033 "
		},
		"gasEstimates": {
			"creation": {
				"codeDepositCost": "1017000",
				"executionCost": "infinite",
				"totalCost": "infinite"
			},
			"external": {
				"estimateERC20TokenToProvide(uint256)": "infinite",
				"estimateEthToProvide(uint256)": "infinite",
				"estimateSwapForERC20Token(uint256)": "infinite",
				"estimateSwapForEth(uint256)": "infinite",
				"getMyLiquidityPositions()": "2592",
				"liquidityPositions(address)": "2903",
				"provideLiquidity(uint256)": "infinite",
				"swapForERC20Token()": "infinite",
				"swapForEth(uint256)": "infinite",
				"tokenAddress()": "2533",
				"totalLiquidityPositions()": "2452",
				"withdrawLiquidity(uint256)": "infinite"
			}
		},
		"methodIdentifiers": {
			"estimateERC20TokenToProvide(uint256)": "ed7bf868",
			"estimateEthToProvide(uint256)": "240f3dea",
			"estimateSwapForERC20Token(uint256)": "79ed3562",
			"estimateSwapForEth(uint256)": "903875f7",
			"getMyLiquidityPositions()": "e0ba2000",
			"liquidityPositions(address)": "6fd0ea92",
			"provideLiquidity(uint256)": "eb521a4c",
			"swapForERC20Token()": "29cbab3e",
			"swapForEth(uint256)": "c8ab8325",
			"tokenAddress()": "9d76ea58",
			"totalLiquidityPositions()": "1cde6226",
			"withdrawLiquidity(uint256)": "0a861f2a"
		}
	},
	"abi": [
		{
			"inputs": [
				{
					"internalType": "address",
					"name": "_tokenAddress",
					"type": "address"
				}
			],
			"stateMutability": "nonpayable",
			"type": "constructor"
		},
		{
			"anonymous": false,
			"inputs": [
				{
					"indexed": false,
					"internalType": "uint256",
					"name": "amountERC20TokenDeposited",
					"type": "uint256"
				},
				{
					"indexed": false,
					"internalType": "uint256",
					"name": "amountEthDeposited",
					"type": "uint256"
				},
				{
					"indexed": false,
					"internalType": "uint256",
					"name": "liquidityPositionsIssued",
					"type": "uint256"
				}
			],
			"name": "LiquidityProvided",
			"type": "event"
		},
		{
			"anonymous": false,
			"inputs": [
				{
					"indexed": false,
					"internalType": "uint256",
					"name": "amountERC20TokenWithdrew",
					"type": "uint256"
				},
				{
					"indexed": false,
					"internalType": "uint256",
					"name": "amountEthWithdrew",
					"type": "uint256"
				},
				{
					"indexed": false,
					"internalType": "uint256",
					"name": "liquidityPositionsBurned",
					"type": "uint256"
				}
			],
			"name": "LiquidityWithdrew",
			"type": "event"
		},
		{
			"anonymous": false,
			"inputs": [
				{
					"indexed": false,
					"internalType": "uint256",
					"name": "amountERC20TokenWithdrew",
					"type": "uint256"
				},
				{
					"indexed": false,
					"internalType": "uint256",
					"name": "amountEthDeposited",
					"type": "uint256"
				}
			],
			"name": "SwapForERC20Token",
			"type": "event"
		},
		{
			"anonymous": false,
			"inputs": [
				{
					"indexed": false,
					"internalType": "uint256",
					"name": "amountERC20TokenDeposited",
					"type": "uint256"
				},
				{
					"indexed": false,
					"internalType": "uint256",
					"name": "amountEthWithdrew",
					"type": "uint256"
				}
			],
			"name": "SwapForEth",
			"type": "event"
		},
		{
			"inputs": [
				{
					"internalType": "uint256",
					"name": "_amountEth",
					"type": "uint256"
				}
			],
			"name": "estimateERC20TokenToProvide",
			"outputs": [
				{
					"internalType": "uint256",
					"name": "",
					"type": "uint256"
				}
			],
			"stateMutability": "view",
			"type": "function"
		},
		{
			"inputs": [
				{
					"internalType": "uint256",
					"name": "_amountERC20Token",
					"type": "uint256"
				}
			],
			"name": "estimateEthToProvide",
			"outputs": [
				{
					"internalType": "uint256",
					"name": "",
					"type": "uint256"
				}
			],
			"stateMutability": "view",
			"type": "function"
		},
		{
			"inputs": [
				{
					"internalType": "uint256",
					"name": "_amountEth",
					"type": "uint256"
				}
			],
			"name": "estimateSwapForERC20Token",
			"outputs": [
				{
					"internalType": "uint256",
					"name": "",
					"type": "uint256"
				}
			],
			"stateMutability": "view",
			"type": "function"
		},
		{
			"inputs": [
				{
					"internalType": "uint256",
					"name": "_amountERC20Token",
					"type": "uint256"
				}
			],
			"name": "estimateSwapForEth",
			"outputs": [
				{
					"internalType": "uint256",
					"name": "",
					"type": "uint256"
				}
			],
			"stateMutability": "view",
			"type": "function"
		},
		{
			"inputs": [],
			"name": "getMyLiquidityPositions",
			"outputs": [
				{
					"internalType": "uint256",
					"name": "",
					"type": "uint256"
				}
			],
			"stateMutability": "view",
			"type": "function"
		},
		{
			"inputs": [
				{
					"internalType": "address",
					"name": "",
					"type": "address"
				}
			],
			"name": "liquidityPositions",
			"outputs": [
				{
					"internalType": "uint256",
					"name": "",
					"type": "uint256"
				}
			],
			"stateMutability": "view",
			"type": "function"
		},
		{
			"inputs": [
				{
					"internalType": "uint256",
					"name": "_amountERC20Token",
					"type": "uint256"
				}
			],
			"name": "provideLiquidity",
			"outputs": [
				{
					"internalType": "uint256",
					"name": "liquidityPositionsIssued",
					"type": "uint256"
				}
			],
			"stateMutability": "payable",
			"type": "function"
		},
		{
			"inputs": [],
			"name": "swapForERC20Token",
			"outputs": [
				{
					"internalType": "uint256",
					"name": "",
					"type": "uint256"
				}
			],
			"stateMutability": "payable",
			"type": "function"
		},
		{
			"inputs": [
				{
					"internalType": "uint256",
					"name": "_amountERC20Token",
					"type": "uint256"
				}
			],
			"name": "swapForEth",
			"outputs": [
				{
					"internalType": "uint256",
					"name": "",
					"type": "uint256"
				}
			],
			"stateMutability": "nonpayable",
			"type": "function"
		},
		{
			"inputs": [],
			"name": "tokenAddress",
			"outputs": [
				{
					"internalType": "address",
					"name": "",
					"type": "address"
				}
			],
			"stateMutability": "view",
			"type": "function"
		},
		{
			"inputs": [],
			"name": "totalLiquidityPositions",
			"outputs": [
				{
					"internalType": "uint256",
					"name": "",
					"type": "uint256"
				}
			],
			"stateMutability": "view",
			"type": "function"
		},
		{
			"inputs": [
				{
					"internalType": "uint256",
					"name": "_liquidityPositionsToBurn",
					"type": "uint256"
				}
			],
			"name": "withdrawLiquidity",
			"outputs": [
				{
					"internalType": "uint256",
					"name": "",
					"type": "uint256"
				},
				{
					"internalType": "uint256",
					"name": "",
					"type": "uint256"
				}
			],
			"stateMutability": "nonpayable",
			"type": "function"
		}
	]
}